{
  "contractName": "Bet",
  "abi": [
    {
      "inputs": [
        {
          "internalType": "contract DAI",
          "name": "_tokenAddress",
          "type": "address"
        }
      ],
      "stateMutability": "nonpayable",
      "type": "constructor"
    },
    {
      "anonymous": false,
      "inputs": [
        {
          "indexed": false,
          "internalType": "bytes32",
          "name": "_eventId",
          "type": "bytes32"
        },
        {
          "indexed": false,
          "internalType": "address",
          "name": "_player",
          "type": "address"
        },
        {
          "indexed": false,
          "internalType": "uint8",
          "name": "_chosenWinner",
          "type": "uint8"
        },
        {
          "indexed": false,
          "internalType": "uint256",
          "name": "_amount",
          "type": "uint256"
        }
      ],
      "name": "BetPlaced",
      "type": "event"
    },
    {
      "anonymous": false,
      "inputs": [
        {
          "indexed": false,
          "internalType": "address",
          "name": "_address",
          "type": "address"
        }
      ],
      "name": "OracleAddressSet",
      "type": "event"
    },
    {
      "anonymous": false,
      "inputs": [
        {
          "indexed": true,
          "internalType": "address",
          "name": "previousOwner",
          "type": "address"
        },
        {
          "indexed": true,
          "internalType": "address",
          "name": "newOwner",
          "type": "address"
        }
      ],
      "name": "OwnershipTransferred",
      "type": "event"
    },
    {
      "inputs": [],
      "name": "Dai",
      "outputs": [
        {
          "internalType": "contract DAI",
          "name": "",
          "type": "address"
        }
      ],
      "stateMutability": "view",
      "type": "function",
      "constant": true
    },
    {
      "inputs": [],
      "name": "owner",
      "outputs": [
        {
          "internalType": "address",
          "name": "",
          "type": "address"
        }
      ],
      "stateMutability": "view",
      "type": "function",
      "constant": true
    },
    {
      "inputs": [],
      "name": "renounceOwnership",
      "outputs": [],
      "stateMutability": "nonpayable",
      "type": "function"
    },
    {
      "inputs": [
        {
          "internalType": "address",
          "name": "newOwner",
          "type": "address"
        }
      ],
      "name": "transferOwnership",
      "outputs": [],
      "stateMutability": "nonpayable",
      "type": "function"
    },
    {
      "stateMutability": "payable",
      "type": "receive",
      "payable": true
    },
    {
      "inputs": [],
      "name": "getContractDAIBalance",
      "outputs": [
        {
          "internalType": "uint256",
          "name": "",
          "type": "uint256"
        }
      ],
      "stateMutability": "view",
      "type": "function",
      "constant": true
    },
    {
      "inputs": [
        {
          "internalType": "address",
          "name": "_oracleAddress",
          "type": "address"
        }
      ],
      "name": "setOracleAddress",
      "outputs": [
        {
          "internalType": "bool",
          "name": "",
          "type": "bool"
        }
      ],
      "stateMutability": "nonpayable",
      "type": "function"
    },
    {
      "inputs": [],
      "name": "testOracleConnection",
      "outputs": [
        {
          "internalType": "bool",
          "name": "",
          "type": "bool"
        }
      ],
      "stateMutability": "view",
      "type": "function",
      "constant": true
    },
    {
      "inputs": [],
      "name": "getOracleAddress",
      "outputs": [
        {
          "internalType": "address",
          "name": "",
          "type": "address"
        }
      ],
      "stateMutability": "view",
      "type": "function",
      "constant": true
    },
    {
      "inputs": [],
      "name": "getBettableEvents",
      "outputs": [
        {
          "internalType": "bytes32[]",
          "name": "pendingEvents",
          "type": "bytes32[]"
        }
      ],
      "stateMutability": "view",
      "type": "function",
      "constant": true
    },
    {
      "inputs": [
        {
          "internalType": "bytes32",
          "name": "_eventId",
          "type": "bytes32"
        }
      ],
      "name": "getEvent",
      "outputs": [
        {
          "internalType": "bytes32",
          "name": "id",
          "type": "bytes32"
        },
        {
          "internalType": "string",
          "name": "name",
          "type": "string"
        },
        {
          "internalType": "string",
          "name": "participants",
          "type": "string"
        },
        {
          "internalType": "uint8",
          "name": "participantCount",
          "type": "uint8"
        },
        {
          "internalType": "uint256",
          "name": "date",
          "type": "uint256"
        },
        {
          "internalType": "enum OracleInterface.EventOutcome",
          "name": "outcome",
          "type": "uint8"
        },
        {
          "internalType": "int8",
          "name": "winner",
          "type": "int8"
        }
      ],
      "stateMutability": "view",
      "type": "function",
      "constant": true
    },
    {
      "inputs": [],
      "name": "getLatestEvent",
      "outputs": [
        {
          "internalType": "bytes32",
          "name": "id",
          "type": "bytes32"
        },
        {
          "internalType": "string",
          "name": "name",
          "type": "string"
        },
        {
          "internalType": "string",
          "name": "participants",
          "type": "string"
        },
        {
          "internalType": "uint256",
          "name": "participantCount",
          "type": "uint256"
        },
        {
          "internalType": "uint256",
          "name": "date",
          "type": "uint256"
        },
        {
          "internalType": "enum OracleInterface.EventOutcome",
          "name": "outcome",
          "type": "uint8"
        },
        {
          "internalType": "int8",
          "name": "winner",
          "type": "int8"
        }
      ],
      "stateMutability": "view",
      "type": "function",
      "constant": true
    },
    {
      "inputs": [
        {
          "internalType": "bytes32",
          "name": "_eventId",
          "type": "bytes32"
        },
        {
          "internalType": "uint8",
          "name": "_chosenWinner",
          "type": "uint8"
        }
      ],
      "name": "placeBet",
      "outputs": [],
      "stateMutability": "payable",
      "type": "function",
      "payable": true
    }
  ],
  "bytecode": "0x60806040526000600560006101000a81548173ffffffffffffffffffffffffffffffffffffffff021916908373ffffffffffffffffffffffffffffffffffffffff160217905550600560009054906101000a900473ffffffffffffffffffffffffffffffffffffffff16600660006101000a81548173ffffffffffffffffffffffffffffffffffffffff021916908373ffffffffffffffffffffffffffffffffffffffff16021790555067016345785d8a0000600755348015620000c257600080fd5b5060405162002221380380620022218339818101604052810190620000e8919062000206565b6000620000fa620001e760201b60201c565b9050806000806101000a81548173ffffffffffffffffffffffffffffffffffffffff021916908373ffffffffffffffffffffffffffffffffffffffff1602179055508073ffffffffffffffffffffffffffffffffffffffff16600073ffffffffffffffffffffffffffffffffffffffff167f8be0079c531659141344cd1fd0a4f28419497f9722a3daafe3b4186f6b6457e060405160405180910390a3506001808190555080600260006101000a81548173ffffffffffffffffffffffffffffffffffffffff021916908373ffffffffffffffffffffffffffffffffffffffff1602179055505062000294565b600033905090565b60008151905062000200816200027a565b92915050565b6000602082840312156200021957600080fd5b60006200022984828501620001ef565b91505092915050565b60006200023f826200025a565b9050919050565b6000620002538262000232565b9050919050565b600073ffffffffffffffffffffffffffffffffffffffff82169050919050565b620002858162000246565b81146200029157600080fd5b50565b611f7d80620002a46000396000f3fe6080604052600436106100ab5760003560e01c80638c172fa2116100645780638c172fa2146101ae5780638da5cb5b146101f15780639a74c81f1461021c5780639be2395d14610247578063b18b78dd14610272578063f2fde38b1461029d576100b2565b80630e52bb49146100b757806320f51707146100d35780632ce3707e146100fe5780634c69c00f14610129578063715018a61461016657806379ff47771461017d576100b2565b366100b257005b600080fd5b6100d160048036038101906100cc919061150b565b6102c6565b005b3480156100df57600080fd5b506100e861073c565b6040516100f59190611970565b60405180910390f35b34801561010a57600080fd5b50610113610762565b60405161012091906117fb565b60405180910390f35b34801561013557600080fd5b50610150600480360381019061014b91906112b3565b610809565b60405161015d91906117fb565b60405180910390f35b34801561017257600080fd5b5061017b610a9d565b005b34801561018957600080fd5b50610192610bd7565b6040516101a59796959493929190611876565b60405180910390f35b3480156101ba57600080fd5b506101d560048036038101906101d09190611346565b610caa565b6040516101e897969594939291906118f3565b60405180910390f35b3480156101fd57600080fd5b50610206610d7e565b60405161021391906117be565b60405180910390f35b34801561022857600080fd5b50610231610da7565b60405161023e9190611a8b565b60405180910390f35b34801561025357600080fd5b5061025c610e59565b60405161026991906117d9565b60405180910390f35b34801561027e57600080fd5b50610287610f05565b60405161029491906117be565b60405180910390f35b3480156102a957600080fd5b506102c460048036038101906102bf91906112b3565b610f2f565b005b33600073ffffffffffffffffffffffffffffffffffffffff168173ffffffffffffffffffffffffffffffffffffffff161415610337576040517f08c379a000000000000000000000000000000000000000000000000000000000815260040161032e90611a2b565b60405180910390fd5b6002600154141561037d576040517f08c379a000000000000000000000000000000000000000000000000000000000815260040161037490611a6b565b60405180910390fd5b60026001819055506007543410156103ca576040517f08c379a00000000000000000000000000000000000000000000000000000000081526004016103c190611a0b565b60405180910390fd5b600660009054906101000a900473ffffffffffffffffffffffffffffffffffffffff1673ffffffffffffffffffffffffffffffffffffffff1663118e58bd846040518263ffffffff1660e01b81526004016104259190611816565b60206040518083038186803b15801561043d57600080fd5b505afa158015610451573d6000803e3d6000fd5b505050506040513d601f19601f82011682018060405250810190610475919061131d565b6104b4576040517f08c379a00000000000000000000000000000000000000000000000000000000081526004016104ab906119ab565b60405180910390fd5b6104bf3384846110d8565b6104fe576040517f08c379a00000000000000000000000000000000000000000000000000000000081526004016104f5906119eb565b60405180910390fd5b610507836110e5565b610546576040517f08c379a000000000000000000000000000000000000000000000000000000000815260040161053d906119cb565b60405180910390fd5b3073ffffffffffffffffffffffffffffffffffffffff166108fc349081150290604051600060405180830381858888f1935050505015801561058c573d6000803e3d6000fd5b5060006004600085815260200190815260200160002090508060405180608001604052803373ffffffffffffffffffffffffffffffffffffffff1681526020018681526020013481526020018560ff16815250908060018154018082558091505060019003906000526020600020906004020160009091909190915060008201518160000160006101000a81548173ffffffffffffffffffffffffffffffffffffffff021916908373ffffffffffffffffffffffffffffffffffffffff160217905550602082015181600101556040820151816002015560608201518160030160006101000a81548160ff021916908360ff16021790555050506000600360003373ffffffffffffffffffffffffffffffffffffffff1673ffffffffffffffffffffffffffffffffffffffff1681526020019081526020016000209050808590806001815401808255809150506001900390600052602060002001600090919091909150557f22f4c9bb73a93d9507392476fa412371d3d5e19e74d8951567b76a7483dca1a0853386346040516107269493929190611831565b60405180910390a1505060018081905550505050565b600260009054906101000a900473ffffffffffffffffffffffffffffffffffffffff1681565b6000600660009054906101000a900473ffffffffffffffffffffffffffffffffffffffff1673ffffffffffffffffffffffffffffffffffffffff16633412a15c6040518163ffffffff1660e01b815260040160206040518083038186803b1580156107cc57600080fd5b505afa1580156107e0573d6000803e3d6000fd5b505050506040513d601f19601f82011682018060405250810190610804919061131d565b905090565b60006108136110f0565b73ffffffffffffffffffffffffffffffffffffffff16610831610d7e565b73ffffffffffffffffffffffffffffffffffffffff1614610887576040517f08c379a000000000000000000000000000000000000000000000000000000000815260040161087e90611a4b565b60405180910390fd5b81600073ffffffffffffffffffffffffffffffffffffffff168173ffffffffffffffffffffffffffffffffffffffff1614156108f8576040517f08c379a00000000000000000000000000000000000000000000000000000000081526004016108ef90611a2b565b60405180910390fd5b82600560006101000a81548173ffffffffffffffffffffffffffffffffffffffff021916908373ffffffffffffffffffffffffffffffffffffffff160217905550600560009054906101000a900473ffffffffffffffffffffffffffffffffffffffff16600660006101000a81548173ffffffffffffffffffffffffffffffffffffffff021916908373ffffffffffffffffffffffffffffffffffffffff1602179055507fdd82bdfc28fcc826c53263dc2a2b6083e27e92699ebfee617227e08e21c202f0600560009054906101000a900473ffffffffffffffffffffffffffffffffffffffff166040516109ed91906117be565b60405180910390a1600660009054906101000a900473ffffffffffffffffffffffffffffffffffffffff1673ffffffffffffffffffffffffffffffffffffffff16633412a15c6040518163ffffffff1660e01b815260040160206040518083038186803b158015610a5d57600080fd5b505afa158015610a71573d6000803e3d6000fd5b505050506040513d601f19601f82011682018060405250810190610a95919061131d565b915050919050565b610aa56110f0565b73ffffffffffffffffffffffffffffffffffffffff16610ac3610d7e565b73ffffffffffffffffffffffffffffffffffffffff1614610b19576040517f08c379a0000000000000000000000000000000000000000000000000000000008152600401610b1090611a4b565b60405180910390fd5b600073ffffffffffffffffffffffffffffffffffffffff1660008054906101000a900473ffffffffffffffffffffffffffffffffffffffff1673ffffffffffffffffffffffffffffffffffffffff167f8be0079c531659141344cd1fd0a4f28419497f9722a3daafe3b4186f6b6457e060405160405180910390a360008060006101000a81548173ffffffffffffffffffffffffffffffffffffffff021916908373ffffffffffffffffffffffffffffffffffffffff160217905550565b6000606080600080600080600660009054906101000a900473ffffffffffffffffffffffffffffffffffffffff1673ffffffffffffffffffffffffffffffffffffffff166329e5426960016040518263ffffffff1660e01b8152600401610c3e91906117fb565b60006040518083038186803b158015610c5657600080fd5b505afa158015610c6a573d6000803e3d6000fd5b505050506040513d6000823e3d601f19601f82011682018060405250810190610c93919061136f565b965096509650965096509650965090919293949596565b6000606080600080600080600660009054906101000a900473ffffffffffffffffffffffffffffffffffffffff1673ffffffffffffffffffffffffffffffffffffffff16638c172fa2896040518263ffffffff1660e01b8152600401610d109190611816565b60006040518083038186803b158015610d2857600080fd5b505afa158015610d3c573d6000803e3d6000fd5b505050506040513d6000823e3d601f19601f82011682018060405250810190610d65919061143d565b9650965096509650965096509650919395979092949650565b60008060009054906101000a900473ffffffffffffffffffffffffffffffffffffffff16905090565b6000600260009054906101000a900473ffffffffffffffffffffffffffffffffffffffff1673ffffffffffffffffffffffffffffffffffffffff166370a08231306040518263ffffffff1660e01b8152600401610e0491906117be565b60206040518083038186803b158015610e1c57600080fd5b505afa158015610e30573d6000803e3d6000fd5b505050506040513d601f19601f82011682018060405250810190610e549190611547565b905090565b6060600660009054906101000a900473ffffffffffffffffffffffffffffffffffffffff1673ffffffffffffffffffffffffffffffffffffffff1663b4184e706040518163ffffffff1660e01b815260040160006040518083038186803b158015610ec357600080fd5b505afa158015610ed7573d6000803e3d6000fd5b505050506040513d6000823e3d601f19601f82011682018060405250810190610f0091906112dc565b905090565b6000600560009054906101000a900473ffffffffffffffffffffffffffffffffffffffff16905090565b610f376110f0565b73ffffffffffffffffffffffffffffffffffffffff16610f55610d7e565b73ffffffffffffffffffffffffffffffffffffffff1614610fab576040517f08c379a0000000000000000000000000000000000000000000000000000000008152600401610fa290611a4b565b60405180910390fd5b600073ffffffffffffffffffffffffffffffffffffffff168173ffffffffffffffffffffffffffffffffffffffff16141561101b576040517f08c379a00000000000000000000000000000000000000000000000000000000081526004016110129061198b565b60405180910390fd5b8073ffffffffffffffffffffffffffffffffffffffff1660008054906101000a900473ffffffffffffffffffffffffffffffffffffffff1673ffffffffffffffffffffffffffffffffffffffff167f8be0079c531659141344cd1fd0a4f28419497f9722a3daafe3b4186f6b6457e060405160405180910390a3806000806101000a81548173ffffffffffffffffffffffffffffffffffffffff021916908373ffffffffffffffffffffffffffffffffffffffff16021790555050565b6000600190509392505050565b600060019050919050565b600033905090565b600061110b61110684611acb565b611aa6565b9050808382526020820190508285602086028201111561112a57600080fd5b60005b8581101561115a5781611140888261120b565b84526020840193506020830192505060018101905061112d565b5050509392505050565b600061117761117284611af7565b611aa6565b90508281526020810184848401111561118f57600080fd5b61119a848285611c32565b509392505050565b6000813590506111b181611ead565b92915050565b600082601f8301126111c857600080fd5b81516111d88482602086016110f8565b91505092915050565b6000815190506111f081611ec4565b92915050565b60008135905061120581611edb565b92915050565b60008151905061121a81611edb565b92915050565b60008151905061122f81611ef2565b92915050565b60008151905061124481611f02565b92915050565b600082601f83011261125b57600080fd5b815161126b848260208601611164565b91505092915050565b60008151905061128381611f19565b92915050565b60008135905061129881611f30565b92915050565b6000815190506112ad81611f30565b92915050565b6000602082840312156112c557600080fd5b60006112d3848285016111a2565b91505092915050565b6000602082840312156112ee57600080fd5b600082015167ffffffffffffffff81111561130857600080fd5b611314848285016111b7565b91505092915050565b60006020828403121561132f57600080fd5b600061133d848285016111e1565b91505092915050565b60006020828403121561135857600080fd5b6000611366848285016111f6565b91505092915050565b600080600080600080600060e0888a03121561138a57600080fd5b60006113988a828b0161120b565b975050602088015167ffffffffffffffff8111156113b557600080fd5b6113c18a828b0161124a565b965050604088015167ffffffffffffffff8111156113de57600080fd5b6113ea8a828b0161124a565b95505060606113fb8a828b01611274565b945050608061140c8a828b01611274565b93505060a061141d8a828b01611220565b92505060c061142e8a828b01611235565b91505092959891949750929550565b600080600080600080600060e0888a03121561145857600080fd5b60006114668a828b0161120b565b975050602088015167ffffffffffffffff81111561148357600080fd5b61148f8a828b0161124a565b965050604088015167ffffffffffffffff8111156114ac57600080fd5b6114b88a828b0161124a565b95505060606114c98a828b0161129e565b94505060806114da8a828b01611274565b93505060a06114eb8a828b01611220565b92505060c06114fc8a828b01611235565b91505092959891949750929550565b6000806040838503121561151e57600080fd5b600061152c858286016111f6565b925050602061153d85828601611289565b9150509250929050565b60006020828403121561155957600080fd5b600061156784828501611274565b91505092915050565b600061157c8383611604565b60208301905092915050565b61159181611b7d565b82525050565b60006115a282611b38565b6115ac8185611b5b565b93506115b783611b28565b8060005b838110156115e85781516115cf8882611570565b97506115da83611b4e565b9250506001810190506115bb565b5085935050505092915050565b6115fe81611b8f565b82525050565b61160d81611b9b565b82525050565b61161c81611b9b565b82525050565b61162b81611bfc565b82525050565b61163a81611c20565b82525050565b61164981611bb8565b82525050565b600061165a82611b43565b6116648185611b6c565b9350611674818560208601611c32565b61167d81611cf4565b840191505092915050565b6000611695602683611b6c565b91506116a082611d05565b604082019050919050565b60006116b8601983611b6c565b91506116c382611d54565b602082019050919050565b60006116db601a83611b6c565b91506116e682611d7d565b602082019050919050565b60006116fe601083611b6c565b915061170982611da6565b602082019050919050565b6000611721602183611b6c565b915061172c82611dcf565b604082019050919050565b6000611744601883611b6c565b915061174f82611e1e565b602082019050919050565b6000611767602083611b6c565b915061177282611e47565b602082019050919050565b600061178a601f83611b6c565b915061179582611e70565b602082019050919050565b6117a981611be5565b82525050565b6117b881611bef565b82525050565b60006020820190506117d36000830184611588565b92915050565b600060208201905081810360008301526117f38184611597565b905092915050565b600060208201905061181060008301846115f5565b92915050565b600060208201905061182b6000830184611613565b92915050565b60006080820190506118466000830187611613565b6118536020830186611588565b61186060408301856117af565b61186d60608301846117a0565b95945050505050565b600060e08201905061188b600083018a611613565b818103602083015261189d818961164f565b905081810360408301526118b1818861164f565b90506118c060608301876117a0565b6118cd60808301866117a0565b6118da60a0830185611631565b6118e760c0830184611640565b98975050505050505050565b600060e082019050611908600083018a611613565b818103602083015261191a818961164f565b9050818103604083015261192e818861164f565b905061193d60608301876117af565b61194a60808301866117a0565b61195760a0830185611631565b61196460c0830184611640565b98975050505050505050565b60006020820190506119856000830184611622565b92915050565b600060208201905081810360008301526119a481611688565b9050919050565b600060208201905081810360008301526119c4816116ab565b9050919050565b600060208201905081810360008301526119e4816116ce565b9050919050565b60006020820190508181036000830152611a04816116f1565b9050919050565b60006020820190508181036000830152611a2481611714565b9050919050565b60006020820190508181036000830152611a4481611737565b9050919050565b60006020820190508181036000830152611a648161175a565b9050919050565b60006020820190508181036000830152611a848161177d565b9050919050565b6000602082019050611aa060008301846117a0565b92915050565b6000611ab0611ac1565b9050611abc8282611c65565b919050565b6000604051905090565b600067ffffffffffffffff821115611ae657611ae5611cc5565b5b602082029050602081019050919050565b600067ffffffffffffffff821115611b1257611b11611cc5565b5b611b1b82611cf4565b9050602081019050919050565b6000819050602082019050919050565b600081519050919050565b600081519050919050565b6000602082019050919050565b600082825260208201905092915050565b600082825260208201905092915050565b6000611b8882611bc5565b9050919050565b60008115159050919050565b6000819050919050565b6000819050611bb382611e99565b919050565b60008160000b9050919050565b600073ffffffffffffffffffffffffffffffffffffffff82169050919050565b6000819050919050565b600060ff82169050919050565b6000611c0782611c0e565b9050919050565b6000611c1982611bc5565b9050919050565b6000611c2b82611ba5565b9050919050565b60005b83811015611c50578082015181840152602081019050611c35565b83811115611c5f576000848401525b50505050565b611c6e82611cf4565b810181811067ffffffffffffffff82111715611c8d57611c8c611cc5565b5b80604052505050565b7f4e487b7100000000000000000000000000000000000000000000000000000000600052602160045260246000fd5b7f4e487b7100000000000000000000000000000000000000000000000000000000600052604160045260246000fd5b6000601f19601f8301169050919050565b7f4f776e61626c653a206e6577206f776e657220697320746865207a65726f206160008201527f6464726573730000000000000000000000000000000000000000000000000000602082015250565b7f537065636966696564206576656e74206e6f7420666f756e6400000000000000600082015250565b7f4576656e74206e6f74206f70656e20666f722062657474696e67000000000000600082015250565b7f426574206973206e6f742076616c696400000000000000000000000000000000600082015250565b7f42657420616d6f756e74206d757374206265203e3d206d696e696d756d20626560008201527f7400000000000000000000000000000000000000000000000000000000000000602082015250565b7f416464726573732030206973206e6f7420616c6c6f7765640000000000000000600082015250565b7f4f776e61626c653a2063616c6c6572206973206e6f7420746865206f776e6572600082015250565b7f5265656e7472616e637947756172643a207265656e7472616e742063616c6c00600082015250565b60048110611eaa57611ea9611c96565b5b50565b611eb681611b7d565b8114611ec157600080fd5b50565b611ecd81611b8f565b8114611ed857600080fd5b50565b611ee481611b9b565b8114611eef57600080fd5b50565b60048110611eff57600080fd5b50565b611f0b81611bb8565b8114611f1657600080fd5b50565b611f2281611be5565b8114611f2d57600080fd5b50565b611f3981611bef565b8114611f4457600080fd5b5056fea26469706673582212200776952ec48531f8b9a3b54cf69925d0e39aa29659645d1c99fcd870179238ae64736f6c63430008030033",
  "immutableReferences": {},
  "source": "// SPDX-License-Identifier: MIT\npragma solidity 0.8.3;\n\n\nimport \"@openzeppelin/contracts/access/Ownable.sol\";\nimport \"@openzeppelin/contracts/security/ReentrancyGuard.sol\";\nimport \"./OracleInterface.sol\";\n\nimport \"./DAI.sol\";\n\n/** \n * This Ethereum smart-contract takes bets placed on sport events.  \n * It then invests all bets deposits for a given event (pot) in DeFi.  \n * Then once the event outcome is confirmed,\n * it makes the accrued interests ready for the winners \n * to withdraw proportionnaly to their initial stake.  \n * Players do not loose their stake.\n *\n * @notice Takes bets and handles payouts for sport events\n * @title  a Smart-Contract in charge of handling bets on a sport event outcome where players do not loose their stake and winners earn the interests accrued on the stakes.\n * @author Tanteli, block74 \n */\ncontract Bet is Ownable, ReentrancyGuard {\n\n    /**\n     * @dev New instance of ERC20 DAI Token\n     */\n     DAI public Dai;\n\n    /** \n     * @dev list of all bets per player, ie. a map composed (player address => bet id) pairs\n     */\n    mapping(address => bytes32[]) private userToBets;\n\n    /**\n     *  @dev for any given event, get a list of all bets that have been made for that event\n     *    map composed of (event id => array of bets) pairs\n     */\n    mapping(bytes32 => Bet[]) private eventToBets;\n\n    /** \n     * @dev Address of the sport events Oracle\n     */\n    address internal oracleAddress = address(0);\n\n    /**\n     *  @dev Instance of the sport events Oracle (used to register sport events get their outcome).\n     */\n    OracleInterface internal betOracle = OracleInterface(oracleAddress); \n\n    /**\n     * @dev minimum bet amount \n     */\n    uint internal minimumBet = 0.1 ether;\n\n    /**\n     * @dev payload of a bet on a sport event\n     */\n    struct Bet {\n        address user;          // who placed it\n        bytes32 eventId;       // id of the sport event as registered in the Oracle\n        uint    amount;        // bet amount\n        uint8   chosenWinner;  // Index of the team that will win according to the player\n    }\n\n    /**\n     * @dev Possible outcomes for a sport event\n     */\n    enum BettableOutcome {\n        Team1,\n        Team2\n    }\n\n    /**\n     * @dev check that the passed in address is not 0. \n     */\n    modifier notAddress0(address _address) {\n        require(_address != address(0), \"Address 0 is not allowed\");\n        _;\n    }\n\n    /**\n     * @dev Sent once the Sport Event Oracle is set\n     */\n    event OracleAddressSet( address _address);\n\n    /**\n     * @dev Sent when once a bet is placed\n     */\n    event BetPlaced(\n            bytes32 _eventId,\n            address _player,\n            uint8   _chosenWinner, \n            uint    _amount\n    );\n\n    /**\n     * @param _tokenAddress the address of the deployed ERC20 DAI token \n     */\n    constructor(DAI _tokenAddress) {\n        Dai = DAI(_tokenAddress);\n    }\n\n     /**\n      * @return the DAI balance of the contract\n      */\n      function getContractDAIBalance() public view returns (uint) {\n          return Dai.balanceOf(address(this));\n      }\n\n\n    /**\n     * @notice sets the address of the sport event bet oracle contract to use \n     * @dev setting a wrong address may result in false return value, or error \n     * @param _oracleAddress the address of the sport event bet oracle \n     */\n    function setOracleAddress(address _oracleAddress)\n        external \n        onlyOwner notAddress0(_oracleAddress)\n        returns (bool)\n    {\n        oracleAddress = _oracleAddress;\n        betOracle = OracleInterface(oracleAddress);\n        emit OracleAddressSet(oracleAddress);\n        \n        return betOracle.testConnection();\n    }\n\n    /**\n     * @notice for testing purposes: make sure that the sport event oracle is callable \n     */\n    function testOracleConnection() \n        public view returns (bool)\n    {\n        return betOracle.testConnection(); \n    }\n\n   /**\n     * @return the address of the oracle we use to get the sport events and their outcomes\n     */\n    function getOracleAddress() \n        external view returns (address)\n    {\n        return oracleAddress;\n    }\n \n    /**\n     * @notice determines whether or not the user has already bet on the given sport event\n     * @param _user address of a player\n     * @param _eventId id of a event \n     * @param _chosenWinner the index of the participant to bet on (to win)\n     */\n    function _betIsValid(address _user, bytes32 _eventId, uint8 _chosenWinner)\n        private pure returns (bool)\n    {\n        // if (userToBets[_user].length == 0) {\n        //     userToBets[_user]\n        // }\n        return true;\n    }\n\n    /**\n     * @notice determines whether or not bets may still be accepted for the given match\n     * @param _eventId id of an event \n     */\n    function _eventOpenForBetting(bytes32 _eventId)\n        private pure returns (bool)\n    {\n        return true;\n    }\n\n    /**\n     * @notice gets a list ids of all currently bettable events\n     * @return pendingEvents the list of pending sport events \n     */\n    function getBettableEvents()\n        public view returns (bytes32[] memory pendingEvents)\n    {\n        return betOracle.getPendingEvents(); \n    }\n\n    /**\n     * @notice returns the full data of the specified event \n     * @param _eventId the id of the desired event\n     * @return id   the id of the event\n     * @return name the name of the event \n     * @return participants a string with the name of the event's participants separated with a pipe symbol ('|')\n     * @return participantCount the number of the event's participants\n     * @return date when the event takes place\n     * @return outcome an integer that represents the event outcome\n     * @return winner the index of the winner\n     */\n    function getEvent(bytes32 _eventId)\n        public view returns (\n            bytes32                   id,\n            string memory             name, \n            string memory             participants,\n            uint8                     participantCount,\n            uint                      date, \n            OracleInterface.EventOutcome outcome, \n            int8                      winner\n        )\n    { \n        return betOracle.getEvent(_eventId); \n    }\n\n    /**\n     * @notice returns the full data of the most recent bettable sport event \n     * @return id   the id of the event\n     * @return name the name of the event \n     * @return participants the name of the event's participants separated with a pipe symbol ('|')\n     * @return participantCount the number of the event's participants\n     * @return date when the event takes place\n     * @return outcome an integer that represents the event outcome\n     * @return winner the index of the winner (0 = TeamA, 1 = TeamB)\n     */\n    function getLatestEvent() \n        public view returns (\n            bytes32                      id,\n            string memory                name, \n            string memory                participants,\n            uint                         participantCount, \n            uint                         date, \n            OracleInterface.EventOutcome outcome, \n            int8                         winner\n        )\n    { \n        return betOracle.getLatestEvent(true); \n    }\n\n    /**\n     * @notice places a bet on the given event \n     * @param _eventId      id of the sport event on which to bet \n     * @param _chosenWinner index of the supposed winner team\n     */\n    function placeBet(bytes32 _eventId, uint8 _chosenWinner) \n        public payable\n        notAddress0(msg.sender) \n        nonReentrant\n    {\n        // At least a minimum amout is required to bet\n        require(msg.value >= minimumBet, \"Bet amount must be >= minimum bet\");\n\n        // // Make sure this is sport event exists (ie. already registered in the Oracle)\n        require(betOracle.eventExists(_eventId), \"Specified event not found\"); \n\n        // The chosen winner must fall within the defined number of participants for this event\n        require(_betIsValid(msg.sender, _eventId, _chosenWinner), \"Bet is not valid\");\n\n        // Event must still be open for betting\n        require(_eventOpenForBetting(_eventId), \"Event not open for betting\"); \n\n\n        // transfer the player's money into the contract's account \n        payable(address(this)).transfer(msg.value);\n\n        // add the new bet \n        Bet[] storage bets = eventToBets[_eventId]; \n        bets.push( Bet(msg.sender, _eventId, msg.value, _chosenWinner)); \n\n        // add the mapping\n        bytes32[] storage userBets = userToBets[msg.sender]; \n        userBets.push(_eventId);\n\n        emit BetPlaced(\n            _eventId,\n            msg.sender,      // player\n            _chosenWinner, \n            msg.value        // bet amount\n        );\n    }\n\n    /**\n     *  @notice A fallback function that allows this smart-contract to accept DAI create DAI ERC20 token\n     */\n    receive() external payable {\n    }\n}",
  "sourcePath": "/Users/Lidmi/Desktop/Alyra/ProjetFinal/BetNoLoss/bet-no-loss/contracts/Bet.sol",
  "compiler": {
    "name": "solc",
    "version": "0.8.3+commit.8d00100c.Emscripten.clang"
  },
  "schemaVersion": "3.3.4",
  "updatedAt": "2021-05-05T17:42:12.856Z",
  "networkType": "ethereum",
  "devdoc": {
    "author": "Tanteli, block74 ",
    "events": {
      "BetPlaced(bytes32,address,uint8,uint256)": {
        "details": "Sent when once a bet is placed"
      },
      "OracleAddressSet(address)": {
        "details": "Sent once the Sport Event Oracle is set"
      }
    },
    "kind": "dev",
    "methods": {
      "constructor": {
        "params": {
          "_tokenAddress": "the address of the deployed ERC20 DAI token "
        }
      },
      "getBettableEvents()": {
        "returns": {
          "pendingEvents": "the list of pending sport events "
        }
      },
      "getContractDAIBalance()": {
        "returns": {
          "_0": "the DAI balance of the contract"
        }
      },
      "getEvent(bytes32)": {
        "params": {
          "_eventId": "the id of the desired event"
        },
        "returns": {
          "date": "when the event takes place",
          "id": "  the id of the event",
          "name": "the name of the event ",
          "outcome": "an integer that represents the event outcome",
          "participantCount": "the number of the event's participants",
          "participants": "a string with the name of the event's participants separated with a pipe symbol ('|')",
          "winner": "the index of the winner"
        }
      },
      "getLatestEvent()": {
        "returns": {
          "date": "when the event takes place",
          "id": "  the id of the event",
          "name": "the name of the event ",
          "outcome": "an integer that represents the event outcome",
          "participantCount": "the number of the event's participants",
          "participants": "the name of the event's participants separated with a pipe symbol ('|')",
          "winner": "the index of the winner (0 = TeamA, 1 = TeamB)"
        }
      },
      "getOracleAddress()": {
        "returns": {
          "_0": "the address of the oracle we use to get the sport events and their outcomes"
        }
      },
      "owner()": {
        "details": "Returns the address of the current owner."
      },
      "placeBet(bytes32,uint8)": {
        "params": {
          "_chosenWinner": "index of the supposed winner team",
          "_eventId": "id of the sport event on which to bet "
        }
      },
      "renounceOwnership()": {
        "details": "Leaves the contract without owner. It will not be possible to call `onlyOwner` functions anymore. Can only be called by the current owner. NOTE: Renouncing ownership will leave the contract without an owner, thereby removing any functionality that is only available to the owner."
      },
      "setOracleAddress(address)": {
        "details": "setting a wrong address may result in false return value, or error ",
        "params": {
          "_oracleAddress": "the address of the sport event bet oracle "
        }
      },
      "transferOwnership(address)": {
        "details": "Transfers ownership of the contract to a new account (`newOwner`). Can only be called by the current owner."
      }
    },
    "stateVariables": {
      "Dai": {
        "details": "New instance of ERC20 DAI Token"
      },
      "betOracle": {
        "details": "Instance of the sport events Oracle (used to register sport events get their outcome)."
      },
      "eventToBets": {
        "details": "for any given event, get a list of all bets that have been made for that event    map composed of (event id => array of bets) pairs"
      },
      "minimumBet": {
        "details": "minimum bet amount "
      },
      "oracleAddress": {
        "details": "Address of the sport events Oracle"
      },
      "userToBets": {
        "details": "list of all bets per player, ie. a map composed (player address => bet id) pairs"
      }
    },
    "title": "a Smart-Contract in charge of handling bets on a sport event outcome where players do not loose their stake and winners earn the interests accrued on the stakes.",
    "version": 1
  },
  "userdoc": {
    "kind": "user",
    "methods": {
      "getBettableEvents()": {
        "notice": "gets a list ids of all currently bettable events"
      },
      "getEvent(bytes32)": {
        "notice": "returns the full data of the specified event "
      },
      "getLatestEvent()": {
        "notice": "returns the full data of the most recent bettable sport event "
      },
      "placeBet(bytes32,uint8)": {
        "notice": "places a bet on the given event "
      },
      "setOracleAddress(address)": {
        "notice": "sets the address of the sport event bet oracle contract to use "
      },
      "testOracleConnection()": {
        "notice": "for testing purposes: make sure that the sport event oracle is callable "
      }
    },
    "notice": "This Ethereum smart-contract takes bets placed on sport events.   It then invests all bets deposits for a given event (pot) in DeFi.   Then once the event outcome is confirmed, it makes the accrued interests ready for the winners  to withdraw proportionnaly to their initial stake.   Players do not loose their stake.Takes bets and handles payouts for sport events",
    "version": 1
  }
}