{
  "contractName": "BetOracle",
  "abi": [
    {
      "anonymous": false,
      "inputs": [
        {
          "indexed": true,
          "internalType": "address",
          "name": "previousOwner",
          "type": "address"
        },
        {
          "indexed": true,
          "internalType": "address",
          "name": "newOwner",
          "type": "address"
        }
      ],
      "name": "OwnershipTransferred",
      "type": "event"
    },
    {
      "anonymous": false,
      "inputs": [
        {
          "indexed": false,
          "internalType": "bytes32",
          "name": "_eventId",
          "type": "bytes32"
        },
        {
          "indexed": false,
          "internalType": "string",
          "name": "_name",
          "type": "string"
        },
        {
          "indexed": false,
          "internalType": "string",
          "name": "_participants",
          "type": "string"
        },
        {
          "indexed": false,
          "internalType": "uint8",
          "name": "_participantCount",
          "type": "uint8"
        },
        {
          "indexed": false,
          "internalType": "uint256",
          "name": "_date",
          "type": "uint256"
        },
        {
          "indexed": false,
          "internalType": "enum OracleInterface.EventOutcome",
          "name": "_eventOutcome",
          "type": "uint8"
        },
        {
          "indexed": false,
          "internalType": "int8",
          "name": "_winner",
          "type": "int8"
        }
      ],
      "name": "SportEventAdded",
      "type": "event"
    },
    {
      "inputs": [],
      "name": "owner",
      "outputs": [
        {
          "internalType": "address",
          "name": "",
          "type": "address"
        }
      ],
      "stateMutability": "view",
      "type": "function"
    },
    {
      "inputs": [],
      "name": "renounceOwnership",
      "outputs": [],
      "stateMutability": "nonpayable",
      "type": "function"
    },
    {
      "inputs": [
        {
          "internalType": "address",
          "name": "newOwner",
          "type": "address"
        }
      ],
      "name": "transferOwnership",
      "outputs": [],
      "stateMutability": "nonpayable",
      "type": "function"
    },
    {
      "inputs": [
        {
          "internalType": "string",
          "name": "_name",
          "type": "string"
        },
        {
          "internalType": "string",
          "name": "_participants",
          "type": "string"
        },
        {
          "internalType": "uint8",
          "name": "_participantCount",
          "type": "uint8"
        },
        {
          "internalType": "uint256",
          "name": "_date",
          "type": "uint256"
        }
      ],
      "name": "addSportEvent",
      "outputs": [
        {
          "internalType": "bytes32",
          "name": "",
          "type": "bytes32"
        }
      ],
      "stateMutability": "nonpayable",
      "type": "function"
    },
    {
      "inputs": [
        {
          "internalType": "bytes32",
          "name": "_eventId",
          "type": "bytes32"
        }
      ],
      "name": "eventExists",
      "outputs": [
        {
          "internalType": "bool",
          "name": "",
          "type": "bool"
        }
      ],
      "stateMutability": "view",
      "type": "function"
    },
    {
      "inputs": [
        {
          "internalType": "bytes32",
          "name": "_eventId",
          "type": "bytes32"
        },
        {
          "internalType": "enum OracleInterface.EventOutcome",
          "name": "_outcome",
          "type": "uint8"
        },
        {
          "internalType": "int8",
          "name": "_winner",
          "type": "int8"
        }
      ],
      "name": "declareOutcome",
      "outputs": [],
      "stateMutability": "nonpayable",
      "type": "function"
    },
    {
      "inputs": [],
      "name": "getPendingEvents",
      "outputs": [
        {
          "internalType": "bytes32[]",
          "name": "",
          "type": "bytes32[]"
        }
      ],
      "stateMutability": "view",
      "type": "function"
    },
    {
      "inputs": [],
      "name": "getAllSportEvents",
      "outputs": [
        {
          "internalType": "bytes32[]",
          "name": "",
          "type": "bytes32[]"
        }
      ],
      "stateMutability": "view",
      "type": "function"
    },
    {
      "inputs": [
        {
          "internalType": "bytes32",
          "name": "_eventId",
          "type": "bytes32"
        }
      ],
      "name": "getEvent",
      "outputs": [
        {
          "internalType": "bytes32",
          "name": "id",
          "type": "bytes32"
        },
        {
          "internalType": "string",
          "name": "name",
          "type": "string"
        },
        {
          "internalType": "string",
          "name": "participants",
          "type": "string"
        },
        {
          "internalType": "uint8",
          "name": "participantCount",
          "type": "uint8"
        },
        {
          "internalType": "uint256",
          "name": "date",
          "type": "uint256"
        },
        {
          "internalType": "enum OracleInterface.EventOutcome",
          "name": "outcome",
          "type": "uint8"
        },
        {
          "internalType": "int8",
          "name": "winner",
          "type": "int8"
        }
      ],
      "stateMutability": "view",
      "type": "function"
    },
    {
      "inputs": [
        {
          "internalType": "bool",
          "name": "_pending",
          "type": "bool"
        }
      ],
      "name": "getLatestEvent",
      "outputs": [
        {
          "internalType": "bytes32",
          "name": "id",
          "type": "bytes32"
        },
        {
          "internalType": "string",
          "name": "name",
          "type": "string"
        },
        {
          "internalType": "string",
          "name": "participants",
          "type": "string"
        },
        {
          "internalType": "uint8",
          "name": "participantCount",
          "type": "uint8"
        },
        {
          "internalType": "uint256",
          "name": "date",
          "type": "uint256"
        },
        {
          "internalType": "enum OracleInterface.EventOutcome",
          "name": "outcome",
          "type": "uint8"
        },
        {
          "internalType": "int8",
          "name": "winner",
          "type": "int8"
        }
      ],
      "stateMutability": "view",
      "type": "function"
    },
    {
      "inputs": [],
      "name": "getAddress",
      "outputs": [
        {
          "internalType": "address",
          "name": "",
          "type": "address"
        }
      ],
      "stateMutability": "view",
      "type": "function"
    },
    {
      "inputs": [],
      "name": "testConnection",
      "outputs": [
        {
          "internalType": "bool",
          "name": "",
          "type": "bool"
        }
      ],
      "stateMutability": "pure",
      "type": "function"
    }
  ],
  "bytecode": "0x608060405234801561001057600080fd5b5060006100216100cb60201b60201c565b9050806000806101000a81548173ffffffffffffffffffffffffffffffffffffffff021916908373ffffffffffffffffffffffffffffffffffffffff1602179055508073ffffffffffffffffffffffffffffffffffffffff16600073ffffffffffffffffffffffffffffffffffffffff167f8be0079c531659141344cd1fd0a4f28419497f9722a3daafe3b4186f6b6457e060405160405180910390a350600180819055506100d3565b600033905090565b612188806100e26000396000f3fe608060405234801561001057600080fd5b50600436106100b45760003560e01c8063895f490f11610071578063895f490f146101815780638c172fa2146101b15780638da5cb5b146101e7578063a717e89a14610205578063b4184e7014610223578063f2fde38b14610241576100b4565b8063118e58bd146100b957806329e54269146100e95780633412a15c1461011f57806338cc48311461013d578063715018a61461015b5780637898d33414610165575b600080fd5b6100d360048036038101906100ce9190611632565b61025d565b6040516100e09190611a1a565b60405180910390f35b61010360048036038101906100fe9190611609565b61029a565b6040516101169796959493929190611a50565b60405180910390f35b610127610342565b6040516101349190611a1a565b60405180910390f35b61014561034b565b60405161015291906119dd565b60405180910390f35b610163610353565b005b61017f600480360381019061017a919061165b565b61048d565b005b61019b600480360381019061019691906116aa565b610712565b6040516101a89190611a35565b60405180910390f35b6101cb60048036038101906101c69190611632565b610b4b565b6040516101de9796959493929190611a50565b60405180910390f35b6101ef610d95565b6040516101fc91906119dd565b60405180910390f35b61020d610dbe565b60405161021a91906119f8565b60405180910390f35b61022b610f25565b60405161023891906119f8565b60405180910390f35b61025b600480360381019061025691906115e0565b611268565b005b60008060028054905014156102755760009050610295565b600060036000848152602001908152602001600020549050600081119150505b919050565b600060608060008060008060008060001b9050606089156102c4576102bd610f25565b90506102cf565b6102cc610dbe565b90505b60008151111561031e5780600081518110610313577f4e487b7100000000000000000000000000000000000000000000000000000000600052603260045260246000fd5b602002602001015191505b61032782610b4b565b98509850985098509850985098505050919395979092949650565b60006001905090565b600030905090565b61035b611411565b73ffffffffffffffffffffffffffffffffffffffff16610379610d95565b73ffffffffffffffffffffffffffffffffffffffff16146103cf576040517f08c379a00000000000000000000000000000000000000000000000000000000081526004016103c690611b8a565b60405180910390fd5b600073ffffffffffffffffffffffffffffffffffffffff1660008054906101000a900473ffffffffffffffffffffffffffffffffffffffff1673ffffffffffffffffffffffffffffffffffffffff167f8be0079c531659141344cd1fd0a4f28419497f9722a3daafe3b4186f6b6457e060405160405180910390a360008060006101000a81548173ffffffffffffffffffffffffffffffffffffffff021916908373ffffffffffffffffffffffffffffffffffffffff160217905550565b610495611411565b73ffffffffffffffffffffffffffffffffffffffff166104b3610d95565b73ffffffffffffffffffffffffffffffffffffffff1614610509576040517f08c379a000000000000000000000000000000000000000000000000000000000815260040161050090611b8a565b60405180910390fd5b6105128361025d565b61051b57600080fd5b600061052684611419565b9050600060028281548110610564577f4e487b7100000000000000000000000000000000000000000000000000000000600052603260045260246000fd5b906000526020600020906006020190506003808111156105ad577f4e487b7100000000000000000000000000000000000000000000000000000000600052602160045260246000fd5b8460038111156105e6577f4e487b7100000000000000000000000000000000000000000000000000000000600052602160045260246000fd5b14156106205760008360000b1215801561061657508260ff168160030160009054906101000a900460ff1660ff16115b61061f57600080fd5b5b838160050160006101000a81548160ff0219169083600381111561066d577f4e487b7100000000000000000000000000000000000000000000000000000000600052602160045260246000fd5b02179055506003808111156106ab577f4e487b7100000000000000000000000000000000000000000000000000000000600052602160045260246000fd5b8460038111156106e4577f4e487b7100000000000000000000000000000000000000000000000000000000600052602160045260246000fd5b141561070b57828160050160016101000a81548160ff021916908360000b60ff1602179055505b5050505050565b600061071c611411565b73ffffffffffffffffffffffffffffffffffffffff1661073a610d95565b73ffffffffffffffffffffffffffffffffffffffff1614610790576040517f08c379a000000000000000000000000000000000000000000000000000000000815260040161078790611b8a565b60405180910390fd5b600260015414156107d6576040517f08c379a00000000000000000000000000000000000000000000000000000000081526004016107cd90611bea565b60405180910390fd5b600260018190555060008590506000815111610827576040517f08c379a000000000000000000000000000000000000000000000000000000000815260040161081e90611bca565b60405180910390fd5b62093a80426108369190611cc0565b831015610878576040517f08c379a000000000000000000000000000000000000000000000000000000000815260040161086f90611baa565b60405180910390fd5b600086858560405160200161088f939291906119a4565b6040516020818303038152906040528051906020012090506108b08161025d565b156108f0576040517f08c379a00000000000000000000000000000000000000000000000000000000081526004016108e790611b6a565b60405180910390fd5b60026040518060e001604052808381526020018981526020018881526020018760ff16815260200186815260200160006003811115610958577f4e487b7100000000000000000000000000000000000000000000000000000000600052602160045260246000fd5b81526020017fffffffffffffffffffffffffffffffffffffffffffffffffffffffffffffffff60000b81525090806001815401808255809150506001900390600052602060002090600602016000909190919091506000820151816000015560208201518160010190805190602001906109d3929190611442565b5060408201518160020190805190602001906109f0929190611442565b5060608201518160030160006101000a81548160ff021916908360ff1602179055506080820151816004015560a08201518160050160006101000a81548160ff02191690836003811115610a6d577f4e487b7100000000000000000000000000000000000000000000000000000000600052602160045260246000fd5b021790555060c08201518160050160016101000a81548160ff021916908360000b60ff160217905550505060006001600280549050610aac9190611d16565b9050600181610abb9190611cc0565b60036000848152602001908152602001600020819055507ff104b333d7adacd62c09966b46fcf5181fec631a91f176e3d9d72db88c109511828989898960007fffffffffffffffffffffffffffffffffffffffffffffffffffffffffffffffff604051610b2e9796959493929190611acd565b60405180910390a181935050505060018081905550949350505050565b6000606080600080600080610b5f8861025d565b15610d2c5760006002610b718a611419565b81548110610ba8577f4e487b7100000000000000000000000000000000000000000000000000000000600052603260045260246000fd5b90600052602060002090600602019050806000015481600101826002018360030160009054906101000a900460ff1684600401548560050160009054906101000a900460ff168660050160019054906101000a900460000b858054610c0c90611e2f565b80601f0160208091040260200160405190810160405280929190818152602001828054610c3890611e2f565b8015610c855780601f10610c5a57610100808354040283529160200191610c85565b820191906000526020600020905b815481529060010190602001808311610c6857829003601f168201915b50505050509550848054610c9890611e2f565b80601f0160208091040260200160405190810160405280929190818152602001828054610cc490611e2f565b8015610d115780601f10610ce657610100808354040283529160200191610d11565b820191906000526020600020905b815481529060010190602001808311610cf457829003601f168201915b50505050509450975097509750975097509750975050610d8a565b8760008060007fffffffffffffffffffffffffffffffffffffffffffffffffffffffffffffffff6040518060200160405280600081525093929190604051806020016040528060008152509392919096509650965096509650965096505b919395979092949650565b60008060009054906101000a900473ffffffffffffffffffffffffffffffffffffffff16905090565b6060600060028054905067ffffffffffffffff811115610e07577f4e487b7100000000000000000000000000000000000000000000000000000000600052604160045260246000fd5b604051908082528060200260200182016040528015610e355781602001602082028036833780820191505090505b50905060006002805490501115610f1e5760008060028054905090505b6000811115610f1b576002600182610e6a9190611d16565b81548110610ea1577f4e487b7100000000000000000000000000000000000000000000000000000000600052603260045260246000fd5b90600052602060002090600602016000015483600184610ec19190611cc0565b93508381518110610efb577f4e487b7100000000000000000000000000000000000000000000000000000000600052603260045260246000fd5b602002602001018181525050600181610f149190611d16565b9050610e52565b50505b8091505090565b60606000805b60028054905081101561102d5760006003811115610f72577f4e487b7100000000000000000000000000000000000000000000000000000000600052602160045260246000fd5b60028281548110610fac577f4e487b7100000000000000000000000000000000000000000000000000000000600052603260045260246000fd5b906000526020600020906006020160050160009054906101000a900460ff166003811115611003577f4e487b7100000000000000000000000000000000000000000000000000000000600052602160045260246000fd5b1415611019576001826110169190611cc0565b91505b6001816110269190611cc0565b9050610f2b565b5060008167ffffffffffffffff811115611070577f4e487b7100000000000000000000000000000000000000000000000000000000600052604160045260246000fd5b60405190808252806020026020018201604052801561109e5781602001602082028036833780820191505090505b50905060008211156112605760008060028054905090505b600081111561125d57600060038111156110f9577f4e487b7100000000000000000000000000000000000000000000000000000000600052602160045260246000fd5b60026001836111089190611d16565b8154811061113f577f4e487b7100000000000000000000000000000000000000000000000000000000600052603260045260246000fd5b906000526020600020906006020160050160009054906101000a900460ff166003811115611196577f4e487b7100000000000000000000000000000000000000000000000000000000600052602160045260246000fd5b14156112495760026001826111ab9190611d16565b815481106111e2577f4e487b7100000000000000000000000000000000000000000000000000000000600052603260045260246000fd5b90600052602060002090600602016000015483838151811061122d577f4e487b7100000000000000000000000000000000000000000000000000000000600052603260045260246000fd5b6020026020010181815250506001826112469190611cc0565b91505b6001816112569190611d16565b90506110b6565b50505b809250505090565b611270611411565b73ffffffffffffffffffffffffffffffffffffffff1661128e610d95565b73ffffffffffffffffffffffffffffffffffffffff16146112e4576040517f08c379a00000000000000000000000000000000000000000000000000000000081526004016112db90611b8a565b60405180910390fd5b600073ffffffffffffffffffffffffffffffffffffffff168173ffffffffffffffffffffffffffffffffffffffff161415611354576040517f08c379a000000000000000000000000000000000000000000000000000000000815260040161134b90611b4a565b60405180910390fd5b8073ffffffffffffffffffffffffffffffffffffffff1660008054906101000a900473ffffffffffffffffffffffffffffffffffffffff1673ffffffffffffffffffffffffffffffffffffffff167f8be0079c531659141344cd1fd0a4f28419497f9722a3daafe3b4186f6b6457e060405160405180910390a3806000806101000a81548173ffffffffffffffffffffffffffffffffffffffff021916908373ffffffffffffffffffffffffffffffffffffffff16021790555050565b600033905090565b60006001600360008481526020019081526020016000205461143b9190611d16565b9050919050565b82805461144e90611e2f565b90600052602060002090601f01602090048101928261147057600085556114b7565b82601f1061148957805160ff19168380011785556114b7565b828001600101855582156114b7579182015b828111156114b657825182559160200191906001019061149b565b5b5090506114c491906114c8565b5090565b5b808211156114e15760008160009055506001016114c9565b5090565b60006114f86114f384611c2f565b611c0a565b90508281526020810184848401111561151057600080fd5b61151b848285611ded565b509392505050565b600081359050611532816120b8565b92915050565b600081359050611547816120cf565b92915050565b60008135905061155c816120e6565b92915050565b600081359050611571816120fd565b92915050565b6000813590506115868161210d565b92915050565b600082601f83011261159d57600080fd5b81356115ad8482602086016114e5565b91505092915050565b6000813590506115c581612124565b92915050565b6000813590506115da8161213b565b92915050565b6000602082840312156115f257600080fd5b600061160084828501611523565b91505092915050565b60006020828403121561161b57600080fd5b600061162984828501611538565b91505092915050565b60006020828403121561164457600080fd5b60006116528482850161154d565b91505092915050565b60008060006060848603121561167057600080fd5b600061167e8682870161154d565b935050602061168f86828701611562565b92505060406116a086828701611577565b9150509250925092565b600080600080608085870312156116c057600080fd5b600085013567ffffffffffffffff8111156116da57600080fd5b6116e68782880161158c565b945050602085013567ffffffffffffffff81111561170357600080fd5b61170f8782880161158c565b9350506040611720878288016115cb565b9250506060611731878288016115b6565b91505092959194509250565b600061174983836117d1565b60208301905092915050565b61175e81611d4a565b82525050565b600061176f82611c70565b6117798185611c93565b935061178483611c60565b8060005b838110156117b557815161179c888261173d565b97506117a783611c86565b925050600181019050611788565b5085935050505092915050565b6117cb81611d5c565b82525050565b6117da81611d68565b82525050565b6117e981611d68565b82525050565b6117f881611dc9565b82525050565b61180781611d85565b82525050565b61181681611ddb565b82525050565b600061182782611c7b565b6118318185611ca4565b9350611841818560208601611dfc565b61184a81611f6a565b840191505092915050565b600061186082611c7b565b61186a8185611cb5565b935061187a818560208601611dfc565b80840191505092915050565b6000611893602683611ca4565b915061189e82611f88565b604082019050919050565b60006118b6601483611ca4565b91506118c182611fd7565b602082019050919050565b60006118d9602083611ca4565b91506118e482612000565b602082019050919050565b60006118fc602083611ca4565b915061190782612029565b602082019050919050565b600061191f601583611ca4565b915061192a82612052565b602082019050919050565b6000611942601f83611ca4565b915061194d8261207b565b602082019050919050565b61196181611db2565b82525050565b61197861197382611db2565b611e92565b82525050565b61198781611dbc565b82525050565b61199e61199982611dbc565b611e9c565b82525050565b60006119b08286611855565b91506119bc828561198d565b6001820191506119cc8284611967565b602082019150819050949350505050565b60006020820190506119f26000830184611755565b92915050565b60006020820190508181036000830152611a128184611764565b905092915050565b6000602082019050611a2f60008301846117c2565b92915050565b6000602082019050611a4a60008301846117e0565b92915050565b600060e082019050611a65600083018a6117e0565b8181036020830152611a77818961181c565b90508181036040830152611a8b818861181c565b9050611a9a606083018761197e565b611aa76080830186611958565b611ab460a08301856117ef565b611ac160c08301846117fe565b98975050505050505050565b600060e082019050611ae2600083018a6117e0565b8181036020830152611af4818961181c565b90508181036040830152611b08818861181c565b9050611b17606083018761197e565b611b246080830186611958565b611b3160a08301856117ef565b611b3e60c083018461180d565b98975050505050505050565b60006020820190508181036000830152611b6381611886565b9050919050565b60006020820190508181036000830152611b83816118a9565b9050919050565b60006020820190508181036000830152611ba3816118cc565b9050919050565b60006020820190508181036000830152611bc3816118ef565b9050919050565b60006020820190508181036000830152611be381611912565b9050919050565b60006020820190508181036000830152611c0381611935565b9050919050565b6000611c14611c25565b9050611c208282611e61565b919050565b6000604051905090565b600067ffffffffffffffff821115611c4a57611c49611f3b565b5b611c5382611f6a565b9050602081019050919050565b6000819050602082019050919050565b600081519050919050565b600081519050919050565b6000602082019050919050565b600082825260208201905092915050565b600082825260208201905092915050565b600081905092915050565b6000611ccb82611db2565b9150611cd683611db2565b9250827fffffffffffffffffffffffffffffffffffffffffffffffffffffffffffffffff03821115611d0b57611d0a611eae565b5b828201905092915050565b6000611d2182611db2565b9150611d2c83611db2565b925082821015611d3f57611d3e611eae565b5b828203905092915050565b6000611d5582611d92565b9050919050565b60008115159050919050565b6000819050919050565b6000819050611d80826120a4565b919050565b60008160000b9050919050565b600073ffffffffffffffffffffffffffffffffffffffff82169050919050565b6000819050919050565b600060ff82169050919050565b6000611dd482611d72565b9050919050565b6000611de682611d85565b9050919050565b82818337600083830152505050565b60005b83811015611e1a578082015181840152602081019050611dff565b83811115611e29576000848401525b50505050565b60006002820490506001821680611e4757607f821691505b60208210811415611e5b57611e5a611f0c565b5b50919050565b611e6a82611f6a565b810181811067ffffffffffffffff82111715611e8957611e88611f3b565b5b80604052505050565b6000819050919050565b6000611ea782611f7b565b9050919050565b7f4e487b7100000000000000000000000000000000000000000000000000000000600052601160045260246000fd5b7f4e487b7100000000000000000000000000000000000000000000000000000000600052602160045260246000fd5b7f4e487b7100000000000000000000000000000000000000000000000000000000600052602260045260246000fd5b7f4e487b7100000000000000000000000000000000000000000000000000000000600052604160045260246000fd5b6000601f19601f8301169050919050565b60008160f81b9050919050565b7f4f776e61626c653a206e6577206f776e657220697320746865207a65726f206160008201527f6464726573730000000000000000000000000000000000000000000000000000602082015250565b7f4576656e7420616c726561647920657869737473000000000000000000000000600082015250565b7f4f776e61626c653a2063616c6c6572206973206e6f7420746865206f776e6572600082015250565b7f5f64617465206d757374206265203e3d2031207765656b2066726f6d206e6f77600082015250565b7f5f6e616d652063616e6e6f7420626520656d7074790000000000000000000000600082015250565b7f5265656e7472616e637947756172643a207265656e7472616e742063616c6c00600082015250565b600481106120b5576120b4611edd565b5b50565b6120c181611d4a565b81146120cc57600080fd5b50565b6120d881611d5c565b81146120e357600080fd5b50565b6120ef81611d68565b81146120fa57600080fd5b50565b6004811061210a57600080fd5b50565b61211681611d85565b811461212157600080fd5b50565b61212d81611db2565b811461213857600080fd5b50565b61214481611dbc565b811461214f57600080fd5b5056fea264697066735822122036dca05a26d2a043d02064d31470b96b4d56cf1a82c16f2fe5c7de11bf75fb1364736f6c63430008040033",
  "immutableReferences": {},
  "source": "// SPDX-License-Identifier: MIT\npragma solidity ^0.8.4;\n\nimport \"@openzeppelin/contracts/access/Ownable.sol\";\nimport \"@openzeppelin/contracts/security/ReentrancyGuard.sol\";\n\nimport \"./OracleInterface.sol\";\n\n\n/**\n * @title An smart-contract Oracle that register sport events, retrieve their outcomes and communicate their results when asked for.\n * @notice Collects and provides information on sport events and their outcomes\n */\ncontract BetOracle is OracleInterface, Ownable, ReentrancyGuard {\n\n    /**\n     * @dev all the sport events\n     */\n    SportEvent[] events;\n\n    /*\n     * @dev map of composed {eventId (SHA3 of event key infos) => eventIndex (in events)} pairs\n     */\n    mapping(bytes32 => uint) eventIdToIndex;\n\n    /***\n      * @dev defines a sport event along with its outcome\n      */\n    struct SportEvent {\n        bytes32      id;\n        string       name;\n        string       participants;\n        uint8        participantCount;\n        uint         date;\n        EventOutcome outcome;\n        int8         winner;\n    }\n\n    // FYI: enum EventOutcome is defind in OracleInterface\n\n    /**\n     * @dev Triggered once an event has been added\n     */\n    event SportEventAdded(\n        bytes32      _eventId,\n        string       _name,\n        string       _participants,\n        uint8        _participantCount,\n        uint         _date,\n        EventOutcome _eventOutcome,\n        int8         _winner\n    );\n\n    /**\n     * @notice Add a new pending sport event into the blockchain\n     * @param _name descriptive name for the sport event (e.g. Pac vs. Mayweather 2016)\n     * @param _participants |-delimited string of participants names (e.g. \"Montpellier|Monaco\")\n     * @param _participantCount number of participants\n     * @param _date date set for the sport event\n     * @return the unique id of the newly created sport event\n     */\n    function addSportEvent(\n        string memory _name,\n        string memory _participants,\n        uint8         _participantCount,\n        uint          _date\n    ) \n        public onlyOwner nonReentrant\n        returns (bytes32)\n    {\n        bytes memory bytesName = bytes(_name);\n        require(bytesName.length > 0, \"_name cannot be empty\");\n        require(\n            _date >= block.timestamp + 1 weeks,\n            \"_date must be >= 1 week from now\"\n        );\n\n        // Hash key fields of the sport event to get a unique id\n        bytes32 eventId = keccak256(abi.encodePacked(_name, _participantCount, _date));\n\n        // Make sure that the sport event is unique and does not exist yet\n        require( !eventExists(eventId), \"Event already exists\");\n\n        // Add the sport event\n        events.push( SportEvent(eventId, _name, _participants, _participantCount, _date, EventOutcome.Pending, -1));\n        uint newIndex           = events.length - 1;\n        eventIdToIndex[eventId] = newIndex + 1;\n\n        emit SportEventAdded(\n            eventId,\n            _name,\n            _participants,\n            _participantCount,\n            _date,\n            EventOutcome.Pending,\n            -1                      // no winner yet\n        );\n\n        // Return the unique id of the new sport event\n        return eventId;\n    }\n\n    /**\n     * @notice Returns the array index of the sport event with the given id\n     * @dev if the event id is invalid, then the return value will be incorrect and may cause error; you must call eventExists(_eventId) first!\n     * @param _eventId the sport event id to get\n     * @return the array index of this event if it exists or else -1\n     */\n    function _getMatchIndex(bytes32 _eventId)\n        private view\n        returns (uint)\n    {\n        return eventIdToIndex[_eventId] - 1;\n    }\n\n    /**\n     * @notice Determines whether a sport event exists with the given id\n     * @param _eventId the id of a sport event id\n     * @return true if sport event exists and its id is valid\n     */\n    function eventExists(bytes32 _eventId)\n        public view override\n        returns (bool)\n    {\n        if (events.length == 0) {\n            return false;\n        }\n        uint index = eventIdToIndex[_eventId];\n        return (index > 0);\n    }\n\n    /**\n     * @notice Sets the outcome of a predefined match, permanently on the blockchain\n     * @param _eventId unique id of the match to modify\n     * @param _outcome outcome of the match\n     * @param _winner 0-based id of the winnner\n     */\n    function declareOutcome(bytes32 _eventId, EventOutcome _outcome, int8 _winner)\n        onlyOwner external\n    {\n        // Require that it exists\n        require(eventExists(_eventId));\n\n        // Get the event\n        uint index = _getMatchIndex(_eventId);\n        SportEvent storage theMatch = events[index];\n\n        if (_outcome == EventOutcome.Decided)\n            require(_winner >= 0 && theMatch.participantCount > uint8(_winner));\n\n        // Set the outcome\n        theMatch.outcome = _outcome;\n\n        // Set the winner (if there is one)\n        if (_outcome == EventOutcome.Decided)\n            theMatch.winner = _winner;\n    }\n\n    /**\n     * @notice gets the unique ids of all pending events, in reverse chronological order\n     * @return an array of unique pending events ids\n     */\n    function getPendingEvents()\n        public view override\n        returns (bytes32[] memory)\n    {\n        uint count = 0;\n\n        // Get the count of pending events\n        for (uint i = 0; i < events.length; i = i + 1) {\n            if (events[i].outcome == EventOutcome.Pending)\n                count = count + 1;\n        }\n\n        // Collect up all the pending events\n        bytes32[] memory output = new bytes32[](count);\n\n        if (count > 0) {\n            uint index = 0;\n            for (uint n = events.length;  n > 0;  n = n - 1) {\n                if (events[n - 1].outcome == EventOutcome.Pending) {\n                    output[index] = events[n - 1].id;\n                    index = index + 1;\n                }\n            }\n        }\n\n        return output;\n    }\n\n    /**\n     * @notice gets the unique ids of events, pending and decided, in reverse chronological order\n     * @return an array of unique match ids\n     */\n    function getAllSportEvents()\n        public view override\n        returns (bytes32[] memory)\n    {\n        bytes32[] memory eventIds = new bytes32[](events.length);\n\n        // Collect all event ids\n        if (events.length > 0) {\n            uint index = 0;\n            for (uint n = events.length; n > 0; n = n - 1) {\n                eventIds[index = index + 1] = events[n - 1].id;\n            }\n        }\n\n        return eventIds;\n    }\n\n    /**\n     * @notice gets the specified sport event and return its data\n     * @param _eventId the unique id of the desired event\n     * @return id   the id of the event\n     * @return name the name of the event\n     * @return participants a string with the name of the event's participants separated with a pipe symbol ('|')\n     * @return participantCount the number of the event's participants\n     * @return date when the event takes place\n     * @return outcome an integer that represents the event outcome\n     * @return winner the index of the winner\n     */\n    function getEvent(bytes32 _eventId)\n        public view override\n        returns (\n            bytes32       id,\n            string memory name,\n            string memory participants,\n            uint8         participantCount,\n            uint          date,\n            EventOutcome  outcome,\n            int8          winner\n        )\n    {\n        // Get the sport event\n        if (eventExists(_eventId)) {\n            SportEvent storage theMatch = events[_getMatchIndex(_eventId)];\n            return (theMatch.id, theMatch.name, theMatch.participants, theMatch.participantCount, theMatch.date, theMatch.outcome, theMatch.winner);\n        }\n        else {\n            return (_eventId, \"\", \"\", 0, 0, EventOutcome.Pending, -1);\n        }\n    }\n\n    /**\n     * @notice return the data of the most recent sport event\n     * @param _pending if true, returns only the most recent pending sport event;\n     *   otherwise, returns the most recent sport event either pending or completed\n     * @return id   the id of the event\n     * @return name the name of the event\n     * @return participants a string with the name of the event's participants separated with a pipe symbol ('|')\n     * @return participantCount the number of the event's participants\n     * @return date when the event takes place\n     * @return outcome an integer that represents the event outcome\n     * @return winner the index of the winner\n     */\n    function getLatestEvent(bool _pending)\n        public view override\n        returns (\n            bytes32         id,\n            string memory   name,\n            string memory   participants,\n            uint8           participantCount,\n            uint            date,\n            EventOutcome    outcome,\n            int8            winner\n        )\n    {\n        bytes32          eventId = 0;\n        bytes32[] memory ids;\n\n        if (_pending) {\n            ids = getPendingEvents();\n        } else {\n            ids = getAllSportEvents();\n        }\n        if (ids.length > 0) {\n            eventId = ids[0];\n        }\n\n        // Return a null sport event by default\n        return getEvent(eventId);\n    }\n\n\n    /**\n     * @notice gets the address of this contract\n     * @return the address of the BetOracle smart-contract\n     */\n    function getAddress()\n        public view\n        returns (address)\n    {\n        return address(this);\n    }\n\n    /**\n     * @notice can be used by a client contract to ensure that they've connected to this contract interface successfully\n     * @return true, unconditionally\n     */\n    function testConnection()\n        public pure override\n        returns (bool)\n    {\n        return true;\n    }\n\n}",
  "sourcePath": "/Users/eric/dev/alyra/project/bet-no-loss/contracts/BetOracle.sol",
  "compiler": {
    "name": "solc",
    "version": "0.8.4+commit.c7e474f2.Emscripten.clang"
  },
  "schemaVersion": "3.4.0",
  "updatedAt": "2021-05-07T10:02:38.834Z",
  "devdoc": {
    "events": {
      "SportEventAdded(bytes32,string,string,uint8,uint256,uint8,int8)": {
        "details": "Triggered once an event has been added"
      }
    },
    "kind": "dev",
    "methods": {
      "addSportEvent(string,string,uint8,uint256)": {
        "params": {
          "_date": "date set for the sport event",
          "_name": "descriptive name for the sport event (e.g. Pac vs. Mayweather 2016)",
          "_participantCount": "number of participants",
          "_participants": "|-delimited string of participants names (e.g. \"Montpellier|Monaco\")"
        },
        "returns": {
          "_0": "the unique id of the newly created sport event"
        }
      },
      "declareOutcome(bytes32,uint8,int8)": {
        "params": {
          "_eventId": "unique id of the match to modify",
          "_outcome": "outcome of the match",
          "_winner": "0-based id of the winnner"
        }
      },
      "eventExists(bytes32)": {
        "params": {
          "_eventId": "the id of a sport event id"
        },
        "returns": {
          "_0": "true if sport event exists and its id is valid"
        }
      },
      "getAddress()": {
        "returns": {
          "_0": "the address of the BetOracle smart-contract"
        }
      },
      "getAllSportEvents()": {
        "returns": {
          "_0": "an array of unique match ids"
        }
      },
      "getEvent(bytes32)": {
        "params": {
          "_eventId": "the unique id of the desired event"
        },
        "returns": {
          "date": "when the event takes place",
          "id": "  the id of the event",
          "name": "the name of the event",
          "outcome": "an integer that represents the event outcome",
          "participantCount": "the number of the event's participants",
          "participants": "a string with the name of the event's participants separated with a pipe symbol ('|')",
          "winner": "the index of the winner"
        }
      },
      "getLatestEvent(bool)": {
        "params": {
          "_pending": "if true, returns only the most recent pending sport event;   otherwise, returns the most recent sport event either pending or completed"
        },
        "returns": {
          "date": "when the event takes place",
          "id": "  the id of the event",
          "name": "the name of the event",
          "outcome": "an integer that represents the event outcome",
          "participantCount": "the number of the event's participants",
          "participants": "a string with the name of the event's participants separated with a pipe symbol ('|')",
          "winner": "the index of the winner"
        }
      },
      "getPendingEvents()": {
        "returns": {
          "_0": "an array of unique pending events ids"
        }
      },
      "owner()": {
        "details": "Returns the address of the current owner."
      },
      "renounceOwnership()": {
        "details": "Leaves the contract without owner. It will not be possible to call `onlyOwner` functions anymore. Can only be called by the current owner. NOTE: Renouncing ownership will leave the contract without an owner, thereby removing any functionality that is only available to the owner."
      },
      "testConnection()": {
        "returns": {
          "_0": "true, unconditionally"
        }
      },
      "transferOwnership(address)": {
        "details": "Transfers ownership of the contract to a new account (`newOwner`). Can only be called by the current owner."
      }
    },
    "stateVariables": {
      "events": {
        "details": "all the sport events"
      }
    },
    "title": "An smart-contract Oracle that register sport events, retrieve their outcomes and communicate their results when asked for.",
    "version": 1
  },
  "userdoc": {
    "kind": "user",
    "methods": {
      "addSportEvent(string,string,uint8,uint256)": {
        "notice": "Add a new pending sport event into the blockchain"
      },
      "declareOutcome(bytes32,uint8,int8)": {
        "notice": "Sets the outcome of a predefined match, permanently on the blockchain"
      },
      "eventExists(bytes32)": {
        "notice": "Determines whether a sport event exists with the given id"
      },
      "getAddress()": {
        "notice": "gets the address of this contract"
      },
      "getAllSportEvents()": {
        "notice": "gets the unique ids of events, pending and decided, in reverse chronological order"
      },
      "getEvent(bytes32)": {
        "notice": "gets the specified sport event and return its data"
      },
      "getLatestEvent(bool)": {
        "notice": "return the data of the most recent sport event"
      },
      "getPendingEvents()": {
        "notice": "gets the unique ids of all pending events, in reverse chronological order"
      },
      "testConnection()": {
        "notice": "can be used by a client contract to ensure that they've connected to this contract interface successfully"
      }
    },
    "notice": "Collects and provides information on sport events and their outcomes",
    "version": 1
  }
}