{
  "contractName": "BetOracle",
  "abi": [
    {
      "anonymous": false,
      "inputs": [
        {
          "indexed": true,
          "internalType": "address",
          "name": "previousOwner",
          "type": "address"
        },
        {
          "indexed": true,
          "internalType": "address",
          "name": "newOwner",
          "type": "address"
        }
      ],
      "name": "OwnershipTransferred",
      "type": "event"
    },
    {
      "anonymous": false,
      "inputs": [
        {
          "indexed": false,
          "internalType": "bytes32",
          "name": "_eventId",
          "type": "bytes32"
        },
        {
          "indexed": false,
          "internalType": "string",
          "name": "_name",
          "type": "string"
        },
        {
          "indexed": false,
          "internalType": "string",
          "name": "_participants",
          "type": "string"
        },
        {
          "indexed": false,
          "internalType": "uint8",
          "name": "_participantCount",
          "type": "uint8"
        },
        {
          "indexed": false,
          "internalType": "uint256",
          "name": "_date",
          "type": "uint256"
        },
        {
          "indexed": false,
          "internalType": "enum OracleInterface.EventOutcome",
          "name": "_eventOutcome",
          "type": "uint8"
        },
        {
          "indexed": false,
          "internalType": "int8",
          "name": "_winner",
          "type": "int8"
        }
      ],
      "name": "SportEventAdded",
      "type": "event"
    },
    {
      "inputs": [],
      "name": "owner",
      "outputs": [
        {
          "internalType": "address",
          "name": "",
          "type": "address"
        }
      ],
      "stateMutability": "view",
      "type": "function",
      "constant": true
    },
    {
      "inputs": [],
      "name": "renounceOwnership",
      "outputs": [],
      "stateMutability": "nonpayable",
      "type": "function"
    },
    {
      "inputs": [
        {
          "internalType": "address",
          "name": "newOwner",
          "type": "address"
        }
      ],
      "name": "transferOwnership",
      "outputs": [],
      "stateMutability": "nonpayable",
      "type": "function"
    },
    {
      "inputs": [
        {
          "internalType": "string",
          "name": "_name",
          "type": "string"
        },
        {
          "internalType": "string",
          "name": "_participants",
          "type": "string"
        },
        {
          "internalType": "uint8",
          "name": "_participantCount",
          "type": "uint8"
        },
        {
          "internalType": "uint256",
          "name": "_date",
          "type": "uint256"
        }
      ],
      "name": "addSportEvent",
      "outputs": [
        {
          "internalType": "bytes32",
          "name": "",
          "type": "bytes32"
        }
      ],
      "stateMutability": "nonpayable",
      "type": "function"
    },
    {
      "inputs": [
        {
          "internalType": "bytes32",
          "name": "_eventId",
          "type": "bytes32"
        }
      ],
      "name": "eventExists",
      "outputs": [
        {
          "internalType": "bool",
          "name": "",
          "type": "bool"
        }
      ],
      "stateMutability": "view",
      "type": "function",
      "constant": true
    },
    {
      "inputs": [
        {
          "internalType": "bytes32",
          "name": "_eventId",
          "type": "bytes32"
        },
        {
          "internalType": "enum OracleInterface.EventOutcome",
          "name": "_outcome",
          "type": "uint8"
        },
        {
          "internalType": "int8",
          "name": "_winner",
          "type": "int8"
        }
      ],
      "name": "declareOutcome",
      "outputs": [],
      "stateMutability": "nonpayable",
      "type": "function"
    },
    {
      "inputs": [],
      "name": "getPendingEvents",
      "outputs": [
        {
          "internalType": "bytes32[]",
          "name": "",
          "type": "bytes32[]"
        }
      ],
      "stateMutability": "view",
      "type": "function",
      "constant": true
    },
    {
      "inputs": [],
      "name": "getAllSportEvents",
      "outputs": [
        {
          "internalType": "bytes32[]",
          "name": "",
          "type": "bytes32[]"
        }
      ],
      "stateMutability": "view",
      "type": "function",
      "constant": true
    },
    {
      "inputs": [
        {
          "internalType": "bytes32",
          "name": "_eventId",
          "type": "bytes32"
        }
      ],
      "name": "getEvent",
      "outputs": [
        {
          "internalType": "bytes32",
          "name": "id",
          "type": "bytes32"
        },
        {
          "internalType": "string",
          "name": "name",
          "type": "string"
        },
        {
          "internalType": "string",
          "name": "participants",
          "type": "string"
        },
        {
          "internalType": "uint8",
          "name": "participantCount",
          "type": "uint8"
        },
        {
          "internalType": "uint256",
          "name": "date",
          "type": "uint256"
        },
        {
          "internalType": "enum OracleInterface.EventOutcome",
          "name": "outcome",
          "type": "uint8"
        },
        {
          "internalType": "int8",
          "name": "winner",
          "type": "int8"
        }
      ],
      "stateMutability": "view",
      "type": "function",
      "constant": true
    },
    {
      "inputs": [
        {
          "internalType": "bool",
          "name": "_pending",
          "type": "bool"
        }
      ],
      "name": "getLatestEvent",
      "outputs": [
        {
          "internalType": "bytes32",
          "name": "id",
          "type": "bytes32"
        },
        {
          "internalType": "string",
          "name": "name",
          "type": "string"
        },
        {
          "internalType": "string",
          "name": "participants",
          "type": "string"
        },
        {
          "internalType": "uint8",
          "name": "participantCount",
          "type": "uint8"
        },
        {
          "internalType": "uint256",
          "name": "date",
          "type": "uint256"
        },
        {
          "internalType": "enum OracleInterface.EventOutcome",
          "name": "outcome",
          "type": "uint8"
        },
        {
          "internalType": "int8",
          "name": "winner",
          "type": "int8"
        }
      ],
      "stateMutability": "view",
      "type": "function",
      "constant": true
    },
    {
      "inputs": [],
      "name": "getAddress",
      "outputs": [
        {
          "internalType": "address",
          "name": "",
          "type": "address"
        }
      ],
      "stateMutability": "view",
      "type": "function",
      "constant": true
    },
    {
      "inputs": [],
      "name": "testConnection",
      "outputs": [
        {
          "internalType": "bool",
          "name": "",
          "type": "bool"
        }
      ],
      "stateMutability": "pure",
      "type": "function",
      "constant": true
    },
    {
      "inputs": [],
      "name": "addTestData",
      "outputs": [],
      "stateMutability": "nonpayable",
      "type": "function"
    }
  ],
  "bytecode": "0x608060405234801561001057600080fd5b5060006100216100cb60201b60201c565b9050806000806101000a81548173ffffffffffffffffffffffffffffffffffffffff021916908373ffffffffffffffffffffffffffffffffffffffff1602179055508073ffffffffffffffffffffffffffffffffffffffff16600073ffffffffffffffffffffffffffffffffffffffff167f8be0079c531659141344cd1fd0a4f28419497f9722a3daafe3b4186f6b6457e060405160405180910390a350600180819055506100d3565b600033905090565b612b6480620000e36000396000f3fe608060405234801561001057600080fd5b50600436106100cf5760003560e01c8063895f490f1161008c578063a212b45411610066578063a212b45414610220578063a717e89a1461022a578063b4184e7014610248578063f2fde38b14610266576100cf565b8063895f490f1461019c5780638c172fa2146101cc5780638da5cb5b14610202576100cf565b8063118e58bd146100d457806329e54269146101045780633412a15c1461013a57806338cc483114610158578063715018a6146101765780637898d33414610180575b600080fd5b6100ee60048036038101906100e99190611eb3565b610282565b6040516100fb919061229b565b60405180910390f35b61011e60048036038101906101199190611e8a565b6102bf565b60405161013197969594939291906122d1565b60405180910390f35b610142610367565b60405161014f919061229b565b60405180910390f35b610160610370565b60405161016d919061225e565b60405180910390f35b61017e610378565b005b61019a60048036038101906101959190611edc565b6104b2565b005b6101b660048036038101906101b19190611f2b565b610737565b6040516101c391906122b6565b60405180910390f35b6101e660048036038101906101e19190611eb3565b610b70565b6040516101f997969594939291906122d1565b60405180910390f35b61020a610dba565b604051610217919061225e565b60405180910390f35b610228610de3565b005b610232611017565b60405161023f9190612279565b60405180910390f35b61025061117e565b60405161025d9190612279565b60405180910390f35b610280600480360381019061027b9190611e61565b6114c1565b005b600080600280549050141561029a57600090506102ba565b600060036000848152602001908152602001600020549050600081119150505b919050565b600060608060008060008060008060001b9050606089156102e9576102e261117e565b90506102f4565b6102f1611017565b90505b6000815111156103435780600081518110610338577f4e487b7100000000000000000000000000000000000000000000000000000000600052603260045260246000fd5b602002602001015191505b61034c82610b70565b98509850985098509850985098505050919395979092949650565b60006001905090565b600030905090565b61038061166a565b73ffffffffffffffffffffffffffffffffffffffff1661039e610dba565b73ffffffffffffffffffffffffffffffffffffffff16146103f4576040517f08c379a00000000000000000000000000000000000000000000000000000000081526004016103eb9061240b565b60405180910390fd5b600073ffffffffffffffffffffffffffffffffffffffff1660008054906101000a900473ffffffffffffffffffffffffffffffffffffffff1673ffffffffffffffffffffffffffffffffffffffff167f8be0079c531659141344cd1fd0a4f28419497f9722a3daafe3b4186f6b6457e060405160405180910390a360008060006101000a81548173ffffffffffffffffffffffffffffffffffffffff021916908373ffffffffffffffffffffffffffffffffffffffff160217905550565b6104ba61166a565b73ffffffffffffffffffffffffffffffffffffffff166104d8610dba565b73ffffffffffffffffffffffffffffffffffffffff161461052e576040517f08c379a00000000000000000000000000000000000000000000000000000000081526004016105259061240b565b60405180910390fd5b61053783610282565b61054057600080fd5b600061054b84611672565b9050600060028281548110610589577f4e487b7100000000000000000000000000000000000000000000000000000000600052603260045260246000fd5b906000526020600020906006020190506003808111156105d2577f4e487b7100000000000000000000000000000000000000000000000000000000600052602160045260246000fd5b84600381111561060b577f4e487b7100000000000000000000000000000000000000000000000000000000600052602160045260246000fd5b14156106455760008360000b1215801561063b57508260ff168160030160009054906101000a900460ff1660ff16115b61064457600080fd5b5b838160050160006101000a81548160ff02191690836003811115610692577f4e487b7100000000000000000000000000000000000000000000000000000000600052602160045260246000fd5b02179055506003808111156106d0577f4e487b7100000000000000000000000000000000000000000000000000000000600052602160045260246000fd5b846003811115610709577f4e487b7100000000000000000000000000000000000000000000000000000000600052602160045260246000fd5b141561073057828160050160016101000a81548160ff021916908360000b60ff1602179055505b5050505050565b600061074161166a565b73ffffffffffffffffffffffffffffffffffffffff1661075f610dba565b73ffffffffffffffffffffffffffffffffffffffff16146107b5576040517f08c379a00000000000000000000000000000000000000000000000000000000081526004016107ac9061240b565b60405180910390fd5b600260015414156107fb576040517f08c379a00000000000000000000000000000000000000000000000000000000081526004016107f29061246b565b60405180910390fd5b60026001819055506000859050600081511161084c576040517f08c379a00000000000000000000000000000000000000000000000000000000081526004016108439061244b565b60405180910390fd5b62093a804261085b9190612541565b83101561089d576040517f08c379a00000000000000000000000000000000000000000000000000000000081526004016108949061242b565b60405180910390fd5b60008685856040516020016108b493929190612225565b6040516020818303038152906040528051906020012090506108d581610282565b15610915576040517f08c379a000000000000000000000000000000000000000000000000000000000815260040161090c906123eb565b60405180910390fd5b60026040518060e001604052808381526020018981526020018881526020018760ff1681526020018681526020016000600381111561097d577f4e487b7100000000000000000000000000000000000000000000000000000000600052602160045260246000fd5b81526020017fffffffffffffffffffffffffffffffffffffffffffffffffffffffffffffffff60000b81525090806001815401808255809150506001900390600052602060002090600602016000909190919091506000820151816000015560208201518160010190805190602001906109f8929190611ca0565b506040820151816002019080519060200190610a15929190611ca0565b5060608201518160030160006101000a81548160ff021916908360ff1602179055506080820151816004015560a08201518160050160006101000a81548160ff02191690836003811115610a92577f4e487b7100000000000000000000000000000000000000000000000000000000600052602160045260246000fd5b021790555060c08201518160050160016101000a81548160ff021916908360000b60ff160217905550505060006001600280549050610ad19190612625565b9050600181610ae09190612541565b60036000848152602001908152602001600020819055507ff104b333d7adacd62c09966b46fcf5181fec631a91f176e3d9d72db88c109511828989898960007fffffffffffffffffffffffffffffffffffffffffffffffffffffffffffffffff604051610b53979695949392919061234e565b60405180910390a181935050505060018081905550949350505050565b6000606080600080600080610b8488610282565b15610d515760006002610b968a611672565b81548110610bcd577f4e487b7100000000000000000000000000000000000000000000000000000000600052603260045260246000fd5b90600052602060002090600602019050806000015481600101826002018360030160009054906101000a900460ff1684600401548560050160009054906101000a900460ff168660050160019054906101000a900460000b858054610c3190612780565b80601f0160208091040260200160405190810160405280929190818152602001828054610c5d90612780565b8015610caa5780601f10610c7f57610100808354040283529160200191610caa565b820191906000526020600020905b815481529060010190602001808311610c8d57829003601f168201915b50505050509550848054610cbd90612780565b80601f0160208091040260200160405190810160405280929190818152602001828054610ce990612780565b8015610d365780601f10610d0b57610100808354040283529160200191610d36565b820191906000526020600020905b815481529060010190602001808311610d1957829003601f168201915b50505050509450975097509750975097509750975050610daf565b8760008060007fffffffffffffffffffffffffffffffffffffffffffffffffffffffffffffffff6040518060200160405280600081525093929190604051806020016040528060008152509392919096509650965096509650965096505b919395979092949650565b60008060009054906101000a900473ffffffffffffffffffffffffffffffffffffffff16905090565b610deb61166a565b73ffffffffffffffffffffffffffffffffffffffff16610e09610dba565b73ffffffffffffffffffffffffffffffffffffffff1614610e5f576040517f08c379a0000000000000000000000000000000000000000000000000000000008152600401610e569061240b565b60405180910390fd5b610f396040518060400160405280601381526020017f50617269732076732e204d61727365696c6c65000000000000000000000000008152506040518060400160405280600681526020017f5053477c4f4d00000000000000000000000000000000000000000000000000008152506002610f346040518061010001604052806107e561ffff168152602001600160ff168152602001601760ff168152602001600060ff168152602001600060ff168152602001600060ff168152602001600060ff168152602001600060ff1681525061169b565b610737565b506110146040518060400160405280601481526020017f45737061676e652076732e20506f72747567616c0000000000000000000000008152506040518060400160405280600881526020017f42415243417c4f4d000000000000000000000000000000000000000000000000815250600261100f6040518061010001604052806107e561ffff168152602001600160ff168152602001601760ff168152602001600060ff168152602001600060ff168152602001600060ff168152602001600060ff168152602001600060ff1681525061169b565b610737565b50565b6060600060028054905067ffffffffffffffff811115611060577f4e487b7100000000000000000000000000000000000000000000000000000000600052604160045260246000fd5b60405190808252806020026020018201604052801561108e5781602001602082028036833780820191505090505b509050600060028054905011156111775760008060028054905090505b60008111156111745760026001826110c39190612625565b815481106110fa577f4e487b7100000000000000000000000000000000000000000000000000000000600052603260045260246000fd5b9060005260206000209060060201600001548360018461111a9190612541565b93508381518110611154577f4e487b7100000000000000000000000000000000000000000000000000000000600052603260045260246000fd5b60200260200101818152505060018161116d9190612625565b90506110ab565b50505b8091505090565b60606000805b60028054905081101561128657600060038111156111cb577f4e487b7100000000000000000000000000000000000000000000000000000000600052602160045260246000fd5b60028281548110611205577f4e487b7100000000000000000000000000000000000000000000000000000000600052603260045260246000fd5b906000526020600020906006020160050160009054906101000a900460ff16600381111561125c577f4e487b7100000000000000000000000000000000000000000000000000000000600052602160045260246000fd5b14156112725760018261126f9190612541565b91505b60018161127f9190612541565b9050611184565b5060008167ffffffffffffffff8111156112c9577f4e487b7100000000000000000000000000000000000000000000000000000000600052604160045260246000fd5b6040519080825280602002602001820160405280156112f75781602001602082028036833780820191505090505b50905060008211156114b95760008060028054905090505b60008111156114b65760006003811115611352577f4e487b7100000000000000000000000000000000000000000000000000000000600052602160045260246000fd5b60026001836113619190612625565b81548110611398577f4e487b7100000000000000000000000000000000000000000000000000000000600052603260045260246000fd5b906000526020600020906006020160050160009054906101000a900460ff1660038111156113ef577f4e487b7100000000000000000000000000000000000000000000000000000000600052602160045260246000fd5b14156114a25760026001826114049190612625565b8154811061143b577f4e487b7100000000000000000000000000000000000000000000000000000000600052603260045260246000fd5b906000526020600020906006020160000154838381518110611486577f4e487b7100000000000000000000000000000000000000000000000000000000600052603260045260246000fd5b60200260200101818152505060018261149f9190612541565b91505b6001816114af9190612625565b905061130f565b50505b809250505090565b6114c961166a565b73ffffffffffffffffffffffffffffffffffffffff166114e7610dba565b73ffffffffffffffffffffffffffffffffffffffff161461153d576040517f08c379a00000000000000000000000000000000000000000000000000000000081526004016115349061240b565b60405180910390fd5b600073ffffffffffffffffffffffffffffffffffffffff168173ffffffffffffffffffffffffffffffffffffffff1614156115ad576040517f08c379a00000000000000000000000000000000000000000000000000000000081526004016115a4906123cb565b60405180910390fd5b8073ffffffffffffffffffffffffffffffffffffffff1660008054906101000a900473ffffffffffffffffffffffffffffffffffffffff1673ffffffffffffffffffffffffffffffffffffffff167f8be0079c531659141344cd1fd0a4f28419497f9722a3daafe3b4186f6b6457e060405160405180910390a3806000806101000a81548173ffffffffffffffffffffffffffffffffffffffff021916908373ffffffffffffffffffffffffffffffffffffffff16021790555050565b600033905090565b6000600160036000848152602001908152602001600020546116949190612625565b9050919050565b6000806107b290505b826000015161ffff168161ffff161015611703576116c181611c31565b156116dd576301e28500826116d69190612541565b91506116f0565b6301e13380826116ed9190612541565b91505b80806116fb906127e3565b9150506116a4565b61170b611d26565b601f816000600c8110611747577f4e487b7100000000000000000000000000000000000000000000000000000000600052603260045260246000fd5b602002019060ff16908160ff16815250506117658460000151611c31565b156117bc57601d816001600c81106117a6577f4e487b7100000000000000000000000000000000000000000000000000000000600052603260045260246000fd5b602002019060ff16908160ff168152505061180a565b601c816001600c81106117f8577f4e487b7100000000000000000000000000000000000000000000000000000000600052603260045260246000fd5b602002019060ff16908160ff16815250505b601f816002600c8110611846577f4e487b7100000000000000000000000000000000000000000000000000000000600052603260045260246000fd5b602002019060ff16908160ff1681525050601e816003600c8110611893577f4e487b7100000000000000000000000000000000000000000000000000000000600052603260045260246000fd5b602002019060ff16908160ff1681525050601f816004600c81106118e0577f4e487b7100000000000000000000000000000000000000000000000000000000600052603260045260246000fd5b602002019060ff16908160ff1681525050601e816005600c811061192d577f4e487b7100000000000000000000000000000000000000000000000000000000600052603260045260246000fd5b602002019060ff16908160ff1681525050601f816006600c811061197a577f4e487b7100000000000000000000000000000000000000000000000000000000600052603260045260246000fd5b602002019060ff16908160ff1681525050601f816007600c81106119c7577f4e487b7100000000000000000000000000000000000000000000000000000000600052603260045260246000fd5b602002019060ff16908160ff1681525050601e816008600c8110611a14577f4e487b7100000000000000000000000000000000000000000000000000000000600052603260045260246000fd5b602002019060ff16908160ff1681525050601f816009600c8110611a61577f4e487b7100000000000000000000000000000000000000000000000000000000600052603260045260246000fd5b602002019060ff16908160ff1681525050601e81600a600c8110611aae577f4e487b7100000000000000000000000000000000000000000000000000000000600052603260045260246000fd5b602002019060ff16908160ff1681525050601f81600b600c8110611afb577f4e487b7100000000000000000000000000000000000000000000000000000000600052603260045260246000fd5b602002019060ff16908160ff1681525050600191505b836020015160ff168261ffff161015611ba35780600183611b3291906125f1565b61ffff16600c8110611b6d577f4e487b7100000000000000000000000000000000000000000000000000000000600052603260045260246000fd5b602002015160ff1662015180611b839190612597565b83611b8e9190612541565b92508180611b9b906127e3565b925050611b11565b60018460400151611bb49190612659565b60ff1662015180611bc59190612597565b83611bd09190612541565b9250836060015160ff16610e10611be79190612597565b83611bf29190612541565b9250836080015160ff16603c611c089190612597565b83611c139190612541565b92508360a0015160ff1683611c289190612541565b92505050919050565b600080600483611c41919061282a565b61ffff1614611c535760009050611c9b565b6000606483611c62919061282a565b61ffff1614611c745760019050611c9b565b600061019083611c84919061282a565b61ffff1614611c965760009050611c9b565b600190505b919050565b828054611cac90612780565b90600052602060002090601f016020900481019282611cce5760008555611d15565b82601f10611ce757805160ff1916838001178555611d15565b82800160010185558215611d15579182015b82811115611d14578251825591602001919060010190611cf9565b5b509050611d229190611d49565b5090565b604051806101800160405280600c90602082028036833780820191505090505090565b5b80821115611d62576000816000905550600101611d4a565b5090565b6000611d79611d74846124b0565b61248b565b905082815260208101848484011115611d9157600080fd5b611d9c84828561273e565b509392505050565b600081359050611db381612a94565b92915050565b600081359050611dc881612aab565b92915050565b600081359050611ddd81612ac2565b92915050565b600081359050611df281612ad9565b92915050565b600081359050611e0781612ae9565b92915050565b600082601f830112611e1e57600080fd5b8135611e2e848260208601611d66565b91505092915050565b600081359050611e4681612b00565b92915050565b600081359050611e5b81612b17565b92915050565b600060208284031215611e7357600080fd5b6000611e8184828501611da4565b91505092915050565b600060208284031215611e9c57600080fd5b6000611eaa84828501611db9565b91505092915050565b600060208284031215611ec557600080fd5b6000611ed384828501611dce565b91505092915050565b600080600060608486031215611ef157600080fd5b6000611eff86828701611dce565b9350506020611f1086828701611de3565b9250506040611f2186828701611df8565b9150509250925092565b60008060008060808587031215611f4157600080fd5b600085013567ffffffffffffffff811115611f5b57600080fd5b611f6787828801611e0d565b945050602085013567ffffffffffffffff811115611f8457600080fd5b611f9087828801611e0d565b9350506040611fa187828801611e4c565b9250506060611fb287828801611e37565b91505092959194509250565b6000611fca8383612052565b60208301905092915050565b611fdf8161268d565b82525050565b6000611ff0826124f1565b611ffa8185612514565b9350612005836124e1565b8060005b8381101561203657815161201d8882611fbe565b975061202883612507565b925050600181019050612009565b5085935050505092915050565b61204c8161269f565b82525050565b61205b816126ab565b82525050565b61206a816126ab565b82525050565b6120798161271a565b82525050565b612088816126c8565b82525050565b6120978161272c565b82525050565b60006120a8826124fc565b6120b28185612525565b93506120c281856020860161274d565b6120cb81612946565b840191505092915050565b60006120e1826124fc565b6120eb8185612536565b93506120fb81856020860161274d565b80840191505092915050565b6000612114602683612525565b915061211f82612964565b604082019050919050565b6000612137601483612525565b9150612142826129b3565b602082019050919050565b600061215a602083612525565b9150612165826129dc565b602082019050919050565b600061217d602083612525565b915061218882612a05565b602082019050919050565b60006121a0601583612525565b91506121ab82612a2e565b602082019050919050565b60006121c3601f83612525565b91506121ce82612a57565b602082019050919050565b6121e281612703565b82525050565b6121f96121f482612703565b61280e565b82525050565b6122088161270d565b82525050565b61221f61221a8261270d565b612818565b82525050565b600061223182866120d6565b915061223d828561220e565b60018201915061224d82846121e8565b602082019150819050949350505050565b60006020820190506122736000830184611fd6565b92915050565b600060208201905081810360008301526122938184611fe5565b905092915050565b60006020820190506122b06000830184612043565b92915050565b60006020820190506122cb6000830184612061565b92915050565b600060e0820190506122e6600083018a612061565b81810360208301526122f8818961209d565b9050818103604083015261230c818861209d565b905061231b60608301876121ff565b61232860808301866121d9565b61233560a0830185612070565b61234260c083018461207f565b98975050505050505050565b600060e082019050612363600083018a612061565b8181036020830152612375818961209d565b90508181036040830152612389818861209d565b905061239860608301876121ff565b6123a560808301866121d9565b6123b260a0830185612070565b6123bf60c083018461208e565b98975050505050505050565b600060208201905081810360008301526123e481612107565b9050919050565b600060208201905081810360008301526124048161212a565b9050919050565b600060208201905081810360008301526124248161214d565b9050919050565b6000602082019050818103600083015261244481612170565b9050919050565b6000602082019050818103600083015261246481612193565b9050919050565b60006020820190508181036000830152612484816121b6565b9050919050565b60006124956124a6565b90506124a182826127b2565b919050565b6000604051905090565b600067ffffffffffffffff8211156124cb576124ca612917565b5b6124d482612946565b9050602081019050919050565b6000819050602082019050919050565b600081519050919050565b600081519050919050565b6000602082019050919050565b600082825260208201905092915050565b600082825260208201905092915050565b600081905092915050565b600061254c82612703565b915061255783612703565b9250827fffffffffffffffffffffffffffffffffffffffffffffffffffffffffffffffff0382111561258c5761258b61285b565b5b828201905092915050565b60006125a282612703565b91506125ad83612703565b9250817fffffffffffffffffffffffffffffffffffffffffffffffffffffffffffffffff04831182151516156125e6576125e561285b565b5b828202905092915050565b60006125fc826126d5565b9150612607836126d5565b92508282101561261a5761261961285b565b5b828203905092915050565b600061263082612703565b915061263b83612703565b92508282101561264e5761264d61285b565b5b828203905092915050565b60006126648261270d565b915061266f8361270d565b9250828210156126825761268161285b565b5b828203905092915050565b6000612698826126e3565b9050919050565b60008115159050919050565b6000819050919050565b60008190506126c382612a80565b919050565b60008160000b9050919050565b600061ffff82169050919050565b600073ffffffffffffffffffffffffffffffffffffffff82169050919050565b6000819050919050565b600060ff82169050919050565b6000612725826126b5565b9050919050565b6000612737826126c8565b9050919050565b82818337600083830152505050565b60005b8381101561276b578082015181840152602081019050612750565b8381111561277a576000848401525b50505050565b6000600282049050600182168061279857607f821691505b602082108114156127ac576127ab6128e8565b5b50919050565b6127bb82612946565b810181811067ffffffffffffffff821117156127da576127d9612917565b5b80604052505050565b60006127ee826126d5565b915061ffff8214156128035761280261285b565b5b600182019050919050565b6000819050919050565b600061282382612957565b9050919050565b6000612835826126d5565b9150612840836126d5565b9250826128505761284f61288a565b5b828206905092915050565b7f4e487b7100000000000000000000000000000000000000000000000000000000600052601160045260246000fd5b7f4e487b7100000000000000000000000000000000000000000000000000000000600052601260045260246000fd5b7f4e487b7100000000000000000000000000000000000000000000000000000000600052602160045260246000fd5b7f4e487b7100000000000000000000000000000000000000000000000000000000600052602260045260246000fd5b7f4e487b7100000000000000000000000000000000000000000000000000000000600052604160045260246000fd5b6000601f19601f8301169050919050565b60008160f81b9050919050565b7f4f776e61626c653a206e6577206f776e657220697320746865207a65726f206160008201527f6464726573730000000000000000000000000000000000000000000000000000602082015250565b7f4576656e7420616c726561647920657869737473000000000000000000000000600082015250565b7f4f776e61626c653a2063616c6c6572206973206e6f7420746865206f776e6572600082015250565b7f5f64617465206d757374206265203e3d2031207765656b2066726f6d206e6f77600082015250565b7f5f6e616d652063616e6e6f7420626520656d7074790000000000000000000000600082015250565b7f5265656e7472616e637947756172643a207265656e7472616e742063616c6c00600082015250565b60048110612a9157612a906128b9565b5b50565b612a9d8161268d565b8114612aa857600080fd5b50565b612ab48161269f565b8114612abf57600080fd5b50565b612acb816126ab565b8114612ad657600080fd5b50565b60048110612ae657600080fd5b50565b612af2816126c8565b8114612afd57600080fd5b50565b612b0981612703565b8114612b1457600080fd5b50565b612b208161270d565b8114612b2b57600080fd5b5056fea2646970667358221220aa17558ca0e3d98e32f52c24fece99de453aac07530d37fcd71163ce33c1b64464736f6c63430008040033",
  "immutableReferences": {},
  "source": "// SPDX-License-Identifier: MIT\npragma solidity ^0.8.4;\n\nimport \"@openzeppelin/contracts/access/Ownable.sol\";\nimport \"@openzeppelin/contracts/security/ReentrancyGuard.sol\";\n\nimport \"./OracleInterface.sol\";\nimport \"./DateLib.sol\";\n\n\n/**\n * @title An smart-contract Oracle that register sport events, retrieve their outcomes and communicate their results when asked for.\n * @notice Collects and provides information on sport events and their outcomes\n */\ncontract BetOracle is OracleInterface, Ownable, ReentrancyGuard {\n\n    using DateLib  for DateLib.DateTime;\n\n    /**\n     * @dev all the sport events\n     */\n    SportEvent[] events;\n\n    /*\n     * @dev map of composed {eventId (SHA3 of event key infos) => eventIndex (in events)} pairs\n     */\n    mapping(bytes32 => uint) eventIdToIndex;\n\n    /***\n      * @dev defines a sport event along with its outcome\n      */\n    struct SportEvent {\n        bytes32      id;\n        string       name;\n        string       participants;\n        uint8        participantCount;\n        uint         date;\n        EventOutcome outcome;\n        int8         winner;\n    }\n\n    // FYI: enum EventOutcome is defind in OracleInterface\n\n    /**\n     * @dev Triggered once an event has been added\n     */\n    event SportEventAdded(\n        bytes32      _eventId,\n        string       _name,\n        string       _participants,\n        uint8        _participantCount,\n        uint         _date,\n        EventOutcome _eventOutcome,\n        int8         _winner\n    );\n\n    /**\n     * @notice Add a new pending sport event into the blockchain\n     * @param _name descriptive name for the sport event (e.g. Pac vs. Mayweather 2016)\n     * @param _participants |-delimited string of participants names (e.g. \"Montpellier|Monaco\")\n     * @param _participantCount number of participants\n     * @param _date date set for the sport event\n     * @return the unique id of the newly created sport event\n     */\n    function addSportEvent(\n        string memory _name,\n        string memory _participants,\n        uint8         _participantCount,\n        uint          _date\n    ) \n        public onlyOwner nonReentrant\n        returns (bytes32)\n    {\n        bytes memory bytesName = bytes(_name);\n        require(bytesName.length > 0, \"_name cannot be empty\");\n        require(\n            _date >= block.timestamp + 1 weeks,\n            \"_date must be >= 1 week from now\"\n        );\n\n        // Hash key fields of the sport event to get a unique id\n        bytes32 eventId = keccak256(abi.encodePacked(_name, _participantCount, _date));\n\n        // Make sure that the sport event is unique and does not exist yet\n        require( !eventExists(eventId), \"Event already exists\");\n\n        // Add the sport event\n        events.push( SportEvent(eventId, _name, _participants, _participantCount, _date, EventOutcome.Pending, -1));\n        uint newIndex           = events.length - 1;\n        eventIdToIndex[eventId] = newIndex + 1;\n\n        emit SportEventAdded(\n            eventId,\n            _name,\n            _participants,\n            _participantCount,\n            _date,\n            EventOutcome.Pending,\n            -1                      // no winner yet\n        );\n\n        // Return the unique id of the new sport event\n        return eventId;\n    }\n\n    /**\n     * @notice Returns the array index of the sport event with the given id\n     * @dev if the event id is invalid, then the return value will be incorrect and may cause error; you must call eventExists(_eventId) first!\n     * @param _eventId the sport event id to get\n     * @return the array index of this event if it exists or else -1\n     */\n    function _getMatchIndex(bytes32 _eventId)\n        private view\n        returns (uint)\n    {\n        return eventIdToIndex[_eventId] - 1;\n    }\n\n    /**\n     * @notice Determines whether a sport event exists with the given id\n     * @param _eventId the id of a sport event id\n     * @return true if sport event exists and its id is valid\n     */\n    function eventExists(bytes32 _eventId)\n        public view override\n        returns (bool)\n    {\n        if (events.length == 0) {\n            return false;\n        }\n        uint index = eventIdToIndex[_eventId];\n        return (index > 0);\n    }\n\n    /**\n     * @notice Sets the outcome of a predefined match, permanently on the blockchain\n     * @param _eventId unique id of the match to modify\n     * @param _outcome outcome of the match\n     * @param _winner 0-based id of the winnner\n     */\n    function declareOutcome(bytes32 _eventId, EventOutcome _outcome, int8 _winner)\n        onlyOwner external\n    {\n        // Require that it exists\n        require(eventExists(_eventId));\n\n        // Get the event\n        uint index = _getMatchIndex(_eventId);\n        SportEvent storage theMatch = events[index];\n\n        if (_outcome == EventOutcome.Decided)\n            require(_winner >= 0 && theMatch.participantCount > uint8(_winner));\n\n        // Set the outcome\n        theMatch.outcome = _outcome;\n\n        // Set the winner (if there is one)\n        if (_outcome == EventOutcome.Decided)\n            theMatch.winner = _winner;\n    }\n\n    /**\n     * @notice gets the unique ids of all pending events, in reverse chronological order\n     * @return an array of unique pending events ids\n     */\n    function getPendingEvents()\n        public view override\n        returns (bytes32[] memory)\n    {\n        uint count = 0;\n\n        // Get the count of pending events\n        for (uint i = 0; i < events.length; i = i + 1) {\n            if (events[i].outcome == EventOutcome.Pending)\n                count = count + 1;\n        }\n\n        // Collect up all the pending events\n        bytes32[] memory output = new bytes32[](count);\n\n        if (count > 0) {\n            uint index = 0;\n            for (uint n = events.length;  n > 0;  n = n - 1) {\n                if (events[n - 1].outcome == EventOutcome.Pending) {\n                    output[index] = events[n - 1].id;\n                    index = index + 1;\n                }\n            }\n        }\n\n        return output;\n    }\n\n    /**\n     * @notice gets the unique ids of events, pending and decided, in reverse chronological order\n     * @return an array of unique match ids\n     */\n    function getAllSportEvents()\n        public view override\n        returns (bytes32[] memory)\n    {\n        bytes32[] memory eventIds = new bytes32[](events.length);\n\n        // Collect all event ids\n        if (events.length > 0) {\n            uint index = 0;\n            for (uint n = events.length; n > 0; n = n - 1) {\n                eventIds[index = index + 1] = events[n - 1].id;\n            }\n        }\n\n        return eventIds;\n    }\n\n    /**\n     * @notice gets the specified sport event and return its data\n     * @param _eventId the unique id of the desired event\n     * @return id   the id of the event\n     * @return name the name of the event\n     * @return participants a string with the name of the event's participants separated with a pipe symbol ('|')\n     * @return participantCount the number of the event's participants\n     * @return date when the event takes place\n     * @return outcome an integer that represents the event outcome\n     * @return winner the index of the winner\n     */\n    function getEvent(bytes32 _eventId)\n        public view override\n        returns (\n            bytes32       id,\n            string memory name,\n            string memory participants,\n            uint8         participantCount,\n            uint          date,\n            EventOutcome  outcome,\n            int8          winner\n        )\n    {\n        // Get the sport event\n        if (eventExists(_eventId)) {\n            SportEvent storage theMatch = events[_getMatchIndex(_eventId)];\n            return (theMatch.id, theMatch.name, theMatch.participants, theMatch.participantCount, theMatch.date, theMatch.outcome, theMatch.winner);\n        }\n        else {\n            return (_eventId, \"\", \"\", 0, 0, EventOutcome.Pending, -1);\n        }\n    }\n\n    /**\n     * @notice return the data of the most recent sport event\n     * @param _pending if true, returns only the most recent pending sport event;\n     *   otherwise, returns the most recent sport event either pending or completed\n     * @return id   the id of the event\n     * @return name the name of the event\n     * @return participants a string with the name of the event's participants separated with a pipe symbol ('|')\n     * @return participantCount the number of the event's participants\n     * @return date when the event takes place\n     * @return outcome an integer that represents the event outcome\n     * @return winner the index of the winner\n     */\n    function getLatestEvent(bool _pending)\n        public view override\n        returns (\n            bytes32         id,\n            string memory   name,\n            string memory   participants,\n            uint8           participantCount,\n            uint            date,\n            EventOutcome    outcome,\n            int8            winner\n        )\n    {\n        bytes32          eventId = 0;\n        bytes32[] memory ids;\n\n        if (_pending) {\n            ids = getPendingEvents();\n        } else {\n            ids = getAllSportEvents();\n        }\n        if (ids.length > 0) {\n            eventId = ids[0];\n        }\n\n        // Return a null sport event by default\n        return getEvent(eventId);\n    }\n\n\n    /**\n     * @notice gets the address of this contract\n     * @return the address of the BetOracle smart-contract\n     */\n    function getAddress()\n        public view\n        returns (address)\n    {\n        return address(this);\n    }\n\n    /**\n     * @notice can be used by a client contract to ensure that they've connected to this contract interface successfully\n     * @return true, unconditionally\n     */\n    function testConnection()\n        public pure override\n        returns (bool)\n    {\n        return true;\n    }\n\n    /**\n     * @notice for testing purposes only\n     * TODO: Remove me before going live\n     */\n    function addTestData()\n        external override\n        onlyOwner\n    {\n        addSportEvent(\"Paris vs. Marseille\",  \"PSG|OM\",   2, DateLib.DateTime(2021, 1, 23, 0, 0, 0, 0, 0).toUnixTimestamp());\n        addSportEvent(\"Espagne vs. Portugal\", \"BARCA|OM\", 2, DateLib.DateTime(2021, 1, 23, 0, 0, 0, 0, 0).toUnixTimestamp());\n    }\n}",
  "sourcePath": "/Users/eric/dev/alyra/project/bet-no-loss/contracts/BetOracle.sol",
  "compiler": {
    "name": "solc",
    "version": "0.8.4+commit.c7e474f2.Emscripten.clang"
  },
  "schemaVersion": "3.4.0",
  "updatedAt": "2021-05-07T07:45:28.515Z",
  "networkType": "ethereum",
  "devdoc": {
    "events": {
      "SportEventAdded(bytes32,string,string,uint8,uint256,uint8,int8)": {
        "details": "Triggered once an event has been added"
      }
    },
    "kind": "dev",
    "methods": {
      "addSportEvent(string,string,uint8,uint256)": {
        "params": {
          "_date": "date set for the sport event",
          "_name": "descriptive name for the sport event (e.g. Pac vs. Mayweather 2016)",
          "_participantCount": "number of participants",
          "_participants": "|-delimited string of participants names (e.g. \"Montpellier|Monaco\")"
        },
        "returns": {
          "_0": "the unique id of the newly created sport event"
        }
      },
      "declareOutcome(bytes32,uint8,int8)": {
        "params": {
          "_eventId": "unique id of the match to modify",
          "_outcome": "outcome of the match",
          "_winner": "0-based id of the winnner"
        }
      },
      "eventExists(bytes32)": {
        "params": {
          "_eventId": "the id of a sport event id"
        },
        "returns": {
          "_0": "true if sport event exists and its id is valid"
        }
      },
      "getAddress()": {
        "returns": {
          "_0": "the address of the BetOracle smart-contract"
        }
      },
      "getAllSportEvents()": {
        "returns": {
          "_0": "an array of unique match ids"
        }
      },
      "getEvent(bytes32)": {
        "params": {
          "_eventId": "the unique id of the desired event"
        },
        "returns": {
          "date": "when the event takes place",
          "id": "  the id of the event",
          "name": "the name of the event",
          "outcome": "an integer that represents the event outcome",
          "participantCount": "the number of the event's participants",
          "participants": "a string with the name of the event's participants separated with a pipe symbol ('|')",
          "winner": "the index of the winner"
        }
      },
      "getLatestEvent(bool)": {
        "params": {
          "_pending": "if true, returns only the most recent pending sport event;   otherwise, returns the most recent sport event either pending or completed"
        },
        "returns": {
          "date": "when the event takes place",
          "id": "  the id of the event",
          "name": "the name of the event",
          "outcome": "an integer that represents the event outcome",
          "participantCount": "the number of the event's participants",
          "participants": "a string with the name of the event's participants separated with a pipe symbol ('|')",
          "winner": "the index of the winner"
        }
      },
      "getPendingEvents()": {
        "returns": {
          "_0": "an array of unique pending events ids"
        }
      },
      "owner()": {
        "details": "Returns the address of the current owner."
      },
      "renounceOwnership()": {
        "details": "Leaves the contract without owner. It will not be possible to call `onlyOwner` functions anymore. Can only be called by the current owner. NOTE: Renouncing ownership will leave the contract without an owner, thereby removing any functionality that is only available to the owner."
      },
      "testConnection()": {
        "returns": {
          "_0": "true, unconditionally"
        }
      },
      "transferOwnership(address)": {
        "details": "Transfers ownership of the contract to a new account (`newOwner`). Can only be called by the current owner."
      }
    },
    "stateVariables": {
      "events": {
        "details": "all the sport events"
      }
    },
    "title": "An smart-contract Oracle that register sport events, retrieve their outcomes and communicate their results when asked for.",
    "version": 1
  },
  "userdoc": {
    "kind": "user",
    "methods": {
      "addSportEvent(string,string,uint8,uint256)": {
        "notice": "Add a new pending sport event into the blockchain"
      },
      "addTestData()": {
        "notice": "for testing purposes only TODO: Remove me before going live"
      },
      "declareOutcome(bytes32,uint8,int8)": {
        "notice": "Sets the outcome of a predefined match, permanently on the blockchain"
      },
      "eventExists(bytes32)": {
        "notice": "Determines whether a sport event exists with the given id"
      },
      "getAddress()": {
        "notice": "gets the address of this contract"
      },
      "getAllSportEvents()": {
        "notice": "gets the unique ids of events, pending and decided, in reverse chronological order"
      },
      "getEvent(bytes32)": {
        "notice": "gets the specified sport event and return its data"
      },
      "getLatestEvent(bool)": {
        "notice": "return the data of the most recent sport event"
      },
      "getPendingEvents()": {
        "notice": "gets the unique ids of all pending events, in reverse chronological order"
      },
      "testConnection()": {
        "notice": "can be used by a client contract to ensure that they've connected to this contract interface successfully"
      }
    },
    "notice": "Collects and provides information on sport events and their outcomes",
    "version": 1
  }
}