{
  "contractName": "DefiPool",
  "abi": [
    {
      "inputs": [],
      "stateMutability": "payable",
      "type": "constructor",
      "payable": true
    },
    {
      "anonymous": false,
      "inputs": [
        {
          "indexed": true,
          "internalType": "address",
          "name": "user",
          "type": "address"
        },
        {
          "indexed": false,
          "internalType": "uint256",
          "name": "amount",
          "type": "uint256"
        },
        {
          "indexed": false,
          "internalType": "uint256",
          "name": "timeStart",
          "type": "uint256"
        }
      ],
      "name": "Deposit",
      "type": "event"
    },
    {
      "inputs": [
        {
          "internalType": "address",
          "name": "",
          "type": "address"
        }
      ],
      "name": "depositStart",
      "outputs": [
        {
          "internalType": "uint256",
          "name": "",
          "type": "uint256"
        }
      ],
      "stateMutability": "view",
      "type": "function",
      "constant": true
    },
    {
      "inputs": [
        {
          "internalType": "address",
          "name": "",
          "type": "address"
        }
      ],
      "name": "depositTime",
      "outputs": [
        {
          "internalType": "uint256",
          "name": "",
          "type": "uint256"
        }
      ],
      "stateMutability": "view",
      "type": "function",
      "constant": true
    },
    {
      "inputs": [
        {
          "internalType": "address",
          "name": "",
          "type": "address"
        }
      ],
      "name": "interests",
      "outputs": [
        {
          "internalType": "uint256",
          "name": "",
          "type": "uint256"
        }
      ],
      "stateMutability": "view",
      "type": "function",
      "constant": true
    },
    {
      "inputs": [
        {
          "internalType": "address",
          "name": "",
          "type": "address"
        }
      ],
      "name": "userBalance",
      "outputs": [
        {
          "internalType": "uint256",
          "name": "",
          "type": "uint256"
        }
      ],
      "stateMutability": "view",
      "type": "function",
      "constant": true
    },
    {
      "inputs": [],
      "name": "deposit",
      "outputs": [],
      "stateMutability": "payable",
      "type": "function",
      "payable": true
    },
    {
      "inputs": [],
      "name": "withdraw",
      "outputs": [],
      "stateMutability": "payable",
      "type": "function",
      "payable": true
    },
    {
      "inputs": [],
      "name": "getContractBalance",
      "outputs": [
        {
          "internalType": "uint256",
          "name": "",
          "type": "uint256"
        }
      ],
      "stateMutability": "view",
      "type": "function",
      "constant": true
    },
    {
      "inputs": [],
      "name": "getUserBalance",
      "outputs": [
        {
          "internalType": "uint256",
          "name": "",
          "type": "uint256"
        }
      ],
      "stateMutability": "view",
      "type": "function",
      "constant": true
    }
  ],
  "bytecode": "0x6080604052610ae8806100136000396000f3fe60806040526004361061007b5760003560e01c80636f9fb98a1161004e5780636f9fb98a14610141578063b7013dc11461016c578063d0e30db014610197578063ff87930a146101a15761007b565b80630103c92b146100805780630ef44046146100bd5780633ccfd60b146100fa57806346c6487314610104575b600080fd5b34801561008c57600080fd5b506100a760048036038101906100a291906107cd565b6101de565b6040516100b49190610848565b60405180910390f35b3480156100c957600080fd5b506100e460048036038101906100df91906107cd565b6101f6565b6040516100f19190610848565b60405180910390f35b61010261020e565b005b34801561011057600080fd5b5061012b600480360381019061012691906107cd565b6105ab565b6040516101389190610848565b60405180910390f35b34801561014d57600080fd5b506101566105c3565b6040516101639190610848565b60405180910390f35b34801561017857600080fd5b506101816105cb565b60405161018e9190610848565b60405180910390f35b61019f6105ea565b005b3480156101ad57600080fd5b506101c860048036038101906101c391906107cd565b6107a0565b6040516101d59190610848565b60405180910390f35b60006020528060005260406000206000915090505481565b60036020528060005260406000206000915090505481565b600160003373ffffffffffffffffffffffffffffffffffffffff1673ffffffffffffffffffffffffffffffffffffffff1681526020019081526020016000205442610259919061097e565b600260003373ffffffffffffffffffffffffffffffffffffffff1673ffffffffffffffffffffffffffffffffffffffff168152602001908152602001600020819055506000662386f26fc100006000803373ffffffffffffffffffffffffffffffffffffffff1673ffffffffffffffffffffffffffffffffffffffff168152602001908152602001600020546102ef91906108f3565b6301e1d6006102fe9190610924565b9050600260003373ffffffffffffffffffffffffffffffffffffffff1673ffffffffffffffffffffffffffffffffffffffff168152602001908152602001600020548161034b9190610924565b600360003373ffffffffffffffffffffffffffffffffffffffff1673ffffffffffffffffffffffffffffffffffffffff16815260200190815260200160002081905550600360003373ffffffffffffffffffffffffffffffffffffffff1673ffffffffffffffffffffffffffffffffffffffff168152602001908152602001600020546000803373ffffffffffffffffffffffffffffffffffffffff1673ffffffffffffffffffffffffffffffffffffffff16815260200190815260200160002054610417919061089d565b6000803373ffffffffffffffffffffffffffffffffffffffff1673ffffffffffffffffffffffffffffffffffffffff168152602001908152602001600020819055503373ffffffffffffffffffffffffffffffffffffffff166108fc6000803373ffffffffffffffffffffffffffffffffffffffff1673ffffffffffffffffffffffffffffffffffffffff168152602001908152602001600020549081150290604051600060405180830381858888f193505050501580156104dd573d6000803e3d6000fd5b506000803373ffffffffffffffffffffffffffffffffffffffff1673ffffffffffffffffffffffffffffffffffffffff168152602001908152602001600020546000803373ffffffffffffffffffffffffffffffffffffffff1673ffffffffffffffffffffffffffffffffffffffff16815260200190815260200160002054610566919061097e565b6000803373ffffffffffffffffffffffffffffffffffffffff1673ffffffffffffffffffffffffffffffffffffffff1681526020019081526020016000208190555050565b60026020528060005260406000206000915090505481565b600047905090565b60003373ffffffffffffffffffffffffffffffffffffffff1631905090565b662386f26fc10000341015610634576040517f08c379a000000000000000000000000000000000000000000000000000000000815260040161062b90610828565b60405180910390fd5b346000803373ffffffffffffffffffffffffffffffffffffffff1673ffffffffffffffffffffffffffffffffffffffff1681526020019081526020016000205461067e919061089d565b6000803373ffffffffffffffffffffffffffffffffffffffff1673ffffffffffffffffffffffffffffffffffffffff1681526020019081526020016000208190555042600160003373ffffffffffffffffffffffffffffffffffffffff1673ffffffffffffffffffffffffffffffffffffffff1681526020019081526020016000205461070b919061089d565b600160003373ffffffffffffffffffffffffffffffffffffffff1673ffffffffffffffffffffffffffffffffffffffff168152602001908152602001600020819055503373ffffffffffffffffffffffffffffffffffffffff167f90890809c654f11d6e72a28fa60149770a0d11ec6c92319d6ceb2bb0a4ea1a153442604051610796929190610863565b60405180910390a2565b60016020528060005260406000206000915090505481565b6000813590506107c781610a9b565b92915050565b6000602082840312156107df57600080fd5b60006107ed848285016107b8565b91505092915050565b600061080360228361088c565b915061080e82610a4c565b604082019050919050565b610822816109e4565b82525050565b60006020820190508181036000830152610841816107f6565b9050919050565b600060208201905061085d6000830184610819565b92915050565b60006040820190506108786000830185610819565b6108856020830184610819565b9392505050565b600082825260208201905092915050565b60006108a8826109e4565b91506108b3836109e4565b9250827fffffffffffffffffffffffffffffffffffffffffffffffffffffffffffffffff038211156108e8576108e76109ee565b5b828201905092915050565b60006108fe826109e4565b9150610909836109e4565b92508261091957610918610a1d565b5b828204905092915050565b600061092f826109e4565b915061093a836109e4565b9250817fffffffffffffffffffffffffffffffffffffffffffffffffffffffffffffffff0483118215151615610973576109726109ee565b5b828202905092915050565b6000610989826109e4565b9150610994836109e4565b9250828210156109a7576109a66109ee565b5b828203905092915050565b60006109bd826109c4565b9050919050565b600073ffffffffffffffffffffffffffffffffffffffff82169050919050565b6000819050919050565b7f4e487b7100000000000000000000000000000000000000000000000000000000600052601160045260246000fd5b7f4e487b7100000000000000000000000000000000000000000000000000000000600052601260045260246000fd5b7f4572726f722c206465706f736974206d757374206265203e3d20302e3031204560008201527f5448000000000000000000000000000000000000000000000000000000000000602082015250565b610aa4816109b2565b8114610aaf57600080fd5b5056fea2646970667358221220806671a685cdcac448a48b624d322b09a43cb063dc517e835921630efc1572a564736f6c63430008030033",
  "immutableReferences": {},
  "source": "// SPDX-License-Identifier: MIT\npragma solidity 0.8.3;\n\n\ncontract DefiPool {\n    /**\n    @title A smart-contract that plays the role of a DeFi protocol where users can deposit and earn\n    interests\n    */\n\n    /**\n     * @dev Balance of each user address\n     */\n    mapping(address => uint256) public userBalance;\n\n    /**\n     * @dev Start date of each user deposit\n     */\n    mapping(address => uint256) public depositStart;\n\n    /**\n     * @dev Time spent in user deposit\n     */\n    mapping(address => uint256) public depositTime; // temporary\n\n    /**\n     * @dev Interests earn per user\n     */\n    mapping(address => uint256) public interests; // temporary\n\n    /**\n     * @dev Triggered once an event has been added\n     */\n    event Deposit(address indexed user, uint256 amount, uint256 timeStart);\n\n    constructor() payable {}\n\n    /**\n     * @notice deposit ether to the contract\n     */\n    function deposit() public payable {\n        require(msg.value >= 1e16, \"Error, deposit must be >= 0.01 ETH\");\n\n        userBalance[msg.sender] = userBalance[msg.sender] + msg.value;\n\n        depositStart[msg.sender] = depositStart[msg.sender] + block.timestamp;\n\n        emit Deposit(msg.sender, msg.value, block.timestamp);\n    }\n\n    /**\n     * @notice Withdraw all amount deposited by a user\n     */\n    function withdraw() public payable {\n        // 31577600 = seconds in 365.25 days\n\n        // time spent for user's deposit\n        depositTime[msg.sender] = block.timestamp - depositStart[msg.sender];\n\n        //interests gains per second\n        uint256 interestPerSecond =\n            31577600 * (uint256(userBalance[msg.sender]) / 1e16);\n\n        interests[msg.sender] = interestPerSecond * depositTime[msg.sender];\n\n        userBalance[msg.sender] = userBalance[msg.sender] + interests[msg.sender];\n        payable(msg.sender).transfer(userBalance[msg.sender]);\n        userBalance[msg.sender] = userBalance[msg.sender] - userBalance[msg.sender];\n    }\n\n    /**\n     * @return return the contract balance\n     */\n    function getContractBalance() public view returns (uint256) {\n        return address(this).balance;\n    }\n\n    /**\n     * @return return msg.sender balance\n     */\n    function getUserBalance() public view returns (uint256) {\n        return msg.sender.balance;\n    }\n}\n",
  "sourcePath": "/Users/Lidmi/Desktop/Alyra/ProjetFinal/BetNoLoss/bet-no-loss/contracts/DefiPool.sol",
  "compiler": {
    "name": "solc",
    "version": "0.8.3+commit.8d00100c.Emscripten.clang"
  },
  "schemaVersion": "3.3.4",
  "updatedAt": "2021-04-27T09:11:15.051Z",
  "networkType": "ethereum",
  "devdoc": {
    "events": {
      "Deposit(address,uint256,uint256)": {
        "details": "Triggered once an event has been added"
      }
    },
    "kind": "dev",
    "methods": {
      "getContractBalance()": {
        "returns": {
          "_0": "return the contract balance"
        }
      },
      "getUserBalance()": {
        "returns": {
          "_0": "return msg.sender balance"
        }
      }
    },
    "stateVariables": {
      "depositStart": {
        "details": "Start date of each user deposit"
      },
      "depositTime": {
        "details": "Time spent in user deposit"
      },
      "interests": {
        "details": "Interests earn per user"
      },
      "userBalance": {
        "details": "Balance of each user address"
      }
    },
    "version": 1
  },
  "userdoc": {
    "kind": "user",
    "methods": {
      "deposit()": {
        "notice": "deposit ether to the contract"
      },
      "withdraw()": {
        "notice": "Withdraw all amount deposited by a user"
      }
    },
    "version": 1
  }
}