{
  "contractName": "ipfsImage",
  "abi": [
    {
      "inputs": [
        {
          "internalType": "string",
          "name": "_iHash",
          "type": "string"
        }
      ],
      "name": "set",
      "outputs": [],
      "stateMutability": "nonpayable",
      "type": "function"
    },
    {
      "inputs": [],
      "name": "get",
      "outputs": [
        {
          "internalType": "string",
          "name": "",
          "type": "string"
        }
      ],
      "stateMutability": "view",
      "type": "function",
      "constant": true
    }
  ],
  "bytecode": "0x608060405234801561001057600080fd5b50610484806100206000396000f3fe608060405234801561001057600080fd5b50600436106100365760003560e01c80634ed3885e1461003b5780636d4ce63c14610057575b600080fd5b6100556004803603810190610050919061022c565b610075565b005b61005f61008f565b60405161006c91906102a6565b60405180910390f35b806000908051906020019061008b929190610121565b5050565b60606000805461009e9061037c565b80601f01602080910402602001604051908101604052809291908181526020018280546100ca9061037c565b80156101175780601f106100ec57610100808354040283529160200191610117565b820191906000526020600020905b8154815290600101906020018083116100fa57829003601f168201915b5050505050905090565b82805461012d9061037c565b90600052602060002090601f01602090048101928261014f5760008555610196565b82601f1061016857805160ff1916838001178555610196565b82800160010185558215610196579182015b8281111561019557825182559160200191906001019061017a565b5b5090506101a391906101a7565b5090565b5b808211156101c05760008160009055506001016101a8565b5090565b60006101d76101d2846102ed565b6102c8565b9050828152602081018484840111156101ef57600080fd5b6101fa84828561033a565b509392505050565b600082601f83011261021357600080fd5b81356102238482602086016101c4565b91505092915050565b60006020828403121561023e57600080fd5b600082013567ffffffffffffffff81111561025857600080fd5b61026484828501610202565b91505092915050565b60006102788261031e565b6102828185610329565b9350610292818560208601610349565b61029b8161043d565b840191505092915050565b600060208201905081810360008301526102c0818461026d565b905092915050565b60006102d26102e3565b90506102de82826103ae565b919050565b6000604051905090565b600067ffffffffffffffff8211156103085761030761040e565b5b6103118261043d565b9050602081019050919050565b600081519050919050565b600082825260208201905092915050565b82818337600083830152505050565b60005b8381101561036757808201518184015260208101905061034c565b83811115610376576000848401525b50505050565b6000600282049050600182168061039457607f821691505b602082108114156103a8576103a76103df565b5b50919050565b6103b78261043d565b810181811067ffffffffffffffff821117156103d6576103d561040e565b5b80604052505050565b7f4e487b7100000000000000000000000000000000000000000000000000000000600052602260045260246000fd5b7f4e487b7100000000000000000000000000000000000000000000000000000000600052604160045260246000fd5b6000601f19601f830116905091905056fea264697066735822122083f8f7cc76fbe92e2152be1d08b58812b2eb0e1a7b55e529b3c06b48982720cf64736f6c63430008030033",
  "immutableReferences": {},
  "source": "// SPDX-License-Identifier: MIT\npragma solidity 0.8.3;\n\n/**\n * @notice TODO (one-liner short description)\n * @title TODO TODO: description\n * @author Lebeil\n */\ncontract ipfsImage {\n\n    /**\n     * @dev The IPFS image Hash of this image\n     */\n    string iHash;\n\n    /**\n     * @notice Write function: Set the passed in IPFS hash for this image\n     * @param _iHash the IPFS hash of this image (as a string)\n     */\n    function set(string memory _iHash) \n        public \n    {\n        iHash = _iHash;\n    }\n\n    /**\n     * @notice Read Function: Get the IPFS Hash of this image\n     * @return the IPFS hash of the image (as a string)\n     */\n    function get() \n        public view \n        returns (string memory)\n    {\n        return iHash;\n    }\n}",
  "sourcePath": "/Users/Lidmi/Desktop/Alyra/ProjetFinal/BetNoLoss/bet-no-loss/contracts/ipfsImage.sol",
  "compiler": {
    "name": "solc",
    "version": "0.8.3+commit.8d00100c.Emscripten.clang"
  },
  "schemaVersion": "3.3.4",
  "updatedAt": "2021-04-29T10:09:47.924Z",
  "networkType": "ethereum",
  "devdoc": {
    "author": "Lebeil",
    "kind": "dev",
    "methods": {
      "get()": {
        "returns": {
          "_0": "the IPFS hash of the image (as a string)"
        }
      },
      "set(string)": {
        "params": {
          "_iHash": "the IPFS hash of this image (as a string)"
        }
      }
    },
    "stateVariables": {
      "iHash": {
        "details": "The IPFS image Hash of this image"
      }
    },
    "title": "TODO TODO: description",
    "version": 1
  },
  "userdoc": {
    "kind": "user",
    "methods": {
      "get()": {
        "notice": "Read Function: Get the IPFS Hash of this image"
      },
      "set(string)": {
        "notice": "Write function: Set the passed in IPFS hash for this image"
      }
    },
    "notice": "TODO (one-liner short description)",
    "version": 1
  }
}