{
  "contractName": "Play",
  "abi": [
    {
      "inputs": [
        {
          "internalType": "address",
          "name": "_tokenAddress",
          "type": "address"
        }
      ],
      "stateMutability": "nonpayable",
      "type": "constructor"
    },
    {
      "inputs": [
        {
          "internalType": "address",
          "name": "",
          "type": "address"
        },
        {
          "internalType": "uint256",
          "name": "",
          "type": "uint256"
        }
      ],
      "name": "betsPerPlayer",
      "outputs": [
        {
          "internalType": "uint256",
          "name": "",
          "type": "uint256"
        }
      ],
      "stateMutability": "view",
      "type": "function",
      "constant": true
    },
    {
      "inputs": [
        {
          "internalType": "address",
          "name": "",
          "type": "address"
        },
        {
          "internalType": "uint256",
          "name": "",
          "type": "uint256"
        }
      ],
      "name": "chosenWinner",
      "outputs": [
        {
          "internalType": "string",
          "name": "",
          "type": "string"
        }
      ],
      "stateMutability": "view",
      "type": "function",
      "constant": true
    },
    {
      "inputs": [],
      "name": "eventCount",
      "outputs": [
        {
          "internalType": "uint256",
          "name": "",
          "type": "uint256"
        }
      ],
      "stateMutability": "view",
      "type": "function",
      "constant": true
    },
    {
      "inputs": [
        {
          "internalType": "address",
          "name": "",
          "type": "address"
        },
        {
          "internalType": "uint256",
          "name": "",
          "type": "uint256"
        }
      ],
      "name": "playerEarnings",
      "outputs": [
        {
          "internalType": "uint256",
          "name": "",
          "type": "uint256"
        }
      ],
      "stateMutability": "view",
      "type": "function",
      "constant": true
    },
    {
      "inputs": [
        {
          "internalType": "uint256",
          "name": "",
          "type": "uint256"
        }
      ],
      "name": "sportEvents",
      "outputs": [
        {
          "internalType": "uint256",
          "name": "eventId",
          "type": "uint256"
        },
        {
          "internalType": "string",
          "name": "fileHash",
          "type": "string"
        },
        {
          "internalType": "string",
          "name": "description",
          "type": "string"
        },
        {
          "internalType": "string",
          "name": "teamA",
          "type": "string"
        },
        {
          "internalType": "string",
          "name": "teamB",
          "type": "string"
        },
        {
          "internalType": "uint256",
          "name": "date",
          "type": "uint256"
        },
        {
          "internalType": "string",
          "name": "winner",
          "type": "string"
        }
      ],
      "stateMutability": "view",
      "type": "function",
      "constant": true
    },
    {
      "inputs": [
        {
          "internalType": "string",
          "name": "_fileHash",
          "type": "string"
        },
        {
          "internalType": "string",
          "name": "_description",
          "type": "string"
        },
        {
          "internalType": "string",
          "name": "_teamA",
          "type": "string"
        },
        {
          "internalType": "string",
          "name": "_teamB",
          "type": "string"
        },
        {
          "internalType": "uint256",
          "name": "_date",
          "type": "uint256"
        }
      ],
      "name": "addSportEvent",
      "outputs": [],
      "stateMutability": "nonpayable",
      "type": "function"
    },
    {
      "inputs": [
        {
          "internalType": "uint256",
          "name": "_eventId",
          "type": "uint256"
        }
      ],
      "name": "getWinner",
      "outputs": [
        {
          "internalType": "string",
          "name": "",
          "type": "string"
        }
      ],
      "stateMutability": "view",
      "type": "function",
      "constant": true
    },
    {
      "inputs": [
        {
          "internalType": "string",
          "name": "_winner",
          "type": "string"
        },
        {
          "internalType": "uint256",
          "name": "_amount",
          "type": "uint256"
        },
        {
          "internalType": "uint256",
          "name": "eventId",
          "type": "uint256"
        }
      ],
      "name": "bet",
      "outputs": [],
      "stateMutability": "nonpayable",
      "type": "function"
    },
    {
      "inputs": [
        {
          "internalType": "uint256",
          "name": "_eventId",
          "type": "uint256"
        }
      ],
      "name": "checkEarnings",
      "outputs": [
        {
          "internalType": "uint256",
          "name": "",
          "type": "uint256"
        }
      ],
      "stateMutability": "nonpayable",
      "type": "function"
    },
    {
      "inputs": [
        {
          "internalType": "address",
          "name": "_player",
          "type": "address"
        },
        {
          "internalType": "uint256",
          "name": "_eventId",
          "type": "uint256"
        }
      ],
      "name": "withdraw",
      "outputs": [],
      "stateMutability": "nonpayable",
      "type": "function"
    },
    {
      "inputs": [
        {
          "internalType": "address",
          "name": "_balance",
          "type": "address"
        }
      ],
      "name": "getBalance",
      "outputs": [
        {
          "internalType": "uint256",
          "name": "",
          "type": "uint256"
        }
      ],
      "stateMutability": "view",
      "type": "function",
      "constant": true
    }
  ],
  "bytecode": "0x608060405260006004553480156200001657600080fd5b5060405162001a4a38038062001a4a83398181016040528101906200003c91906200009a565b806000806101000a81548173ffffffffffffffffffffffffffffffffffffffff021916908373ffffffffffffffffffffffffffffffffffffffff1602179055505062000114565b6000815190506200009481620000fa565b92915050565b600060208284031215620000ad57600080fd5b6000620000bd8482850162000083565b91505092915050565b6000620000d382620000da565b9050919050565b600073ffffffffffffffffffffffffffffffffffffffff82169050919050565b6200010581620000c6565b81146200011157600080fd5b50565b61192680620001246000396000f3fe608060405234801561001057600080fd5b50600436106100a95760003560e01c80635764127e116100715780635764127e1461017657806371be2e4a146101ac578063a4f84a63146101ca578063db7e0e5a146101fa578063f3fef3a31461022a578063f8b2cb4f14610246576100a9565b806316983620146100ae578063291d6974146100ca57806329d809b3146100e65780632c000da8146101165780634129b2c914610146575b600080fd5b6100c860048036038101906100c391906110b0565b610276565b005b6100e460048036038101906100df9190611187565b6103d8565b005b61010060048036038101906100fb919061104b565b61059e565b60405161010d9190611493565b60405180910390f35b610130600480360381019061012b91906111ee565b6105cf565b60405161013d9190611493565b60405180910390f35b610160600480360381019061015b91906111ee565b610704565b60405161016d9190611411565b60405180910390f35b610190600480360381019061018b91906111ee565b6107ac565b6040516101a397969594939291906114ae565b60405180910390f35b6101b4610a96565b6040516101c19190611493565b60405180910390f35b6101e460048036038101906101df919061104b565b610a9c565b6040516101f19190611493565b60405180910390f35b610214600480360381019061020f919061104b565b610ac1565b6040516102219190611411565b60405180910390f35b610244600480360381019061023f919061104b565b610b6e565b005b610260600480360381019061025b9190611022565b610da2565b60405161026d9190611493565b60405180910390f35b62093a804261028591906115d2565b8110156102c7576040517f08c379a00000000000000000000000000000000000000000000000000000000081526004016102be90611473565b60405180910390fd5b600460008154809291906102da90611749565b91905055506040518060e0016040528060045481526020018681526020018581526020018481526020018381526020018281526020018481525060056000600454815260200190815260200160002060008201518160000155602082015181600101908051906020019061034f929190610ec3565b50604082015181600201908051906020019061036c929190610ec3565b506060820151816003019080519060200190610389929190610ec3565b5060808201518160040190805190602001906103a6929190610ec3565b5060a0820151816005015560c08201518160060190805190602001906103cd929190610ec3565b509050505050505050565b600a82101561041c576040517f08c379a000000000000000000000000000000000000000000000000000000000815260040161041390611433565b60405180910390fd5b60008054906101000a900473ffffffffffffffffffffffffffffffffffffffff1673ffffffffffffffffffffffffffffffffffffffff166323b872dd3330856040518463ffffffff1660e01b8152600401610479939291906113b1565b602060405180830381600087803b15801561049357600080fd5b505af11580156104a7573d6000803e3d6000fd5b505050506040513d601f19601f820116820180604052508101906104cb9190611087565b5082600260003373ffffffffffffffffffffffffffffffffffffffff1673ffffffffffffffffffffffffffffffffffffffff168152602001908152602001600020600060045481526020019081526020016000209080519060200190610532929190610ec3565b50600160003373ffffffffffffffffffffffffffffffffffffffff1673ffffffffffffffffffffffffffffffffffffffff168152602001908152602001600020819080600181540180825580915050600190039060005260206000200160009091909190915055505050565b600160205281600052604060002081815481106105ba57600080fd5b90600052602060002001600091509150505481565b6000600260003373ffffffffffffffffffffffffffffffffffffffff1673ffffffffffffffffffffffffffffffffffffffff1681526020019081526020016000206000838152602001908152602001600020604051602001610631919061137f565b604051602081830303815290604052805190602001206005600084815260200190815260200160002060060160405160200161066d919061137f565b6040516020818303038152906040528051906020012014156106fa57600a600360003373ffffffffffffffffffffffffffffffffffffffff1673ffffffffffffffffffffffffffffffffffffffff168152602001908152602001600020600084815260200190815260200160002060008282546106ea91906115d2565b92505081905550600a90506106ff565b600090505b919050565b6060600560008381526020019081526020016000206006018054610727906116e6565b80601f0160208091040260200160405190810160405280929190818152602001828054610753906116e6565b80156107a05780601f10610775576101008083540402835291602001916107a0565b820191906000526020600020905b81548152906001019060200180831161078357829003601f168201915b50505050509050919050565b60056020528060005260406000206000915090508060000154908060010180546107d5906116e6565b80601f0160208091040260200160405190810160405280929190818152602001828054610801906116e6565b801561084e5780601f106108235761010080835404028352916020019161084e565b820191906000526020600020905b81548152906001019060200180831161083157829003601f168201915b505050505090806002018054610863906116e6565b80601f016020809104026020016040519081016040528092919081815260200182805461088f906116e6565b80156108dc5780601f106108b1576101008083540402835291602001916108dc565b820191906000526020600020905b8154815290600101906020018083116108bf57829003601f168201915b5050505050908060030180546108f1906116e6565b80601f016020809104026020016040519081016040528092919081815260200182805461091d906116e6565b801561096a5780601f1061093f5761010080835404028352916020019161096a565b820191906000526020600020905b81548152906001019060200180831161094d57829003601f168201915b50505050509080600401805461097f906116e6565b80601f01602080910402602001604051908101604052809291908181526020018280546109ab906116e6565b80156109f85780601f106109cd576101008083540402835291602001916109f8565b820191906000526020600020905b8154815290600101906020018083116109db57829003601f168201915b505050505090806005015490806006018054610a13906116e6565b80601f0160208091040260200160405190810160405280929190818152602001828054610a3f906116e6565b8015610a8c5780601f10610a6157610100808354040283529160200191610a8c565b820191906000526020600020905b815481529060010190602001808311610a6f57829003601f168201915b5050505050905087565b60045481565b6003602052816000526040600020602052806000526040600020600091509150505481565b6002602052816000526040600020602052806000526040600020600091509150508054610aed906116e6565b80601f0160208091040260200160405190810160405280929190818152602001828054610b19906116e6565b8015610b665780601f10610b3b57610100808354040283529160200191610b66565b820191906000526020600020905b815481529060010190602001808311610b4957829003601f168201915b505050505081565b600073ffffffffffffffffffffffffffffffffffffffff168273ffffffffffffffffffffffffffffffffffffffff161415610bde576040517f08c379a0000000000000000000000000000000000000000000000000000000008152600401610bd590611453565b60405180910390fd5b6000600360003373ffffffffffffffffffffffffffffffffffffffff1673ffffffffffffffffffffffffffffffffffffffff1681526020019081526020016000206000838152602001908152602001600020541115610d365760008054906101000a900473ffffffffffffffffffffffffffffffffffffffff1673ffffffffffffffffffffffffffffffffffffffff1663a9059cbb83600360003373ffffffffffffffffffffffffffffffffffffffff1673ffffffffffffffffffffffffffffffffffffffff1681526020019081526020016000206000858152602001908152602001600020546040518363ffffffff1660e01b8152600401610ce29291906113e8565b602060405180830381600087803b158015610cfc57600080fd5b505af1158015610d10573d6000803e3d6000fd5b505050506040513d601f19601f82011682018060405250810190610d349190611087565b505b600a600360003373ffffffffffffffffffffffffffffffffffffffff1673ffffffffffffffffffffffffffffffffffffffff16815260200190815260200160002060008381526020019081526020016000206000828254610d979190611628565b925050819055505050565b60008073ffffffffffffffffffffffffffffffffffffffff168273ffffffffffffffffffffffffffffffffffffffff161415610e13576040517f08c379a0000000000000000000000000000000000000000000000000000000008152600401610e0a90611453565b60405180910390fd5b60008054906101000a900473ffffffffffffffffffffffffffffffffffffffff1673ffffffffffffffffffffffffffffffffffffffff166370a08231836040518263ffffffff1660e01b8152600401610e6c9190611396565b60206040518083038186803b158015610e8457600080fd5b505afa158015610e98573d6000803e3d6000fd5b505050506040513d601f19601f82011682018060405250810190610ebc9190611217565b9050919050565b828054610ecf906116e6565b90600052602060002090601f016020900481019282610ef15760008555610f38565b82601f10610f0a57805160ff1916838001178555610f38565b82800160010185558215610f38579182015b82811115610f37578251825591602001919060010190610f1c565b5b509050610f459190610f49565b5090565b5b80821115610f62576000816000905550600101610f4a565b5090565b6000610f79610f7484611565565b611540565b905082815260208101848484011115610f9157600080fd5b610f9c8482856116a4565b509392505050565b600081359050610fb3816118ab565b92915050565b600081519050610fc8816118c2565b92915050565b600082601f830112610fdf57600080fd5b8135610fef848260208601610f66565b91505092915050565b600081359050611007816118d9565b92915050565b60008151905061101c816118d9565b92915050565b60006020828403121561103457600080fd5b600061104284828501610fa4565b91505092915050565b6000806040838503121561105e57600080fd5b600061106c85828601610fa4565b925050602061107d85828601610ff8565b9150509250929050565b60006020828403121561109957600080fd5b60006110a784828501610fb9565b91505092915050565b600080600080600060a086880312156110c857600080fd5b600086013567ffffffffffffffff8111156110e257600080fd5b6110ee88828901610fce565b955050602086013567ffffffffffffffff81111561110b57600080fd5b61111788828901610fce565b945050604086013567ffffffffffffffff81111561113457600080fd5b61114088828901610fce565b935050606086013567ffffffffffffffff81111561115d57600080fd5b61116988828901610fce565b925050608061117a88828901610ff8565b9150509295509295909350565b60008060006060848603121561119c57600080fd5b600084013567ffffffffffffffff8111156111b657600080fd5b6111c286828701610fce565b93505060206111d386828701610ff8565b92505060406111e486828701610ff8565b9150509250925092565b60006020828403121561120057600080fd5b600061120e84828501610ff8565b91505092915050565b60006020828403121561122957600080fd5b60006112378482850161100d565b91505092915050565b6112498161165c565b82525050565b600061125a826115ab565b61126481856115b6565b93506112748185602086016116b3565b61127d8161181f565b840191505092915050565b60008154611295816116e6565b61129f81866115c7565b945060018216600081146112ba57600181146112cb576112fe565b60ff198316865281860193506112fe565b6112d485611596565b60005b838110156112f6578154818901526001820191506020810190506112d7565b838801955050505b50505092915050565b6000611314601e836115b6565b915061131f82611830565b602082019050919050565b60006113376018836115b6565b915061134282611859565b602082019050919050565b600061135a6020836115b6565b915061136582611882565b602082019050919050565b6113798161169a565b82525050565b600061138b8284611288565b915081905092915050565b60006020820190506113ab6000830184611240565b92915050565b60006060820190506113c66000830186611240565b6113d36020830185611240565b6113e06040830184611370565b949350505050565b60006040820190506113fd6000830185611240565b61140a6020830184611370565b9392505050565b6000602082019050818103600083015261142b818461124f565b905092915050565b6000602082019050818103600083015261144c81611307565b9050919050565b6000602082019050818103600083015261146c8161132a565b9050919050565b6000602082019050818103600083015261148c8161134d565b9050919050565b60006020820190506114a86000830184611370565b92915050565b600060e0820190506114c3600083018a611370565b81810360208301526114d5818961124f565b905081810360408301526114e9818861124f565b905081810360608301526114fd818761124f565b90508181036080830152611511818661124f565b905061152060a0830185611370565b81810360c0830152611532818461124f565b905098975050505050505050565b600061154a61155b565b90506115568282611718565b919050565b6000604051905090565b600067ffffffffffffffff8211156115805761157f6117f0565b5b6115898261181f565b9050602081019050919050565b60008190508160005260206000209050919050565b600081519050919050565b600082825260208201905092915050565b600081905092915050565b60006115dd8261169a565b91506115e88361169a565b9250827fffffffffffffffffffffffffffffffffffffffffffffffffffffffffffffffff0382111561161d5761161c611792565b5b828201905092915050565b60006116338261169a565b915061163e8361169a565b92508282101561165157611650611792565b5b828203905092915050565b60006116678261167a565b9050919050565b60008115159050919050565b600073ffffffffffffffffffffffffffffffffffffffff82169050919050565b6000819050919050565b82818337600083830152505050565b60005b838110156116d15780820151818401526020810190506116b6565b838111156116e0576000848401525b50505050565b600060028204905060018216806116fe57607f821691505b60208210811415611712576117116117c1565b5b50919050565b6117218261181f565b810181811067ffffffffffffffff821117156117405761173f6117f0565b5b80604052505050565b60006117548261169a565b91507fffffffffffffffffffffffffffffffffffffffffffffffffffffffffffffffff82141561178757611786611792565b5b600182019050919050565b7f4e487b7100000000000000000000000000000000000000000000000000000000600052601160045260246000fd5b7f4e487b7100000000000000000000000000000000000000000000000000000000600052602260045260246000fd5b7f4e487b7100000000000000000000000000000000000000000000000000000000600052604160045260246000fd5b6000601f19601f8301169050919050565b7f41206d696e696d756d206f662031304441492069732072657175697265640000600082015250565b7f416464726573732030206973206e6f7420616c6c6f7765640000000000000000600082015250565b7f5f64617465206d757374206265203e3d2031207765656b2066726f6d206e6f77600082015250565b6118b48161165c565b81146118bf57600080fd5b50565b6118cb8161166e565b81146118d657600080fd5b50565b6118e28161169a565b81146118ed57600080fd5b5056fea264697066735822122063907d2751796063e6f38172565d8f81d7f1ab12052f7c7ac74955728659017964736f6c63430008030033",
  "immutableReferences": {},
  "source": "// SPDX-License-Identifier: MIT\npragma solidity 0.8.3;\n\nimport \"@openzeppelin/contracts/token/ERC20/IERC20.sol\";\n\ncontract Play {\n\n    IERC20 Dai;\n\n    /**\n     * @dev list of all bets per player, ie. a map composed (player address => bet id) pairs\n     */\n\n    mapping(address => uint[]) public betsPerPlayer;\n\n    /**\n     * @dev list of all chosenWinner per match per user, ie. a map composed (player address => (event id => chosen winner)) pairs\n     */\n    mapping(address => mapping(uint => string)) public chosenWinner;\n\n    /**\n    * @dev list of earnings per match per player, ie. a map composed (player address => (event id => bet amount)) pairs\n    */\n    mapping(address => mapping(uint => uint)) public playerEarnings;\n\n    uint public eventCount = 0;\n\n    mapping(uint => SportEvent) public sportEvents;\n\n    struct SportEvent {\n        uint         eventId;\n        string       fileHash;\n        string       description;\n        string       teamA;\n        string       teamB;\n        uint         date;\n        string       winner;\n    }\n\n    constructor(address _tokenAddress) {\n        Dai = IERC20(_tokenAddress);\n    }\n\n    function addSportEvent(\n        string memory _fileHash,\n        string memory _description,\n        string memory _teamA,\n        string memory _teamB,\n        uint          _date\n    ) public\n    {\n\n        require(_date >= block.timestamp + 1 weeks, \"_date must be >= 1 week from now\");\n\n        //Increment sport event\n        eventCount ++;\n\n        // Add the sport event\n        /* sportEvents.push(SportEvent(_name, _teamA, _teamB, _date, _teamA));*/\n        sportEvents[eventCount] = SportEvent(eventCount, _fileHash, _description, _teamA, _teamB, _date, _teamA);\n    }\n\n    function getWinner(uint _eventId) public view returns (string memory) {\n        return sportEvents[_eventId].winner;\n    }\n\n    // TO DO: throw an error if already played for an event\n    function bet(string memory _winner, uint _amount, uint eventId) public {\n        require(_amount >= 10, \"A minimum of 10DAI is required\");\n        // Deposit Dai\n        Dai.transferFrom(msg.sender, address(this), _amount);\n\n        // Add chosen winner per player per match\n        chosenWinner[msg.sender][eventCount] = _winner;\n\n        // TO DO: Check if works\n        betsPerPlayer[msg.sender].push(eventId);\n    }\n\n    function checkEarnings(uint _eventId) public returns(uint) {\n        if (keccak256(abi.encodePacked(sportEvents[_eventId].winner)) == keccak256(abi.encodePacked(chosenWinner[msg.sender][_eventId]))) {\n            playerEarnings[msg.sender][_eventId] += 10;\n            return 10;\n        } else {\n            return 0;\n        }\n    }\n\n    function withdraw(address _player, uint _eventId) public {\n        require(_player != address(0), \"Address 0 is not allowed\");\n        if (playerEarnings[msg.sender][_eventId] > 0) {\n            Dai.transfer(_player, playerEarnings[msg.sender][_eventId]);\n        }\n\n        playerEarnings[msg.sender][_eventId] -= 10;\n    }\n\n\n    function getBalance(address _balance) public view returns (uint) {\n        require(_balance != address(0), \"Address 0 is not allowed\");\n        return Dai.balanceOf(_balance);\n\n    }\n\n}\n\n",
  "sourcePath": "/Users/eric/dev/alyra/project/bet-no-loss/contracts/Play.sol",
  "compiler": {
    "name": "solc",
    "version": "0.8.3+commit.8d00100c.Emscripten.clang"
  },
  "schemaVersion": "3.3.4",
  "updatedAt": "2021-05-02T14:53:01.011Z",
  "networkType": "ethereum",
  "devdoc": {
    "kind": "dev",
    "methods": {},
    "stateVariables": {
      "betsPerPlayer": {
        "details": "list of all bets per player, ie. a map composed (player address => bet id) pairs"
      },
      "chosenWinner": {
        "details": "list of all chosenWinner per match per user, ie. a map composed (player address => (event id => chosen winner)) pairs"
      },
      "playerEarnings": {
        "details": "list of earnings per match per player, ie. a map composed (player address => (event id => bet amount)) pairs"
      }
    },
    "version": 1
  },
  "userdoc": {
    "kind": "user",
    "methods": {},
    "version": 1
  }
}