{
  "contractName": "Play",
  "abi": [
    {
      "inputs": [
        {
          "internalType": "address",
          "name": "_tokenAddress",
          "type": "address"
        }
      ],
      "stateMutability": "nonpayable",
      "type": "constructor"
    },
    {
      "inputs": [],
      "name": "eventCount",
      "outputs": [
        {
          "internalType": "uint256",
          "name": "",
          "type": "uint256"
        }
      ],
      "stateMutability": "view",
      "type": "function",
      "constant": true
    },
    {
      "inputs": [
        {
          "internalType": "uint256",
          "name": "",
          "type": "uint256"
        }
      ],
      "name": "sportEvents",
      "outputs": [
        {
          "internalType": "uint256",
          "name": "eventId",
          "type": "uint256"
        },
        {
          "internalType": "string",
          "name": "fileHash",
          "type": "string"
        },
        {
          "internalType": "string",
          "name": "description",
          "type": "string"
        },
        {
          "internalType": "string",
          "name": "teamA",
          "type": "string"
        },
        {
          "internalType": "string",
          "name": "teamB",
          "type": "string"
        },
        {
          "internalType": "uint256",
          "name": "date",
          "type": "uint256"
        },
        {
          "internalType": "string",
          "name": "winner",
          "type": "string"
        }
      ],
      "stateMutability": "view",
      "type": "function",
      "constant": true
    },
    {
      "inputs": [
        {
          "internalType": "uint256",
          "name": "",
          "type": "uint256"
        }
      ],
      "name": "teamBetByPlayer",
      "outputs": [
        {
          "internalType": "string",
          "name": "",
          "type": "string"
        }
      ],
      "stateMutability": "view",
      "type": "function",
      "constant": true
    },
    {
      "inputs": [
        {
          "internalType": "address",
          "name": "",
          "type": "address"
        }
      ],
      "name": "userBalance",
      "outputs": [
        {
          "internalType": "uint256",
          "name": "",
          "type": "uint256"
        }
      ],
      "stateMutability": "view",
      "type": "function",
      "constant": true
    },
    {
      "inputs": [
        {
          "internalType": "string",
          "name": "_world",
          "type": "string"
        }
      ],
      "name": "setString",
      "outputs": [],
      "stateMutability": "nonpayable",
      "type": "function"
    },
    {
      "inputs": [],
      "name": "getString",
      "outputs": [
        {
          "internalType": "string",
          "name": "",
          "type": "string"
        }
      ],
      "stateMutability": "view",
      "type": "function",
      "constant": true
    },
    {
      "inputs": [
        {
          "internalType": "uint256",
          "name": "_amount",
          "type": "uint256"
        },
        {
          "internalType": "address",
          "name": "_sender",
          "type": "address"
        }
      ],
      "name": "deposit",
      "outputs": [],
      "stateMutability": "payable",
      "type": "function",
      "payable": true
    },
    {
      "inputs": [
        {
          "internalType": "string",
          "name": "_fileHash",
          "type": "string"
        },
        {
          "internalType": "string",
          "name": "_description",
          "type": "string"
        },
        {
          "internalType": "string",
          "name": "_teamA",
          "type": "string"
        },
        {
          "internalType": "string",
          "name": "_teamB",
          "type": "string"
        },
        {
          "internalType": "uint256",
          "name": "_date",
          "type": "uint256"
        }
      ],
      "name": "addSportEvent",
      "outputs": [],
      "stateMutability": "nonpayable",
      "type": "function"
    },
    {
      "inputs": [
        {
          "internalType": "uint256",
          "name": "_eventId",
          "type": "uint256"
        }
      ],
      "name": "getWinner",
      "outputs": [
        {
          "internalType": "string",
          "name": "",
          "type": "string"
        }
      ],
      "stateMutability": "view",
      "type": "function",
      "constant": true
    },
    {
      "inputs": [
        {
          "internalType": "string",
          "name": "_winner",
          "type": "string"
        },
        {
          "internalType": "uint256",
          "name": "_amount",
          "type": "uint256"
        }
      ],
      "name": "bet",
      "outputs": [
        {
          "internalType": "bool",
          "name": "",
          "type": "bool"
        }
      ],
      "stateMutability": "nonpayable",
      "type": "function"
    },
    {
      "inputs": [
        {
          "internalType": "address",
          "name": "_user",
          "type": "address"
        }
      ],
      "name": "withdraw",
      "outputs": [],
      "stateMutability": "payable",
      "type": "function",
      "payable": true
    }
  ],
  "bytecode": "0x608060405260006004553480156200001657600080fd5b506040516200191c3803806200191c83398181016040528101906200003c91906200009a565b806000806101000a81548173ffffffffffffffffffffffffffffffffffffffff021916908373ffffffffffffffffffffffffffffffffffffffff1602179055505062000114565b6000815190506200009481620000fa565b92915050565b600060208284031215620000ad57600080fd5b6000620000bd8482850162000083565b91505092915050565b6000620000d382620000da565b9050919050565b600073ffffffffffffffffffffffffffffffffffffffff82169050919050565b6200010581620000c6565b81146200011157600080fd5b50565b6117f880620001246000396000f3fe60806040526004361061009c5760003560e01c80636e553f65116100645780636e553f65146101a357806371be2e4a146101bf5780637fcaf666146101ea57806389ea642f14610213578063e9c20cb91461023e578063ed715ddb1461027b5761009c565b80630103c92b146100a157806316983620146100de5780634129b2c91461010757806351cff8d9146101445780635764127e14610160575b600080fd5b3480156100ad57600080fd5b506100c860048036038101906100c39190610f04565b6102b8565b6040516100d5919061138e565b60405180910390f35b3480156100ea57600080fd5b5061010560048036038101906101009190610f97565b6102d0565b005b34801561011357600080fd5b5061012e600480360381019061012991906110c2565b610432565b60405161013b919061132c565b60405180910390f35b61015e60048036038101906101599190610f04565b6104da565b005b34801561016c57600080fd5b50610187600480360381019061018291906110c2565b61072c565b60405161019a97969594939291906113a9565b60405180910390f35b6101bd60048036038101906101b891906110eb565b610a16565b005b3480156101cb57600080fd5b506101d4610b0e565b6040516101e1919061138e565b60405180910390f35b3480156101f657600080fd5b50610211600480360381019061020c9190610f56565b610b14565b005b34801561021f57600080fd5b50610228610b2e565b604051610235919061132c565b60405180910390f35b34801561024a57600080fd5b506102656004803603810190610260919061106e565b610bc0565b6040516102729190611311565b60405180910390f35b34801561028757600080fd5b506102a2600480360381019061029d91906110c2565b610d1a565b6040516102af919061132c565b60405180910390f35b60016020528060005260406000206000915090505481565b62093a80426102df91906114cd565b811015610321576040517f08c379a00000000000000000000000000000000000000000000000000000000081526004016103189061136e565b60405180910390fd5b6004600081548092919061033490611644565b91905055506040518060e001604052806004548152602001868152602001858152602001848152602001838152602001828152602001848152506005600060045481526020019081526020016000206000820151816000015560208201518160010190805190602001906103a9929190610dba565b5060408201518160020190805190602001906103c6929190610dba565b5060608201518160030190805190602001906103e3929190610dba565b506080820151816004019080519060200190610400929190610dba565b5060a0820151816005015560c0820151816006019080519060200190610427929190610dba565b509050505050505050565b6060600560008381526020019081526020016000206006018054610455906115e1565b80601f0160208091040260200160405190810160405280929190818152602001828054610481906115e1565b80156104ce5780601f106104a3576101008083540402835291602001916104ce565b820191906000526020600020905b8154815290600101906020018083116104b157829003601f168201915b50505050509050919050565b6000600160008373ffffffffffffffffffffffffffffffffffffffff1673ffffffffffffffffffffffffffffffffffffffff168152602001908152602001600020549050600a600160008473ffffffffffffffffffffffffffffffffffffffff1673ffffffffffffffffffffffffffffffffffffffff1681526020019081526020016000205461056a91906114cd565b600160008473ffffffffffffffffffffffffffffffffffffffff1673ffffffffffffffffffffffffffffffffffffffff1681526020019081526020016000208190555060008054906101000a900473ffffffffffffffffffffffffffffffffffffffff1673ffffffffffffffffffffffffffffffffffffffff1663a9059cbb83600160008673ffffffffffffffffffffffffffffffffffffffff1673ffffffffffffffffffffffffffffffffffffffff168152602001908152602001600020546040518363ffffffff1660e01b81526004016106479291906112e8565b602060405180830381600087803b15801561066157600080fd5b505af1158015610675573d6000803e3d6000fd5b505050506040513d601f19601f820116820180604052508101906106999190610f2d565b5080600160008473ffffffffffffffffffffffffffffffffffffffff1673ffffffffffffffffffffffffffffffffffffffff168152602001908152602001600020546106e59190611523565b600160008473ffffffffffffffffffffffffffffffffffffffff1673ffffffffffffffffffffffffffffffffffffffff168152602001908152602001600020819055505050565b6005602052806000526040600020600091509050806000015490806001018054610755906115e1565b80601f0160208091040260200160405190810160405280929190818152602001828054610781906115e1565b80156107ce5780601f106107a3576101008083540402835291602001916107ce565b820191906000526020600020905b8154815290600101906020018083116107b157829003601f168201915b5050505050908060020180546107e3906115e1565b80601f016020809104026020016040519081016040528092919081815260200182805461080f906115e1565b801561085c5780601f106108315761010080835404028352916020019161085c565b820191906000526020600020905b81548152906001019060200180831161083f57829003601f168201915b505050505090806003018054610871906115e1565b80601f016020809104026020016040519081016040528092919081815260200182805461089d906115e1565b80156108ea5780601f106108bf576101008083540402835291602001916108ea565b820191906000526020600020905b8154815290600101906020018083116108cd57829003601f168201915b5050505050908060040180546108ff906115e1565b80601f016020809104026020016040519081016040528092919081815260200182805461092b906115e1565b80156109785780601f1061094d57610100808354040283529160200191610978565b820191906000526020600020905b81548152906001019060200180831161095b57829003601f168201915b505050505090806005015490806006018054610993906115e1565b80601f01602080910402602001604051908101604052809291908181526020018280546109bf906115e1565b8015610a0c5780601f106109e157610100808354040283529160200191610a0c565b820191906000526020600020905b8154815290600101906020018083116109ef57829003601f168201915b5050505050905087565b600a821015610a5a576040517f08c379a0000000000000000000000000000000000000000000000000000000008152600401610a519061134e565b60405180910390fd5b60008054906101000a900473ffffffffffffffffffffffffffffffffffffffff1673ffffffffffffffffffffffffffffffffffffffff166323b872dd8230856040518463ffffffff1660e01b8152600401610ab7939291906112b1565b602060405180830381600087803b158015610ad157600080fd5b505af1158015610ae5573d6000803e3d6000fd5b505050506040513d601f19601f82011682018060405250810190610b099190610f2d565b505050565b60045481565b8060039080519060200190610b2a929190610dba565b5050565b606060038054610b3d906115e1565b80601f0160208091040260200160405190810160405280929190818152602001828054610b69906115e1565b8015610bb65780601f10610b8b57610100808354040283529160200191610bb6565b820191906000526020600020905b815481529060010190602001808311610b9957829003601f168201915b5050505050905090565b60008060009054906101000a900473ffffffffffffffffffffffffffffffffffffffff1673ffffffffffffffffffffffffffffffffffffffff166323b872dd3330856040518463ffffffff1660e01b8152600401610c20939291906112b1565b602060405180830381600087803b158015610c3a57600080fd5b505af1158015610c4e573d6000803e3d6000fd5b505050506040513d601f19601f82011682018060405250810190610c729190610f2d565b50826002600060045481526020019081526020016000209080519060200190610c9c929190610dba565b5060056000808152602001908152602001600020600601604051602001610cc3919061129a565b6040516020818303038152906040528051906020012083604051602001610cea9190611283565b604051602081830303815290604052805190602001201415610d0f5760019050610d14565b600090505b92915050565b60026020528060005260406000206000915090508054610d39906115e1565b80601f0160208091040260200160405190810160405280929190818152602001828054610d65906115e1565b8015610db25780601f10610d8757610100808354040283529160200191610db2565b820191906000526020600020905b815481529060010190602001808311610d9557829003601f168201915b505050505081565b828054610dc6906115e1565b90600052602060002090601f016020900481019282610de85760008555610e2f565b82601f10610e0157805160ff1916838001178555610e2f565b82800160010185558215610e2f579182015b82811115610e2e578251825591602001919060010190610e13565b5b509050610e3c9190610e40565b5090565b5b80821115610e59576000816000905550600101610e41565b5090565b6000610e70610e6b84611460565b61143b565b905082815260208101848484011115610e8857600080fd5b610e9384828561159f565b509392505050565b600081359050610eaa8161177d565b92915050565b600081519050610ebf81611794565b92915050565b600082601f830112610ed657600080fd5b8135610ee6848260208601610e5d565b91505092915050565b600081359050610efe816117ab565b92915050565b600060208284031215610f1657600080fd5b6000610f2484828501610e9b565b91505092915050565b600060208284031215610f3f57600080fd5b6000610f4d84828501610eb0565b91505092915050565b600060208284031215610f6857600080fd5b600082013567ffffffffffffffff811115610f8257600080fd5b610f8e84828501610ec5565b91505092915050565b600080600080600060a08688031215610faf57600080fd5b600086013567ffffffffffffffff811115610fc957600080fd5b610fd588828901610ec5565b955050602086013567ffffffffffffffff811115610ff257600080fd5b610ffe88828901610ec5565b945050604086013567ffffffffffffffff81111561101b57600080fd5b61102788828901610ec5565b935050606086013567ffffffffffffffff81111561104457600080fd5b61105088828901610ec5565b925050608061106188828901610eef565b9150509295509295909350565b6000806040838503121561108157600080fd5b600083013567ffffffffffffffff81111561109b57600080fd5b6110a785828601610ec5565b92505060206110b885828601610eef565b9150509250929050565b6000602082840312156110d457600080fd5b60006110e284828501610eef565b91505092915050565b600080604083850312156110fe57600080fd5b600061110c85828601610eef565b925050602061111d85828601610e9b565b9150509250929050565b61113081611557565b82525050565b61113f81611569565b82525050565b6000611150826114a6565b61115a81856114b1565b935061116a8185602086016115ae565b6111738161171a565b840191505092915050565b6000611189826114a6565b61119381856114c2565b93506111a38185602086016115ae565b80840191505092915050565b600081546111bc816115e1565b6111c681866114c2565b945060018216600081146111e157600181146111f257611225565b60ff19831686528186019350611225565b6111fb85611491565b60005b8381101561121d578154818901526001820191506020810190506111fe565b838801955050505b50505092915050565b600061123b6020836114b1565b91506112468261172b565b602082019050919050565b600061125e6020836114b1565b915061126982611754565b602082019050919050565b61127d81611595565b82525050565b600061128f828461117e565b915081905092915050565b60006112a682846111af565b915081905092915050565b60006060820190506112c66000830186611127565b6112d36020830185611127565b6112e06040830184611274565b949350505050565b60006040820190506112fd6000830185611127565b61130a6020830184611274565b9392505050565b60006020820190506113266000830184611136565b92915050565b600060208201905081810360008301526113468184611145565b905092915050565b600060208201905081810360008301526113678161122e565b9050919050565b6000602082019050818103600083015261138781611251565b9050919050565b60006020820190506113a36000830184611274565b92915050565b600060e0820190506113be600083018a611274565b81810360208301526113d08189611145565b905081810360408301526113e48188611145565b905081810360608301526113f88187611145565b9050818103608083015261140c8186611145565b905061141b60a0830185611274565b81810360c083015261142d8184611145565b905098975050505050505050565b6000611445611456565b90506114518282611613565b919050565b6000604051905090565b600067ffffffffffffffff82111561147b5761147a6116eb565b5b6114848261171a565b9050602081019050919050565b60008190508160005260206000209050919050565b600081519050919050565b600082825260208201905092915050565b600081905092915050565b60006114d882611595565b91506114e383611595565b9250827fffffffffffffffffffffffffffffffffffffffffffffffffffffffffffffffff038211156115185761151761168d565b5b828201905092915050565b600061152e82611595565b915061153983611595565b92508282101561154c5761154b61168d565b5b828203905092915050565b600061156282611575565b9050919050565b60008115159050919050565b600073ffffffffffffffffffffffffffffffffffffffff82169050919050565b6000819050919050565b82818337600083830152505050565b60005b838110156115cc5780820151818401526020810190506115b1565b838111156115db576000848401525b50505050565b600060028204905060018216806115f957607f821691505b6020821081141561160d5761160c6116bc565b5b50919050565b61161c8261171a565b810181811067ffffffffffffffff8211171561163b5761163a6116eb565b5b80604052505050565b600061164f82611595565b91507fffffffffffffffffffffffffffffffffffffffffffffffffffffffffffffffff8214156116825761168161168d565b5b600182019050919050565b7f4e487b7100000000000000000000000000000000000000000000000000000000600052601160045260246000fd5b7f4e487b7100000000000000000000000000000000000000000000000000000000600052602260045260246000fd5b7f4e487b7100000000000000000000000000000000000000000000000000000000600052604160045260246000fd5b6000601f19601f8301169050919050565b7f4572726f722c206465706f736974206d757374206265203e3d20313020444149600082015250565b7f5f64617465206d757374206265203e3d2031207765656b2066726f6d206e6f77600082015250565b61178681611557565b811461179157600080fd5b50565b61179d81611569565b81146117a857600080fd5b50565b6117b481611595565b81146117bf57600080fd5b5056fea264697066735822122028c0cdcd140a260b82734f8a8efdfaa1f07d3f30f715368af8463add7b0e248d64736f6c63430008030033",
  "immutableReferences": {},
  "source": "// SPDX-License-Identifier: MIT\npragma solidity 0.8.3;\n\nimport \"@openzeppelin/contracts/token/ERC20/IERC20.sol\";\n\ncontract Play {\n\n    IERC20 Dai;\n\n    /**\n     * @dev Balance of each user address\n     */\n    mapping(address => uint256) public userBalance;\n\n    mapping(uint => string) public teamBetByPlayer;\n\n    string temporary;\n\n    uint public eventCount = 0;\n    mapping(uint => SportEvent) public sportEvents;\n\n    struct SportEvent {\n        uint         eventId;\n        string       fileHash;\n        string       description;\n        string       teamA;\n        string       teamB;\n        uint         date;\n        /*uint         uploadTime;*/\n        string       winner;\n        /*address payable uploader;*/\n    }\n\n    constructor(address _tokenAddress) {\n        Dai = IERC20(_tokenAddress);\n    }\n\n    function setString(string memory _world) public {\n        temporary = _world;\n    }\n\n    function getString() public view returns (string memory){\n        return temporary;\n    }\n\n    function deposit(uint _amount, address _sender) public payable {\n        require(_amount >= 10, \"Error, deposit must be >= 10 DAI\");\n\n        Dai.transferFrom(_sender, address(this), _amount);\n    }\n\n    function addSportEvent(\n        string memory _fileHash,\n        string memory _description,\n        string memory _teamA,\n        string memory _teamB,\n        uint          _date\n    ) public\n    {\n\n        require(_date >= block.timestamp + 1 weeks, \"_date must be >= 1 week from now\");\n\n        //Increment sport event\n        eventCount ++;\n\n        // Add the sport event\n        /* sportEvents.push(SportEvent(_name, _teamA, _teamB, _date, _teamA));*/\n        sportEvents[eventCount] = SportEvent(eventCount, _fileHash, _description, _teamA, _teamB, _date, _teamA);\n    }\n\n    function getWinner(uint _eventId) public view returns (string memory) {\n        return sportEvents[_eventId].winner;\n    }\n\n\n    function bet(string memory _winner, uint _amount) public returns (bool) {\n        // Deposit Dai\n        Dai.transferFrom(msg.sender, address(this), _amount);\n\n        // Get team bet by Player\n        teamBetByPlayer[eventCount] = _winner;\n\n        if (keccak256(abi.encodePacked(_winner)) == keccak256(abi.encodePacked(sportEvents[0].winner))) {\n            return true;\n        } else {\n            return false;\n        }\n    }\n\n    function withdraw(address _user) public payable {\n        uint initialUserBalance = userBalance[_user];\n        userBalance[_user] = userBalance[_user] + 10;\n        Dai.transfer(_user, userBalance[_user]);\n        userBalance[_user] = userBalance[_user] - initialUserBalance;\n    }\n\n}",
  "sourcePath": "/Users/Lidmi/Desktop/Alyra/ProjetFinal/BetNoLoss/bet-no-loss/contracts/Play.sol",
  "compiler": {
    "name": "solc",
    "version": "0.8.3+commit.8d00100c.Emscripten.clang"
  },
  "schemaVersion": "3.3.4",
  "updatedAt": "2021-04-27T09:11:15.163Z",
  "networkType": "ethereum",
  "devdoc": {
    "kind": "dev",
    "methods": {},
    "stateVariables": {
      "userBalance": {
        "details": "Balance of each user address"
      }
    },
    "version": 1
  },
  "userdoc": {
    "kind": "user",
    "methods": {},
    "version": 1
  }
}