{
  "contractName": "Play",
  "abi": [
    {
      "inputs": [
        {
          "internalType": "address",
          "name": "_tokenAddress",
          "type": "address"
        }
      ],
      "stateMutability": "nonpayable",
      "type": "constructor"
    },
    {
      "inputs": [
        {
          "internalType": "address",
          "name": "",
          "type": "address"
        },
        {
          "internalType": "uint256",
          "name": "",
          "type": "uint256"
        }
      ],
      "name": "chosenWinner",
      "outputs": [
        {
          "internalType": "string",
          "name": "",
          "type": "string"
        }
      ],
      "stateMutability": "view",
      "type": "function",
      "constant": true
    },
    {
      "inputs": [],
      "name": "eventCount",
      "outputs": [
        {
          "internalType": "uint256",
          "name": "",
          "type": "uint256"
        }
      ],
      "stateMutability": "view",
      "type": "function",
      "constant": true
    },
    {
      "inputs": [
        {
          "internalType": "address",
          "name": "",
          "type": "address"
        },
        {
          "internalType": "uint256",
          "name": "",
          "type": "uint256"
        }
      ],
      "name": "playerEarnings",
      "outputs": [
        {
          "internalType": "uint256",
          "name": "",
          "type": "uint256"
        }
      ],
      "stateMutability": "view",
      "type": "function",
      "constant": true
    },
    {
      "inputs": [
        {
          "internalType": "uint256",
          "name": "",
          "type": "uint256"
        }
      ],
      "name": "sportEvents",
      "outputs": [
        {
          "internalType": "uint256",
          "name": "eventId",
          "type": "uint256"
        },
        {
          "internalType": "string",
          "name": "fileHash",
          "type": "string"
        },
        {
          "internalType": "string",
          "name": "description",
          "type": "string"
        },
        {
          "internalType": "string",
          "name": "teamA",
          "type": "string"
        },
        {
          "internalType": "string",
          "name": "teamB",
          "type": "string"
        },
        {
          "internalType": "uint256",
          "name": "date",
          "type": "uint256"
        },
        {
          "internalType": "string",
          "name": "winner",
          "type": "string"
        }
      ],
      "stateMutability": "view",
      "type": "function",
      "constant": true
    },
    {
      "inputs": [
        {
          "internalType": "uint256",
          "name": "_amount",
          "type": "uint256"
        },
        {
          "internalType": "address",
          "name": "_sender",
          "type": "address"
        }
      ],
      "name": "deposit",
      "outputs": [],
      "stateMutability": "payable",
      "type": "function",
      "payable": true
    },
    {
      "inputs": [
        {
          "internalType": "string",
          "name": "_fileHash",
          "type": "string"
        },
        {
          "internalType": "string",
          "name": "_description",
          "type": "string"
        },
        {
          "internalType": "string",
          "name": "_teamA",
          "type": "string"
        },
        {
          "internalType": "string",
          "name": "_teamB",
          "type": "string"
        },
        {
          "internalType": "uint256",
          "name": "_date",
          "type": "uint256"
        }
      ],
      "name": "addSportEvent",
      "outputs": [],
      "stateMutability": "nonpayable",
      "type": "function"
    },
    {
      "inputs": [
        {
          "internalType": "uint256",
          "name": "_eventId",
          "type": "uint256"
        }
      ],
      "name": "getWinner",
      "outputs": [
        {
          "internalType": "string",
          "name": "",
          "type": "string"
        }
      ],
      "stateMutability": "view",
      "type": "function",
      "constant": true
    },
    {
      "inputs": [
        {
          "internalType": "uint256",
          "name": "_eventId",
          "type": "uint256"
        }
      ],
      "name": "checkEarnings",
      "outputs": [
        {
          "internalType": "uint256",
          "name": "",
          "type": "uint256"
        }
      ],
      "stateMutability": "nonpayable",
      "type": "function"
    },
    {
      "inputs": [
        {
          "internalType": "address",
          "name": "_player",
          "type": "address"
        },
        {
          "internalType": "uint256",
          "name": "_eventId",
          "type": "uint256"
        }
      ],
      "name": "withdraw",
      "outputs": [],
      "stateMutability": "nonpayable",
      "type": "function"
    }
  ],
  "bytecode": "0x608060405260006004553480156200001657600080fd5b50604051620017623803806200176283398181016040528101906200003c91906200009a565b806000806101000a81548173ffffffffffffffffffffffffffffffffffffffff021916908373ffffffffffffffffffffffffffffffffffffffff1602179055505062000114565b6000815190506200009481620000fa565b92915050565b600060208284031215620000ad57600080fd5b6000620000bd8482850162000083565b91505092915050565b6000620000d382620000da565b9050919050565b600073ffffffffffffffffffffffffffffffffffffffff82169050919050565b6200010581620000c6565b81146200011157600080fd5b50565b61163e80620001246000396000f3fe6080604052600436106100865760003560e01c80636e553f65116100595780636e553f651461017157806371be2e4a1461018d578063a4f84a63146101b8578063db7e0e5a146101f5578063f3fef3a31461023257610086565b8063169836201461008b5780632c000da8146100b45780634129b2c9146100f15780635764127e1461012e575b600080fd5b34801561009757600080fd5b506100b260048036038101906100ad9190610e37565b61025b565b005b3480156100c057600080fd5b506100db60048036038101906100d69190610f0e565b6103bd565b6040516100e891906111ab565b60405180910390f35b3480156100fd57600080fd5b5061011860048036038101906101139190610f0e565b6104f2565b6040516101259190611129565b60405180910390f35b34801561013a57600080fd5b5061015560048036038101906101509190610f0e565b61059a565b60405161016897969594939291906111c6565b60405180910390f35b61018b60048036038101906101869190610f37565b610884565b005b34801561019957600080fd5b506101a261097c565b6040516101af91906111ab565b60405180910390f35b3480156101c457600080fd5b506101df60048036038101906101da9190610dd2565b610982565b6040516101ec91906111ab565b60405180910390f35b34801561020157600080fd5b5061021c60048036038101906102179190610dd2565b6109a7565b6040516102299190611129565b60405180910390f35b34801561023e57600080fd5b5061025960048036038101906102549190610dd2565b610a54565b005b62093a804261026a91906112ea565b8110156102ac576040517f08c379a00000000000000000000000000000000000000000000000000000000081526004016102a39061118b565b60405180910390fd5b600460008154809291906102bf90611461565b91905055506040518060e00160405280600454815260200186815260200185815260200184815260200183815260200182815260200184815250600560006004548152602001908152602001600020600082015181600001556020820151816001019080519060200190610334929190610c88565b506040820151816002019080519060200190610351929190610c88565b50606082015181600301908051906020019061036e929190610c88565b50608082015181600401908051906020019061038b929190610c88565b5060a0820151816005015560c08201518160060190805190602001906103b2929190610c88565b509050505050505050565b6000600260003373ffffffffffffffffffffffffffffffffffffffff1673ffffffffffffffffffffffffffffffffffffffff168152602001908152602001600020600083815260200190815260200160002060405160200161041f91906110b2565b604051602081830303815290604052805190602001206005600084815260200190815260200160002060060160405160200161045b91906110b2565b6040516020818303038152906040528051906020012014156104e857600a600360003373ffffffffffffffffffffffffffffffffffffffff1673ffffffffffffffffffffffffffffffffffffffff168152602001908152602001600020600084815260200190815260200160002060008282546104d891906112ea565b92505081905550600a90506104ed565b600090505b919050565b6060600560008381526020019081526020016000206006018054610515906113fe565b80601f0160208091040260200160405190810160405280929190818152602001828054610541906113fe565b801561058e5780601f106105635761010080835404028352916020019161058e565b820191906000526020600020905b81548152906001019060200180831161057157829003601f168201915b50505050509050919050565b60056020528060005260406000206000915090508060000154908060010180546105c3906113fe565b80601f01602080910402602001604051908101604052809291908181526020018280546105ef906113fe565b801561063c5780601f106106115761010080835404028352916020019161063c565b820191906000526020600020905b81548152906001019060200180831161061f57829003601f168201915b505050505090806002018054610651906113fe565b80601f016020809104026020016040519081016040528092919081815260200182805461067d906113fe565b80156106ca5780601f1061069f576101008083540402835291602001916106ca565b820191906000526020600020905b8154815290600101906020018083116106ad57829003601f168201915b5050505050908060030180546106df906113fe565b80601f016020809104026020016040519081016040528092919081815260200182805461070b906113fe565b80156107585780601f1061072d57610100808354040283529160200191610758565b820191906000526020600020905b81548152906001019060200180831161073b57829003601f168201915b50505050509080600401805461076d906113fe565b80601f0160208091040260200160405190810160405280929190818152602001828054610799906113fe565b80156107e65780601f106107bb576101008083540402835291602001916107e6565b820191906000526020600020905b8154815290600101906020018083116107c957829003601f168201915b505050505090806005015490806006018054610801906113fe565b80601f016020809104026020016040519081016040528092919081815260200182805461082d906113fe565b801561087a5780601f1061084f5761010080835404028352916020019161087a565b820191906000526020600020905b81548152906001019060200180831161085d57829003601f168201915b5050505050905087565b600a8210156108c8576040517f08c379a00000000000000000000000000000000000000000000000000000000081526004016108bf9061114b565b60405180910390fd5b60008054906101000a900473ffffffffffffffffffffffffffffffffffffffff1673ffffffffffffffffffffffffffffffffffffffff166323b872dd8230856040518463ffffffff1660e01b8152600401610925939291906110c9565b602060405180830381600087803b15801561093f57600080fd5b505af1158015610953573d6000803e3d6000fd5b505050506040513d601f19601f820116820180604052508101906109779190610e0e565b505050565b60045481565b6003602052816000526040600020602052806000526040600020600091509150505481565b60026020528160005260406000206020528060005260406000206000915091505080546109d3906113fe565b80601f01602080910402602001604051908101604052809291908181526020018280546109ff906113fe565b8015610a4c5780601f10610a2157610100808354040283529160200191610a4c565b820191906000526020600020905b815481529060010190602001808311610a2f57829003601f168201915b505050505081565b600073ffffffffffffffffffffffffffffffffffffffff168273ffffffffffffffffffffffffffffffffffffffff161415610ac4576040517f08c379a0000000000000000000000000000000000000000000000000000000008152600401610abb9061116b565b60405180910390fd5b6000600360003373ffffffffffffffffffffffffffffffffffffffff1673ffffffffffffffffffffffffffffffffffffffff1681526020019081526020016000206000838152602001908152602001600020541115610c1c5760008054906101000a900473ffffffffffffffffffffffffffffffffffffffff1673ffffffffffffffffffffffffffffffffffffffff1663a9059cbb83600360003373ffffffffffffffffffffffffffffffffffffffff1673ffffffffffffffffffffffffffffffffffffffff1681526020019081526020016000206000858152602001908152602001600020546040518363ffffffff1660e01b8152600401610bc8929190611100565b602060405180830381600087803b158015610be257600080fd5b505af1158015610bf6573d6000803e3d6000fd5b505050506040513d601f19601f82011682018060405250810190610c1a9190610e0e565b505b600a600360003373ffffffffffffffffffffffffffffffffffffffff1673ffffffffffffffffffffffffffffffffffffffff16815260200190815260200160002060008381526020019081526020016000206000828254610c7d9190611340565b925050819055505050565b828054610c94906113fe565b90600052602060002090601f016020900481019282610cb65760008555610cfd565b82601f10610ccf57805160ff1916838001178555610cfd565b82800160010185558215610cfd579182015b82811115610cfc578251825591602001919060010190610ce1565b5b509050610d0a9190610d0e565b5090565b5b80821115610d27576000816000905550600101610d0f565b5090565b6000610d3e610d398461127d565b611258565b905082815260208101848484011115610d5657600080fd5b610d618482856113bc565b509392505050565b600081359050610d78816115c3565b92915050565b600081519050610d8d816115da565b92915050565b600082601f830112610da457600080fd5b8135610db4848260208601610d2b565b91505092915050565b600081359050610dcc816115f1565b92915050565b60008060408385031215610de557600080fd5b6000610df385828601610d69565b9250506020610e0485828601610dbd565b9150509250929050565b600060208284031215610e2057600080fd5b6000610e2e84828501610d7e565b91505092915050565b600080600080600060a08688031215610e4f57600080fd5b600086013567ffffffffffffffff811115610e6957600080fd5b610e7588828901610d93565b955050602086013567ffffffffffffffff811115610e9257600080fd5b610e9e88828901610d93565b945050604086013567ffffffffffffffff811115610ebb57600080fd5b610ec788828901610d93565b935050606086013567ffffffffffffffff811115610ee457600080fd5b610ef088828901610d93565b9250506080610f0188828901610dbd565b9150509295509295909350565b600060208284031215610f2057600080fd5b6000610f2e84828501610dbd565b91505092915050565b60008060408385031215610f4a57600080fd5b6000610f5885828601610dbd565b9250506020610f6985828601610d69565b9150509250929050565b610f7c81611374565b82525050565b6000610f8d826112c3565b610f9781856112ce565b9350610fa78185602086016113cb565b610fb081611537565b840191505092915050565b60008154610fc8816113fe565b610fd281866112df565b94506001821660008114610fed5760018114610ffe57611031565b60ff19831686528186019350611031565b611007856112ae565b60005b838110156110295781548189015260018201915060208101905061100a565b838801955050505b50505092915050565b60006110476020836112ce565b915061105282611548565b602082019050919050565b600061106a6018836112ce565b915061107582611571565b602082019050919050565b600061108d6020836112ce565b91506110988261159a565b602082019050919050565b6110ac816113b2565b82525050565b60006110be8284610fbb565b915081905092915050565b60006060820190506110de6000830186610f73565b6110eb6020830185610f73565b6110f860408301846110a3565b949350505050565b60006040820190506111156000830185610f73565b61112260208301846110a3565b9392505050565b600060208201905081810360008301526111438184610f82565b905092915050565b600060208201905081810360008301526111648161103a565b9050919050565b600060208201905081810360008301526111848161105d565b9050919050565b600060208201905081810360008301526111a481611080565b9050919050565b60006020820190506111c060008301846110a3565b92915050565b600060e0820190506111db600083018a6110a3565b81810360208301526111ed8189610f82565b905081810360408301526112018188610f82565b905081810360608301526112158187610f82565b905081810360808301526112298186610f82565b905061123860a08301856110a3565b81810360c083015261124a8184610f82565b905098975050505050505050565b6000611262611273565b905061126e8282611430565b919050565b6000604051905090565b600067ffffffffffffffff82111561129857611297611508565b5b6112a182611537565b9050602081019050919050565b60008190508160005260206000209050919050565b600081519050919050565b600082825260208201905092915050565b600081905092915050565b60006112f5826113b2565b9150611300836113b2565b9250827fffffffffffffffffffffffffffffffffffffffffffffffffffffffffffffffff03821115611335576113346114aa565b5b828201905092915050565b600061134b826113b2565b9150611356836113b2565b925082821015611369576113686114aa565b5b828203905092915050565b600061137f82611392565b9050919050565b60008115159050919050565b600073ffffffffffffffffffffffffffffffffffffffff82169050919050565b6000819050919050565b82818337600083830152505050565b60005b838110156113e95780820151818401526020810190506113ce565b838111156113f8576000848401525b50505050565b6000600282049050600182168061141657607f821691505b6020821081141561142a576114296114d9565b5b50919050565b61143982611537565b810181811067ffffffffffffffff8211171561145857611457611508565b5b80604052505050565b600061146c826113b2565b91507fffffffffffffffffffffffffffffffffffffffffffffffffffffffffffffffff82141561149f5761149e6114aa565b5b600182019050919050565b7f4e487b7100000000000000000000000000000000000000000000000000000000600052601160045260246000fd5b7f4e487b7100000000000000000000000000000000000000000000000000000000600052602260045260246000fd5b7f4e487b7100000000000000000000000000000000000000000000000000000000600052604160045260246000fd5b6000601f19601f8301169050919050565b7f4572726f722c206465706f736974206d757374206265203e3d20313020444149600082015250565b7f416464726573732030206973206e6f7420616c6c6f7765640000000000000000600082015250565b7f5f64617465206d757374206265203e3d2031207765656b2066726f6d206e6f77600082015250565b6115cc81611374565b81146115d757600080fd5b50565b6115e381611386565b81146115ee57600080fd5b50565b6115fa816113b2565b811461160557600080fd5b5056fea26469706673582212202d92c6678b51771c72afa70b6215c513606b5e0ca6b29693d0dd54de3b417e1764736f6c63430008030033",
  "immutableReferences": {},
  "source": "// SPDX-License-Identifier: MIT\npragma solidity 0.8.3;\n\nimport \"@openzeppelin/contracts/token/ERC20/IERC20.sol\";\n\ncontract Play {\n\n    IERC20 Dai;\n\n    /** \n     * @dev list of all bets per player, ie. a map composed (player address => bet id) pairs\n     */\n\n    mapping(address => bytes32[]) private betsPerPlayer;\n    \n    /** \n     * @dev list of all chosenWinner per match per user\n     */\n    mapping(address => mapping(uint => string)) public chosenWinner;\n    \n     /** \n     * @dev list of earnings per match per player\n     */\n    mapping(address => mapping(uint => uint)) public playerEarnings;\n    \n    /** \n     * @dev Winner selected by player\n     */\n   // mapping(address => string) public chosenWinner;\n\n    uint public eventCount = 0;\n    \n    mapping(uint => SportEvent) public sportEvents;\n\n    struct SportEvent {\n        uint         eventId;\n        string       fileHash;\n        string       description;\n        string       teamA;\n        string       teamB;\n        uint         date;\n        string       winner;\n    }\n\n    constructor(address _tokenAddress) {\n        Dai = IERC20(_tokenAddress);\n    }\n\n    function deposit(uint _amount, address _sender) public payable {\n        require(_amount >= 10, \"Error, deposit must be >= 10 DAI\");\n\n        Dai.transferFrom(_sender, address(this), _amount);\n    }\n\n    function addSportEvent(\n        string memory _fileHash,\n        string memory _description,\n        string memory _teamA,\n        string memory _teamB,\n        uint          _date\n    ) public\n    {\n\n        require(_date >= block.timestamp + 1 weeks, \"_date must be >= 1 week from now\");\n\n        //Increment sport event\n        eventCount ++;\n\n        // Add the sport event\n        /* sportEvents.push(SportEvent(_name, _teamA, _teamB, _date, _teamA));*/\n        sportEvents[eventCount] = SportEvent(eventCount, _fileHash, _description, _teamA, _teamB, _date, _teamA);\n    }\n\n    function getWinner(uint _eventId) public view returns (string memory) {\n        return sportEvents[_eventId].winner;\n    }\n    \n    \n    /*function bet(string memory _winner, uint _amount) public returns () {\n        require(_amount >= 10, \"A minimum of 10DAI is required\");\n        // Deposit Dai\n        Dai.transferFrom(msg.sender, address(this), _amount);\n        \n        // Add chosen winner per player per match\n        chosenWinner[msg.sender][eventCount] = _winner;\n\n    }*/\n\n     function checkEarnings(uint _eventId) public returns(uint) {\n        if (keccak256(abi.encodePacked(sportEvents[_eventId].winner)) == keccak256(abi.encodePacked(chosenWinner[msg.sender][_eventId]))) {\n            playerEarnings[msg.sender][_eventId] += 10;\n            return 10;\n        } else {\n            return 0;\n        }\n    }\n\n    function withdraw(address _player, uint _eventId) public { \n     require(_player != address(0), \"Address 0 is not allowed\");\n        if (playerEarnings[msg.sender][_eventId] > 0) {\n            Dai.transfer(_player, playerEarnings[msg.sender][_eventId]);\n        }\n        \n        playerEarnings[msg.sender][_eventId] -= 10;\n    }      \n    \n}\n",
  "sourcePath": "/Users/Lidmi/Desktop/Alyra/ProjetFinal/BetNoLoss/bet-no-loss/contracts/Play.sol",
  "compiler": {
    "name": "solc",
    "version": "0.8.3+commit.8d00100c.Emscripten.clang"
  },
  "schemaVersion": "3.3.4",
  "updatedAt": "2021-04-27T20:39:04.599Z",
  "networkType": "ethereum",
  "devdoc": {
    "kind": "dev",
    "methods": {},
    "stateVariables": {
      "betsPerPlayer": {
        "details": "list of all bets per player, ie. a map composed (player address => bet id) pairs"
      },
      "chosenWinner": {
        "details": "list of all chosenWinner per match per user"
      },
      "eventCount": {
        "details": "Winner selected by player"
      },
      "playerEarnings": {
        "details": "list of earnings per match per player"
      }
    },
    "version": 1
  },
  "userdoc": {
    "kind": "user",
    "methods": {},
    "version": 1
  }
}