{
  "contractName": "Play",
  "abi": [
    {
      "inputs": [
        {
          "internalType": "address",
          "name": "_tokenAddress",
          "type": "address"
        }
      ],
      "stateMutability": "nonpayable",
      "type": "constructor"
    },
    {
      "inputs": [
        {
          "internalType": "uint256",
          "name": "",
          "type": "uint256"
        }
      ],
      "name": "events",
      "outputs": [
        {
          "internalType": "string",
          "name": "name",
          "type": "string"
        },
        {
          "internalType": "string",
          "name": "teamA",
          "type": "string"
        },
        {
          "internalType": "string",
          "name": "teamB",
          "type": "string"
        },
        {
          "internalType": "uint256",
          "name": "date",
          "type": "uint256"
        },
        {
          "internalType": "string",
          "name": "winner",
          "type": "string"
        }
      ],
      "stateMutability": "view",
      "type": "function"
    },
    {
      "inputs": [
        {
          "internalType": "address",
          "name": "",
          "type": "address"
        }
      ],
      "name": "userBalance",
      "outputs": [
        {
          "internalType": "uint256",
          "name": "",
          "type": "uint256"
        }
      ],
      "stateMutability": "view",
      "type": "function"
    },
    {
      "inputs": [
        {
          "internalType": "uint256",
          "name": "_amount",
          "type": "uint256"
        },
        {
          "internalType": "address",
          "name": "_sender",
          "type": "address"
        }
      ],
      "name": "deposit",
      "outputs": [],
      "stateMutability": "payable",
      "type": "function"
    },
    {
      "inputs": [
        {
          "internalType": "string",
          "name": "_name",
          "type": "string"
        },
        {
          "internalType": "string",
          "name": "_teamA",
          "type": "string"
        },
        {
          "internalType": "string",
          "name": "_teamB",
          "type": "string"
        },
        {
          "internalType": "uint256",
          "name": "_date",
          "type": "uint256"
        }
      ],
      "name": "addSportEvent",
      "outputs": [
        {
          "internalType": "bool",
          "name": "",
          "type": "bool"
        }
      ],
      "stateMutability": "nonpayable",
      "type": "function"
    },
    {
      "inputs": [],
      "name": "getWinner",
      "outputs": [
        {
          "internalType": "string",
          "name": "",
          "type": "string"
        }
      ],
      "stateMutability": "nonpayable",
      "type": "function"
    },
    {
      "inputs": [
        {
          "internalType": "string",
          "name": "_winner",
          "type": "string"
        },
        {
          "internalType": "uint256",
          "name": "_amount",
          "type": "uint256"
        }
      ],
      "name": "bet",
      "outputs": [
        {
          "internalType": "bool",
          "name": "",
          "type": "bool"
        }
      ],
      "stateMutability": "nonpayable",
      "type": "function"
    },
    {
      "inputs": [
        {
          "internalType": "address",
          "name": "_user",
          "type": "address"
        }
      ],
      "name": "withdraw",
      "outputs": [],
      "stateMutability": "payable",
      "type": "function"
    }
  ],
  "bytecode": "0x60806040523480156200001157600080fd5b506040516200158f3803806200158f833981810160405281019062000037919062000095565b806000806101000a81548173ffffffffffffffffffffffffffffffffffffffff021916908373ffffffffffffffffffffffffffffffffffffffff160217905550506200010f565b6000815190506200008f81620000f5565b92915050565b600060208284031215620000a857600080fd5b6000620000b8848285016200007e565b91505092915050565b6000620000ce82620000d5565b9050919050565b600073ffffffffffffffffffffffffffffffffffffffff82169050919050565b6200010081620000c1565b81146200010c57600080fd5b50565b611470806200011f6000396000f3fe6080604052600436106100705760003560e01c80636e553f651161004e5780636e553f651461010f5780638e7ea5b21461012b578063ad6d156514610156578063e9c20cb91461019357610070565b80630103c92b146100755780630b791430146100b257806351cff8d9146100f3575b600080fd5b34801561008157600080fd5b5061009c60048036038101906100979190610be9565b6101d0565b6040516100a991906110b8565b60405180910390f35b3480156100be57600080fd5b506100d960048036038101906100d49190610d3a565b6101e8565b6040516100ea959493929190610fe9565b60405180910390f35b61010d60048036038101906101089190610be9565b61044e565b005b61012960048036038101906101249190610d63565b6106a0565b005b34801561013757600080fd5b50610140610798565b60405161014d9190610fc7565b60405180910390f35b34801561016257600080fd5b5061017d60048036038101906101789190610c3b565b610874565b60405161018a9190610fac565b60405180910390f35b34801561019f57600080fd5b506101ba60048036038101906101b59190610ce6565b6109ea565b6040516101c79190610fac565b60405180910390f35b60016020528060005260406000206000915090505481565b600281815481106101f857600080fd5b906000526020600020906005020160009150905080600001805461021b90611279565b80601f016020809104026020016040519081016040528092919081815260200182805461024790611279565b80156102945780601f1061026957610100808354040283529160200191610294565b820191906000526020600020905b81548152906001019060200180831161027757829003601f168201915b5050505050908060010180546102a990611279565b80601f01602080910402602001604051908101604052809291908181526020018280546102d590611279565b80156103225780601f106102f757610100808354040283529160200191610322565b820191906000526020600020905b81548152906001019060200180831161030557829003601f168201915b50505050509080600201805461033790611279565b80601f016020809104026020016040519081016040528092919081815260200182805461036390611279565b80156103b05780601f10610385576101008083540402835291602001916103b0565b820191906000526020600020905b81548152906001019060200180831161039357829003601f168201915b5050505050908060030154908060040180546103cb90611279565b80601f01602080910402602001604051908101604052809291908181526020018280546103f790611279565b80156104445780601f1061041957610100808354040283529160200191610444565b820191906000526020600020905b81548152906001019060200180831161042757829003601f168201915b5050505050905085565b6000600160008373ffffffffffffffffffffffffffffffffffffffff1673ffffffffffffffffffffffffffffffffffffffff168152602001908152602001600020549050600a600160008473ffffffffffffffffffffffffffffffffffffffff1673ffffffffffffffffffffffffffffffffffffffff168152602001908152602001600020546104de9190611165565b600160008473ffffffffffffffffffffffffffffffffffffffff1673ffffffffffffffffffffffffffffffffffffffff1681526020019081526020016000208190555060008054906101000a900473ffffffffffffffffffffffffffffffffffffffff1673ffffffffffffffffffffffffffffffffffffffff1663a9059cbb83600160008673ffffffffffffffffffffffffffffffffffffffff1673ffffffffffffffffffffffffffffffffffffffff168152602001908152602001600020546040518363ffffffff1660e01b81526004016105bb929190610f83565b602060405180830381600087803b1580156105d557600080fd5b505af11580156105e9573d6000803e3d6000fd5b505050506040513d601f19601f8201168201806040525081019061060d9190610c12565b5080600160008473ffffffffffffffffffffffffffffffffffffffff1673ffffffffffffffffffffffffffffffffffffffff1681526020019081526020016000205461065991906111bb565b600160008473ffffffffffffffffffffffffffffffffffffffff1673ffffffffffffffffffffffffffffffffffffffff168152602001908152602001600020819055505050565b600a8210156106e4576040517f08c379a00000000000000000000000000000000000000000000000000000000081526004016106db90611058565b60405180910390fd5b60008054906101000a900473ffffffffffffffffffffffffffffffffffffffff1673ffffffffffffffffffffffffffffffffffffffff166323b872dd8230856040518463ffffffff1660e01b815260040161074193929190610f4c565b602060405180830381600087803b15801561075b57600080fd5b505af115801561076f573d6000803e3d6000fd5b505050506040513d601f19601f820116820180604052508101906107939190610c12565b505050565b606060026000815481106107d5577f4e487b7100000000000000000000000000000000000000000000000000000000600052603260045260246000fd5b906000526020600020906005020160040180546107f190611279565b80601f016020809104026020016040519081016040528092919081815260200182805461081d90611279565b801561086a5780601f1061083f5761010080835404028352916020019161086a565b820191906000526020600020905b81548152906001019060200180831161084d57829003601f168201915b5050505050905090565b60008085905060008151116108be576040517f08c379a00000000000000000000000000000000000000000000000000000000081526004016108b590611098565b60405180910390fd5b62093a80426108cd9190611165565b83101561090f576040517f08c379a000000000000000000000000000000000000000000000000000000000815260040161090690611078565b60405180910390fd5b60026040518060a00160405280888152602001878152602001868152602001858152602001878152509080600181540180825580915050600190039060005260206000209060050201600090919091909150600082015181600001908051906020019061097d929190610a9f565b50602082015181600101908051906020019061099a929190610a9f565b5060408201518160020190805190602001906109b7929190610a9f565b506060820151816003015560808201518160040190805190602001906109de929190610a9f565b50505050949350505050565b60006002600081548110610a27577f4e487b7100000000000000000000000000000000000000000000000000000000600052603260045260246000fd5b9060005260206000209060050201600401604051602001610a489190610f35565b6040516020818303038152906040528051906020012083604051602001610a6f9190610f1e565b604051602081830303815290604052805190602001201415610a945760019050610a99565b600090505b92915050565b828054610aab90611279565b90600052602060002090601f016020900481019282610acd5760008555610b14565b82601f10610ae657805160ff1916838001178555610b14565b82800160010185558215610b14579182015b82811115610b13578251825591602001919060010190610af8565b5b509050610b219190610b25565b5090565b5b80821115610b3e576000816000905550600101610b26565b5090565b6000610b55610b50846110f8565b6110d3565b905082815260208101848484011115610b6d57600080fd5b610b78848285611237565b509392505050565b600081359050610b8f816113f5565b92915050565b600081519050610ba48161140c565b92915050565b600082601f830112610bbb57600080fd5b8135610bcb848260208601610b42565b91505092915050565b600081359050610be381611423565b92915050565b600060208284031215610bfb57600080fd5b6000610c0984828501610b80565b91505092915050565b600060208284031215610c2457600080fd5b6000610c3284828501610b95565b91505092915050565b60008060008060808587031215610c5157600080fd5b600085013567ffffffffffffffff811115610c6b57600080fd5b610c7787828801610baa565b945050602085013567ffffffffffffffff811115610c9457600080fd5b610ca087828801610baa565b935050604085013567ffffffffffffffff811115610cbd57600080fd5b610cc987828801610baa565b9250506060610cda87828801610bd4565b91505092959194509250565b60008060408385031215610cf957600080fd5b600083013567ffffffffffffffff811115610d1357600080fd5b610d1f85828601610baa565b9250506020610d3085828601610bd4565b9150509250929050565b600060208284031215610d4c57600080fd5b6000610d5a84828501610bd4565b91505092915050565b60008060408385031215610d7657600080fd5b6000610d8485828601610bd4565b9250506020610d9585828601610b80565b9150509250929050565b610da8816111ef565b82525050565b610db781611201565b82525050565b6000610dc88261113e565b610dd28185611149565b9350610de2818560208601611246565b610deb81611369565b840191505092915050565b6000610e018261113e565b610e0b818561115a565b9350610e1b818560208601611246565b80840191505092915050565b60008154610e3481611279565b610e3e818661115a565b94506001821660008114610e595760018114610e6a57610e9d565b60ff19831686528186019350610e9d565b610e7385611129565b60005b83811015610e9557815481890152600182019150602081019050610e76565b838801955050505b50505092915050565b6000610eb3602083611149565b9150610ebe8261137a565b602082019050919050565b6000610ed6602083611149565b9150610ee1826113a3565b602082019050919050565b6000610ef9601583611149565b9150610f04826113cc565b602082019050919050565b610f188161122d565b82525050565b6000610f2a8284610df6565b915081905092915050565b6000610f418284610e27565b915081905092915050565b6000606082019050610f616000830186610d9f565b610f6e6020830185610d9f565b610f7b6040830184610f0f565b949350505050565b6000604082019050610f986000830185610d9f565b610fa56020830184610f0f565b9392505050565b6000602082019050610fc16000830184610dae565b92915050565b60006020820190508181036000830152610fe18184610dbd565b905092915050565b600060a08201905081810360008301526110038188610dbd565b905081810360208301526110178187610dbd565b9050818103604083015261102b8186610dbd565b905061103a6060830185610f0f565b818103608083015261104c8184610dbd565b90509695505050505050565b6000602082019050818103600083015261107181610ea6565b9050919050565b6000602082019050818103600083015261109181610ec9565b9050919050565b600060208201905081810360008301526110b181610eec565b9050919050565b60006020820190506110cd6000830184610f0f565b92915050565b60006110dd6110ee565b90506110e982826112ab565b919050565b6000604051905090565b600067ffffffffffffffff8211156111135761111261133a565b5b61111c82611369565b9050602081019050919050565b60008190508160005260206000209050919050565b600081519050919050565b600082825260208201905092915050565b600081905092915050565b60006111708261122d565b915061117b8361122d565b9250827fffffffffffffffffffffffffffffffffffffffffffffffffffffffffffffffff038211156111b0576111af6112dc565b5b828201905092915050565b60006111c68261122d565b91506111d18361122d565b9250828210156111e4576111e36112dc565b5b828203905092915050565b60006111fa8261120d565b9050919050565b60008115159050919050565b600073ffffffffffffffffffffffffffffffffffffffff82169050919050565b6000819050919050565b82818337600083830152505050565b60005b83811015611264578082015181840152602081019050611249565b83811115611273576000848401525b50505050565b6000600282049050600182168061129157607f821691505b602082108114156112a5576112a461130b565b5b50919050565b6112b482611369565b810181811067ffffffffffffffff821117156112d3576112d261133a565b5b80604052505050565b7f4e487b7100000000000000000000000000000000000000000000000000000000600052601160045260246000fd5b7f4e487b7100000000000000000000000000000000000000000000000000000000600052602260045260246000fd5b7f4e487b7100000000000000000000000000000000000000000000000000000000600052604160045260246000fd5b6000601f19601f8301169050919050565b7f4572726f722c206465706f736974206d757374206265203e3d20313020444149600082015250565b7f5f64617465206d757374206265203e3d2031207765656b2066726f6d206e6f77600082015250565b7f5f6e616d652063616e6e6f7420626520656d7074790000000000000000000000600082015250565b6113fe816111ef565b811461140957600080fd5b50565b61141581611201565b811461142057600080fd5b50565b61142c8161122d565b811461143757600080fd5b5056fea2646970667358221220486c83020f96b532e95a42ba2099efd9206670843d0ab2e756cfedce5d00814a64736f6c63430008040033",
  "immutableReferences": {},
  "source": "// SPDX-License-Identifier: MIT\npragma solidity ^0.8.4;\n\nimport \"@openzeppelin/contracts/token/ERC20/IERC20.sol\";\n\ncontract Play {\n    \n    IERC20 Dai;\n\n    /**\n     * @dev Balance of each user address\n     */\n    mapping(address => uint256) public userBalance;\n    \n    SportEvent[] public events;\n    \n    struct SportEvent {\n        string       name;\n        string       teamA;\n        string       teamB;\n        uint         date;\n        string       winner;\n    }\n    \n    constructor(address _tokenAddress) {\n        Dai = IERC20(_tokenAddress);\n    } \n\n    function deposit(uint _amount, address _sender) public payable {\n        require(_amount >= 10, \"Error, deposit must be >= 10 DAI\");\n\n        Dai.transferFrom(_sender, address(this), _amount);\n    }\n\n    function addSportEvent(\n        string memory _name,\n        string memory _teamA,\n        string memory _teamB,\n        uint          _date\n    ) public returns (bool)\n    {\n        bytes memory bytesName = bytes(_name);\n        require(bytesName.length > 0, \"_name cannot be empty\");\n        require(_date >= block.timestamp + 1 weeks, \"_date must be >= 1 week from now\");\n\n        // Add the sport event\n        events.push(SportEvent(_name, _teamA, _teamB, _date, _teamA));\n    }\n\n    function getWinner() public returns (string memory) {\n        return events[0].winner;\n    }\n    \n    // TO DO: use DAI\n    function bet(string memory _winner, uint _amount) public returns (bool) {\n        if (keccak256(abi.encodePacked(_winner)) == keccak256(abi.encodePacked(events[0].winner))) {\n            return true;\n        } else {\n            return false;\n        }\n    }\n\n    function withdraw(address _user) public payable {        \n        uint initialUserBalance = userBalance[_user];\n        userBalance[_user] = userBalance[_user] + 10;\n        Dai.transfer(_user, userBalance[_user]);\n        userBalance[_user] = userBalance[_user] - initialUserBalance;\n    }\n      \n    \n}",
  "sourcePath": "/Users/eric/dev/alyra/project/bet-no-loss/contracts/Play.sol",
  "compiler": {
    "name": "solc",
    "version": "0.8.4+commit.c7e474f2.Emscripten.clang"
  },
  "schemaVersion": "3.4.0",
  "updatedAt": "2021-05-06T14:14:48.278Z",
  "devdoc": {
    "kind": "dev",
    "methods": {},
    "stateVariables": {
      "userBalance": {
        "details": "Balance of each user address"
      }
    },
    "version": 1
  },
  "userdoc": {
    "kind": "user",
    "methods": {},
    "version": 1
  }
}