{
  "contractName": "Play",
  "abi": [
    {
      "inputs": [
        {
          "internalType": "address",
          "name": "_tokenAddress",
          "type": "address"
        }
      ],
      "stateMutability": "nonpayable",
      "type": "constructor"
    },
    {
      "inputs": [],
      "name": "eventCount",
      "outputs": [
        {
          "internalType": "uint256",
          "name": "",
          "type": "uint256"
        }
      ],
      "stateMutability": "view",
      "type": "function",
      "constant": true
    },
    {
      "inputs": [
        {
          "internalType": "uint256",
          "name": "",
          "type": "uint256"
        }
      ],
      "name": "sportEvents",
      "outputs": [
        {
          "internalType": "uint256",
          "name": "eventId",
          "type": "uint256"
        },
        {
          "internalType": "string",
          "name": "fileHash",
          "type": "string"
        },
        {
          "internalType": "string",
          "name": "description",
          "type": "string"
        },
        {
          "internalType": "string",
          "name": "teamA",
          "type": "string"
        },
        {
          "internalType": "string",
          "name": "teamB",
          "type": "string"
        },
        {
          "internalType": "uint256",
          "name": "date",
          "type": "uint256"
        },
        {
          "internalType": "string",
          "name": "winner",
          "type": "string"
        }
      ],
      "stateMutability": "view",
      "type": "function",
      "constant": true
    },
    {
      "inputs": [
        {
          "internalType": "address",
          "name": "",
          "type": "address"
        }
      ],
      "name": "userBalance",
      "outputs": [
        {
          "internalType": "uint256",
          "name": "",
          "type": "uint256"
        }
      ],
      "stateMutability": "view",
      "type": "function",
      "constant": true
    },
    {
      "inputs": [
        {
          "internalType": "string",
          "name": "_world",
          "type": "string"
        }
      ],
      "name": "setString",
      "outputs": [],
      "stateMutability": "nonpayable",
      "type": "function"
    },
    {
      "inputs": [],
      "name": "getString",
      "outputs": [
        {
          "internalType": "string",
          "name": "",
          "type": "string"
        }
      ],
      "stateMutability": "view",
      "type": "function",
      "constant": true
    },
    {
      "inputs": [
        {
          "internalType": "uint256",
          "name": "_amount",
          "type": "uint256"
        },
        {
          "internalType": "address",
          "name": "_sender",
          "type": "address"
        }
      ],
      "name": "deposit",
      "outputs": [],
      "stateMutability": "payable",
      "type": "function",
      "payable": true
    },
    {
      "inputs": [
        {
          "internalType": "string",
          "name": "_fileHash",
          "type": "string"
        },
        {
          "internalType": "string",
          "name": "_description",
          "type": "string"
        },
        {
          "internalType": "string",
          "name": "_teamA",
          "type": "string"
        },
        {
          "internalType": "string",
          "name": "_teamB",
          "type": "string"
        },
        {
          "internalType": "uint256",
          "name": "_date",
          "type": "uint256"
        }
      ],
      "name": "addSportEvent",
      "outputs": [],
      "stateMutability": "nonpayable",
      "type": "function"
    },
    {
      "inputs": [],
      "name": "getWinner",
      "outputs": [
        {
          "internalType": "string",
          "name": "",
          "type": "string"
        }
      ],
      "stateMutability": "view",
      "type": "function",
      "constant": true
    },
    {
      "inputs": [
        {
          "internalType": "string",
          "name": "_winner",
          "type": "string"
        },
        {
          "internalType": "uint256",
          "name": "_amount",
          "type": "uint256"
        }
      ],
      "name": "bet",
      "outputs": [
        {
          "internalType": "bool",
          "name": "",
          "type": "bool"
        }
      ],
      "stateMutability": "view",
      "type": "function",
      "constant": true
    },
    {
      "inputs": [
        {
          "internalType": "address",
          "name": "_user",
          "type": "address"
        }
      ],
      "name": "withdraw",
      "outputs": [],
      "stateMutability": "payable",
      "type": "function",
      "payable": true
    }
  ],
  "bytecode": "0x608060405260006003553480156200001657600080fd5b50604051620017453803806200174583398181016040528101906200003c91906200009a565b806000806101000a81548173ffffffffffffffffffffffffffffffffffffffff021916908373ffffffffffffffffffffffffffffffffffffffff1602179055505062000114565b6000815190506200009481620000fa565b92915050565b600060208284031215620000ad57600080fd5b6000620000bd8482850162000083565b91505092915050565b6000620000d382620000da565b9050919050565b600073ffffffffffffffffffffffffffffffffffffffff82169050919050565b6200010581620000c6565b81146200011157600080fd5b50565b61162180620001246000396000f3fe6080604052600436106100915760003560e01c806371be2e4a1161005957806371be2e4a146101775780637fcaf666146101a257806389ea642f146101cb5780638e7ea5b2146101f6578063e9c20cb91461022157610091565b80630103c92b1461009657806316983620146100d357806351cff8d9146100fc5780635764127e146101185780636e553f651461015b575b600080fd5b3480156100a257600080fd5b506100bd60048036038101906100b89190610d2d565b61025e565b6040516100ca91906111b7565b60405180910390f35b3480156100df57600080fd5b506100fa60048036038101906100f59190610dc0565b610276565b005b61011660048036038101906101119190610d2d565b6103d8565b005b34801561012457600080fd5b5061013f600480360381019061013a9190610eeb565b61062a565b60405161015297969594939291906111d2565b60405180910390f35b61017560048036038101906101709190610f14565b610914565b005b34801561018357600080fd5b5061018c610a0c565b60405161019991906111b7565b60405180910390f35b3480156101ae57600080fd5b506101c960048036038101906101c49190610d7f565b610a12565b005b3480156101d757600080fd5b506101e0610a2c565b6040516101ed9190611155565b60405180910390f35b34801561020257600080fd5b5061020b610abe565b6040516102189190611155565b60405180910390f35b34801561022d57600080fd5b5061024860048036038101906102439190610e97565b610b64565b604051610255919061113a565b60405180910390f35b60016020528060005260406000206000915090505481565b62093a804261028591906112f6565b8110156102c7576040517f08c379a00000000000000000000000000000000000000000000000000000000081526004016102be90611197565b60405180910390fd5b600360008154809291906102da9061146d565b91905055506040518060e0016040528060035481526020018681526020018581526020018481526020018381526020018281526020018481525060046000600354815260200190815260200160002060008201518160000155602082015181600101908051906020019061034f929190610be3565b50604082015181600201908051906020019061036c929190610be3565b506060820151816003019080519060200190610389929190610be3565b5060808201518160040190805190602001906103a6929190610be3565b5060a0820151816005015560c08201518160060190805190602001906103cd929190610be3565b509050505050505050565b6000600160008373ffffffffffffffffffffffffffffffffffffffff1673ffffffffffffffffffffffffffffffffffffffff168152602001908152602001600020549050600a600160008473ffffffffffffffffffffffffffffffffffffffff1673ffffffffffffffffffffffffffffffffffffffff1681526020019081526020016000205461046891906112f6565b600160008473ffffffffffffffffffffffffffffffffffffffff1673ffffffffffffffffffffffffffffffffffffffff1681526020019081526020016000208190555060008054906101000a900473ffffffffffffffffffffffffffffffffffffffff1673ffffffffffffffffffffffffffffffffffffffff1663a9059cbb83600160008673ffffffffffffffffffffffffffffffffffffffff1673ffffffffffffffffffffffffffffffffffffffff168152602001908152602001600020546040518363ffffffff1660e01b8152600401610545929190611111565b602060405180830381600087803b15801561055f57600080fd5b505af1158015610573573d6000803e3d6000fd5b505050506040513d601f19601f820116820180604052508101906105979190610d56565b5080600160008473ffffffffffffffffffffffffffffffffffffffff1673ffffffffffffffffffffffffffffffffffffffff168152602001908152602001600020546105e3919061134c565b600160008473ffffffffffffffffffffffffffffffffffffffff1673ffffffffffffffffffffffffffffffffffffffff168152602001908152602001600020819055505050565b60046020528060005260406000206000915090508060000154908060010180546106539061140a565b80601f016020809104026020016040519081016040528092919081815260200182805461067f9061140a565b80156106cc5780601f106106a1576101008083540402835291602001916106cc565b820191906000526020600020905b8154815290600101906020018083116106af57829003601f168201915b5050505050908060020180546106e19061140a565b80601f016020809104026020016040519081016040528092919081815260200182805461070d9061140a565b801561075a5780601f1061072f5761010080835404028352916020019161075a565b820191906000526020600020905b81548152906001019060200180831161073d57829003601f168201915b50505050509080600301805461076f9061140a565b80601f016020809104026020016040519081016040528092919081815260200182805461079b9061140a565b80156107e85780601f106107bd576101008083540402835291602001916107e8565b820191906000526020600020905b8154815290600101906020018083116107cb57829003601f168201915b5050505050908060040180546107fd9061140a565b80601f01602080910402602001604051908101604052809291908181526020018280546108299061140a565b80156108765780601f1061084b57610100808354040283529160200191610876565b820191906000526020600020905b81548152906001019060200180831161085957829003601f168201915b5050505050908060050154908060060180546108919061140a565b80601f01602080910402602001604051908101604052809291908181526020018280546108bd9061140a565b801561090a5780601f106108df5761010080835404028352916020019161090a565b820191906000526020600020905b8154815290600101906020018083116108ed57829003601f168201915b5050505050905087565b600a821015610958576040517f08c379a000000000000000000000000000000000000000000000000000000000815260040161094f90611177565b60405180910390fd5b60008054906101000a900473ffffffffffffffffffffffffffffffffffffffff1673ffffffffffffffffffffffffffffffffffffffff166323b872dd8230856040518463ffffffff1660e01b81526004016109b5939291906110da565b602060405180830381600087803b1580156109cf57600080fd5b505af11580156109e3573d6000803e3d6000fd5b505050506040513d601f19601f82011682018060405250810190610a079190610d56565b505050565b60035481565b8060029080519060200190610a28929190610be3565b5050565b606060028054610a3b9061140a565b80601f0160208091040260200160405190810160405280929190818152602001828054610a679061140a565b8015610ab45780601f10610a8957610100808354040283529160200191610ab4565b820191906000526020600020905b815481529060010190602001808311610a9757829003601f168201915b5050505050905090565b6060600460008081526020019081526020016000206006018054610ae19061140a565b80601f0160208091040260200160405190810160405280929190818152602001828054610b0d9061140a565b8015610b5a5780601f10610b2f57610100808354040283529160200191610b5a565b820191906000526020600020905b815481529060010190602001808311610b3d57829003601f168201915b5050505050905090565b600060046000808152602001908152602001600020600601604051602001610b8c91906110c3565b6040516020818303038152906040528051906020012083604051602001610bb391906110ac565b604051602081830303815290604052805190602001201415610bd85760019050610bdd565b600090505b92915050565b828054610bef9061140a565b90600052602060002090601f016020900481019282610c115760008555610c58565b82601f10610c2a57805160ff1916838001178555610c58565b82800160010185558215610c58579182015b82811115610c57578251825591602001919060010190610c3c565b5b509050610c659190610c69565b5090565b5b80821115610c82576000816000905550600101610c6a565b5090565b6000610c99610c9484611289565b611264565b905082815260208101848484011115610cb157600080fd5b610cbc8482856113c8565b509392505050565b600081359050610cd3816115a6565b92915050565b600081519050610ce8816115bd565b92915050565b600082601f830112610cff57600080fd5b8135610d0f848260208601610c86565b91505092915050565b600081359050610d27816115d4565b92915050565b600060208284031215610d3f57600080fd5b6000610d4d84828501610cc4565b91505092915050565b600060208284031215610d6857600080fd5b6000610d7684828501610cd9565b91505092915050565b600060208284031215610d9157600080fd5b600082013567ffffffffffffffff811115610dab57600080fd5b610db784828501610cee565b91505092915050565b600080600080600060a08688031215610dd857600080fd5b600086013567ffffffffffffffff811115610df257600080fd5b610dfe88828901610cee565b955050602086013567ffffffffffffffff811115610e1b57600080fd5b610e2788828901610cee565b945050604086013567ffffffffffffffff811115610e4457600080fd5b610e5088828901610cee565b935050606086013567ffffffffffffffff811115610e6d57600080fd5b610e7988828901610cee565b9250506080610e8a88828901610d18565b9150509295509295909350565b60008060408385031215610eaa57600080fd5b600083013567ffffffffffffffff811115610ec457600080fd5b610ed085828601610cee565b9250506020610ee185828601610d18565b9150509250929050565b600060208284031215610efd57600080fd5b6000610f0b84828501610d18565b91505092915050565b60008060408385031215610f2757600080fd5b6000610f3585828601610d18565b9250506020610f4685828601610cc4565b9150509250929050565b610f5981611380565b82525050565b610f6881611392565b82525050565b6000610f79826112cf565b610f8381856112da565b9350610f938185602086016113d7565b610f9c81611543565b840191505092915050565b6000610fb2826112cf565b610fbc81856112eb565b9350610fcc8185602086016113d7565b80840191505092915050565b60008154610fe58161140a565b610fef81866112eb565b9450600182166000811461100a576001811461101b5761104e565b60ff1983168652818601935061104e565b611024856112ba565b60005b8381101561104657815481890152600182019150602081019050611027565b838801955050505b50505092915050565b60006110646020836112da565b915061106f82611554565b602082019050919050565b60006110876020836112da565b91506110928261157d565b602082019050919050565b6110a6816113be565b82525050565b60006110b88284610fa7565b915081905092915050565b60006110cf8284610fd8565b915081905092915050565b60006060820190506110ef6000830186610f50565b6110fc6020830185610f50565b611109604083018461109d565b949350505050565b60006040820190506111266000830185610f50565b611133602083018461109d565b9392505050565b600060208201905061114f6000830184610f5f565b92915050565b6000602082019050818103600083015261116f8184610f6e565b905092915050565b6000602082019050818103600083015261119081611057565b9050919050565b600060208201905081810360008301526111b08161107a565b9050919050565b60006020820190506111cc600083018461109d565b92915050565b600060e0820190506111e7600083018a61109d565b81810360208301526111f98189610f6e565b9050818103604083015261120d8188610f6e565b905081810360608301526112218187610f6e565b905081810360808301526112358186610f6e565b905061124460a083018561109d565b81810360c08301526112568184610f6e565b905098975050505050505050565b600061126e61127f565b905061127a828261143c565b919050565b6000604051905090565b600067ffffffffffffffff8211156112a4576112a3611514565b5b6112ad82611543565b9050602081019050919050565b60008190508160005260206000209050919050565b600081519050919050565b600082825260208201905092915050565b600081905092915050565b6000611301826113be565b915061130c836113be565b9250827fffffffffffffffffffffffffffffffffffffffffffffffffffffffffffffffff03821115611341576113406114b6565b5b828201905092915050565b6000611357826113be565b9150611362836113be565b925082821015611375576113746114b6565b5b828203905092915050565b600061138b8261139e565b9050919050565b60008115159050919050565b600073ffffffffffffffffffffffffffffffffffffffff82169050919050565b6000819050919050565b82818337600083830152505050565b60005b838110156113f55780820151818401526020810190506113da565b83811115611404576000848401525b50505050565b6000600282049050600182168061142257607f821691505b60208210811415611436576114356114e5565b5b50919050565b61144582611543565b810181811067ffffffffffffffff8211171561146457611463611514565b5b80604052505050565b6000611478826113be565b91507fffffffffffffffffffffffffffffffffffffffffffffffffffffffffffffffff8214156114ab576114aa6114b6565b5b600182019050919050565b7f4e487b7100000000000000000000000000000000000000000000000000000000600052601160045260246000fd5b7f4e487b7100000000000000000000000000000000000000000000000000000000600052602260045260246000fd5b7f4e487b7100000000000000000000000000000000000000000000000000000000600052604160045260246000fd5b6000601f19601f8301169050919050565b7f4572726f722c206465706f736974206d757374206265203e3d20313020444149600082015250565b7f5f64617465206d757374206265203e3d2031207765656b2066726f6d206e6f77600082015250565b6115af81611380565b81146115ba57600080fd5b50565b6115c681611392565b81146115d157600080fd5b50565b6115dd816113be565b81146115e857600080fd5b5056fea2646970667358221220c5bb7aac6861faba90de3309e9880bcebb111649596ce9b2ace8a79a275cf23a64736f6c63430008030033",
  "immutableReferences": {},
  "source": "// SPDX-License-Identifier: MIT\npragma solidity 0.8.3;\n\nimport \"@openzeppelin/contracts/token/ERC20/IERC20.sol\";\n\ncontract Play {\n    \n    IERC20 Dai;\n\n    /**\n     * @dev Balance of each user address\n     */\n    mapping(address => uint256) public userBalance;\n    \n    //SportEvent[] public sportEvents;\n\n    string temporary;\n\n    uint public eventCount = 0;\n    mapping(uint => SportEvent) public sportEvents;\n    \n    struct SportEvent {\n        uint         eventId;\n        string       fileHash;\n        string       description;\n        string       teamA;\n        string       teamB;\n        uint         date;\n        /*uint         uploadTime;*/\n        string       winner;\n        /*address payable uploader;*/\n    }\n    \n    constructor(address _tokenAddress) {\n        Dai = IERC20(_tokenAddress);\n    } \n\n    function setString(string memory _world) public {\n        temporary = _world;\n    }\n\n    function getString() public view returns (string memory){\n        return temporary;\n    }\n\n    function deposit(uint _amount, address _sender) public payable {\n        require(_amount >= 10, \"Error, deposit must be >= 10 DAI\");\n\n        Dai.transferFrom(_sender, address(this), _amount);\n    }\n\n    function addSportEvent(\n        string memory _fileHash,\n        string memory _description,\n        string memory _teamA,\n        string memory _teamB,\n        uint          _date\n    ) public\n    {\n\n        require(_date >= block.timestamp + 1 weeks, \"_date must be >= 1 week from now\");\n\n        //Increment sport event\n        eventCount ++;\n\n        // Add the sport event\n        /* sportEvents.push(SportEvent(_name, _teamA, _teamB, _date, _teamA));*/\n        sportEvents[eventCount] = SportEvent(eventCount, _fileHash, _description, _teamA, _teamB, _date, _teamA);\n    }\n\n    function getWinner() public view returns (string memory) {\n        return sportEvents[0].winner;\n    }\n    \n    // TO DO: use DAI\n    function bet(string memory _winner, uint _amount) public view returns (bool) {\n        if (keccak256(abi.encodePacked(_winner)) == keccak256(abi.encodePacked(sportEvents[0].winner))) {\n            return true;\n        } else {\n            return false;\n        }\n    }\n\n    function withdraw(address _user) public payable {        \n        uint initialUserBalance = userBalance[_user];\n        userBalance[_user] = userBalance[_user] + 10;\n        Dai.transfer(_user, userBalance[_user]);\n        userBalance[_user] = userBalance[_user] - initialUserBalance;\n    }      \n    \n}",
  "sourcePath": "/Users/Lidmi/Desktop/Alyra/ProjetFinal/BetNoLoss/bet-no-loss/contracts/Play.sol",
  "compiler": {
    "name": "solc",
    "version": "0.8.3+commit.8d00100c.Emscripten.clang"
  },
  "schemaVersion": "3.3.4",
  "updatedAt": "2021-04-23T08:49:59.077Z",
  "networkType": "ethereum",
  "devdoc": {
    "kind": "dev",
    "methods": {},
    "stateVariables": {
      "userBalance": {
        "details": "Balance of each user address"
      }
    },
    "version": 1
  },
  "userdoc": {
    "kind": "user",
    "methods": {},
    "version": 1
  }
}