{
  "contractName": "Play",
  "abi": [
    {
      "inputs": [
        {
          "internalType": "address",
          "name": "_tokenAddress",
          "type": "address"
        }
      ],
      "stateMutability": "nonpayable",
      "type": "constructor"
    },
    {
      "inputs": [
        {
          "internalType": "address",
          "name": "",
          "type": "address"
        },
        {
          "internalType": "uint256",
          "name": "",
          "type": "uint256"
        }
      ],
      "name": "chosenWinner",
      "outputs": [
        {
          "internalType": "string",
          "name": "",
          "type": "string"
        }
      ],
      "stateMutability": "view",
      "type": "function",
      "constant": true
    },
    {
      "inputs": [],
      "name": "eventCount",
      "outputs": [
        {
          "internalType": "uint256",
          "name": "",
          "type": "uint256"
        }
      ],
      "stateMutability": "view",
      "type": "function",
      "constant": true
    },
    {
      "inputs": [
        {
          "internalType": "address",
          "name": "",
          "type": "address"
        },
        {
          "internalType": "uint256",
          "name": "",
          "type": "uint256"
        }
      ],
      "name": "playerEarnings",
      "outputs": [
        {
          "internalType": "uint256",
          "name": "",
          "type": "uint256"
        }
      ],
      "stateMutability": "view",
      "type": "function",
      "constant": true
    },
    {
      "inputs": [
        {
          "internalType": "uint256",
          "name": "",
          "type": "uint256"
        }
      ],
      "name": "sportEvents",
      "outputs": [
        {
          "internalType": "uint256",
          "name": "eventId",
          "type": "uint256"
        },
        {
          "internalType": "string",
          "name": "fileHash",
          "type": "string"
        },
        {
          "internalType": "string",
          "name": "description",
          "type": "string"
        },
        {
          "internalType": "string",
          "name": "teamA",
          "type": "string"
        },
        {
          "internalType": "string",
          "name": "teamB",
          "type": "string"
        },
        {
          "internalType": "uint256",
          "name": "date",
          "type": "uint256"
        },
        {
          "internalType": "string",
          "name": "winner",
          "type": "string"
        }
      ],
      "stateMutability": "view",
      "type": "function",
      "constant": true
    },
    {
      "inputs": [
        {
          "internalType": "string",
          "name": "_fileHash",
          "type": "string"
        },
        {
          "internalType": "string",
          "name": "_description",
          "type": "string"
        },
        {
          "internalType": "string",
          "name": "_teamA",
          "type": "string"
        },
        {
          "internalType": "string",
          "name": "_teamB",
          "type": "string"
        },
        {
          "internalType": "uint256",
          "name": "_date",
          "type": "uint256"
        }
      ],
      "name": "addSportEvent",
      "outputs": [],
      "stateMutability": "nonpayable",
      "type": "function"
    },
    {
      "inputs": [
        {
          "internalType": "uint256",
          "name": "_eventId",
          "type": "uint256"
        }
      ],
      "name": "getWinner",
      "outputs": [
        {
          "internalType": "string",
          "name": "",
          "type": "string"
        }
      ],
      "stateMutability": "view",
      "type": "function",
      "constant": true
    },
    {
      "inputs": [
        {
          "internalType": "string",
          "name": "_winner",
          "type": "string"
        },
        {
          "internalType": "uint256",
          "name": "_amount",
          "type": "uint256"
        }
      ],
      "name": "bet",
      "outputs": [],
      "stateMutability": "nonpayable",
      "type": "function"
    },
    {
      "inputs": [
        {
          "internalType": "uint256",
          "name": "_eventId",
          "type": "uint256"
        }
      ],
      "name": "checkEarnings",
      "outputs": [
        {
          "internalType": "uint256",
          "name": "",
          "type": "uint256"
        }
      ],
      "stateMutability": "nonpayable",
      "type": "function"
    },
    {
      "inputs": [
        {
          "internalType": "address",
          "name": "_player",
          "type": "address"
        },
        {
          "internalType": "uint256",
          "name": "_eventId",
          "type": "uint256"
        }
      ],
      "name": "withdraw",
      "outputs": [],
      "stateMutability": "nonpayable",
      "type": "function"
    },
    {
      "inputs": [
        {
          "internalType": "address",
          "name": "_balance",
          "type": "address"
        }
      ],
      "name": "getBalance",
      "outputs": [
        {
          "internalType": "uint256",
          "name": "",
          "type": "uint256"
        }
      ],
      "stateMutability": "view",
      "type": "function",
      "constant": true
    }
  ],
  "bytecode": "0x608060405260006004553480156200001657600080fd5b50604051620019643803806200196483398181016040528101906200003c91906200009a565b806000806101000a81548173ffffffffffffffffffffffffffffffffffffffff021916908373ffffffffffffffffffffffffffffffffffffffff1602179055505062000114565b6000815190506200009481620000fa565b92915050565b600060208284031215620000ad57600080fd5b6000620000bd8482850162000083565b91505092915050565b6000620000d382620000da565b9050919050565b600073ffffffffffffffffffffffffffffffffffffffff82169050919050565b6200010581620000c6565b81146200011157600080fd5b50565b61184080620001246000396000f3fe608060405234801561001057600080fd5b506004361061009e5760003560e01c8063a4f84a6311610066578063a4f84a6314610173578063db7e0e5a146101a3578063e9c20cb9146101d3578063f3fef3a3146101ef578063f8b2cb4f1461020b5761009e565b806316983620146100a35780632c000da8146100bf5780634129b2c9146100ef5780635764127e1461011f57806371be2e4a14610155575b600080fd5b6100bd60048036038101906100b89190610fdd565b61023b565b005b6100d960048036038101906100d49190611108565b61039d565b6040516100e691906113ad565b60405180910390f35b61010960048036038101906101049190611108565b6104d2565b604051610116919061132b565b60405180910390f35b61013960048036038101906101349190611108565b61057a565b60405161014c97969594939291906113c8565b60405180910390f35b61015d610864565b60405161016a91906113ad565b60405180910390f35b61018d60048036038101906101889190610f78565b61086a565b60405161019a91906113ad565b60405180910390f35b6101bd60048036038101906101b89190610f78565b61088f565b6040516101ca919061132b565b60405180910390f35b6101ed60048036038101906101e891906110b4565b61093c565b005b61020960048036038101906102049190610f78565b610a9b565b005b61022560048036038101906102209190610f4f565b610ccf565b60405161023291906113ad565b60405180910390f35b62093a804261024a91906114ec565b81101561028c576040517f08c379a00000000000000000000000000000000000000000000000000000000081526004016102839061138d565b60405180910390fd5b6004600081548092919061029f90611663565b91905055506040518060e00160405280600454815260200186815260200185815260200184815260200183815260200182815260200184815250600560006004548152602001908152602001600020600082015181600001556020820151816001019080519060200190610314929190610df0565b506040820151816002019080519060200190610331929190610df0565b50606082015181600301908051906020019061034e929190610df0565b50608082015181600401908051906020019061036b929190610df0565b5060a0820151816005015560c0820151816006019080519060200190610392929190610df0565b509050505050505050565b6000600260003373ffffffffffffffffffffffffffffffffffffffff1673ffffffffffffffffffffffffffffffffffffffff16815260200190815260200160002060008381526020019081526020016000206040516020016103ff9190611299565b604051602081830303815290604052805190602001206005600084815260200190815260200160002060060160405160200161043b9190611299565b6040516020818303038152906040528051906020012014156104c857600a600360003373ffffffffffffffffffffffffffffffffffffffff1673ffffffffffffffffffffffffffffffffffffffff168152602001908152602001600020600084815260200190815260200160002060008282546104b891906114ec565b92505081905550600a90506104cd565b600090505b919050565b60606005600083815260200190815260200160002060060180546104f590611600565b80601f016020809104026020016040519081016040528092919081815260200182805461052190611600565b801561056e5780601f106105435761010080835404028352916020019161056e565b820191906000526020600020905b81548152906001019060200180831161055157829003601f168201915b50505050509050919050565b60056020528060005260406000206000915090508060000154908060010180546105a390611600565b80601f01602080910402602001604051908101604052809291908181526020018280546105cf90611600565b801561061c5780601f106105f15761010080835404028352916020019161061c565b820191906000526020600020905b8154815290600101906020018083116105ff57829003601f168201915b50505050509080600201805461063190611600565b80601f016020809104026020016040519081016040528092919081815260200182805461065d90611600565b80156106aa5780601f1061067f576101008083540402835291602001916106aa565b820191906000526020600020905b81548152906001019060200180831161068d57829003601f168201915b5050505050908060030180546106bf90611600565b80601f01602080910402602001604051908101604052809291908181526020018280546106eb90611600565b80156107385780601f1061070d57610100808354040283529160200191610738565b820191906000526020600020905b81548152906001019060200180831161071b57829003601f168201915b50505050509080600401805461074d90611600565b80601f016020809104026020016040519081016040528092919081815260200182805461077990611600565b80156107c65780601f1061079b576101008083540402835291602001916107c6565b820191906000526020600020905b8154815290600101906020018083116107a957829003601f168201915b5050505050908060050154908060060180546107e190611600565b80601f016020809104026020016040519081016040528092919081815260200182805461080d90611600565b801561085a5780601f1061082f5761010080835404028352916020019161085a565b820191906000526020600020905b81548152906001019060200180831161083d57829003601f168201915b5050505050905087565b60045481565b6003602052816000526040600020602052806000526040600020600091509150505481565b60026020528160005260406000206020528060005260406000206000915091505080546108bb90611600565b80601f01602080910402602001604051908101604052809291908181526020018280546108e790611600565b80156109345780601f1061090957610100808354040283529160200191610934565b820191906000526020600020905b81548152906001019060200180831161091757829003601f168201915b505050505081565b600a811015610980576040517f08c379a00000000000000000000000000000000000000000000000000000000081526004016109779061134d565b60405180910390fd5b60008054906101000a900473ffffffffffffffffffffffffffffffffffffffff1673ffffffffffffffffffffffffffffffffffffffff166323b872dd3330846040518463ffffffff1660e01b81526004016109dd939291906112cb565b602060405180830381600087803b1580156109f757600080fd5b505af1158015610a0b573d6000803e3d6000fd5b505050506040513d601f19601f82011682018060405250810190610a2f9190610fb4565b5081600260003373ffffffffffffffffffffffffffffffffffffffff1673ffffffffffffffffffffffffffffffffffffffff168152602001908152602001600020600060045481526020019081526020016000209080519060200190610a96929190610df0565b505050565b600073ffffffffffffffffffffffffffffffffffffffff168273ffffffffffffffffffffffffffffffffffffffff161415610b0b576040517f08c379a0000000000000000000000000000000000000000000000000000000008152600401610b029061136d565b60405180910390fd5b6000600360003373ffffffffffffffffffffffffffffffffffffffff1673ffffffffffffffffffffffffffffffffffffffff1681526020019081526020016000206000838152602001908152602001600020541115610c635760008054906101000a900473ffffffffffffffffffffffffffffffffffffffff1673ffffffffffffffffffffffffffffffffffffffff1663a9059cbb83600360003373ffffffffffffffffffffffffffffffffffffffff1673ffffffffffffffffffffffffffffffffffffffff1681526020019081526020016000206000858152602001908152602001600020546040518363ffffffff1660e01b8152600401610c0f929190611302565b602060405180830381600087803b158015610c2957600080fd5b505af1158015610c3d573d6000803e3d6000fd5b505050506040513d601f19601f82011682018060405250810190610c619190610fb4565b505b600a600360003373ffffffffffffffffffffffffffffffffffffffff1673ffffffffffffffffffffffffffffffffffffffff16815260200190815260200160002060008381526020019081526020016000206000828254610cc49190611542565b925050819055505050565b60008073ffffffffffffffffffffffffffffffffffffffff168273ffffffffffffffffffffffffffffffffffffffff161415610d40576040517f08c379a0000000000000000000000000000000000000000000000000000000008152600401610d379061136d565b60405180910390fd5b60008054906101000a900473ffffffffffffffffffffffffffffffffffffffff1673ffffffffffffffffffffffffffffffffffffffff166370a08231836040518263ffffffff1660e01b8152600401610d9991906112b0565b60206040518083038186803b158015610db157600080fd5b505afa158015610dc5573d6000803e3d6000fd5b505050506040513d601f19601f82011682018060405250810190610de99190611131565b9050919050565b828054610dfc90611600565b90600052602060002090601f016020900481019282610e1e5760008555610e65565b82601f10610e3757805160ff1916838001178555610e65565b82800160010185558215610e65579182015b82811115610e64578251825591602001919060010190610e49565b5b509050610e729190610e76565b5090565b5b80821115610e8f576000816000905550600101610e77565b5090565b6000610ea6610ea18461147f565b61145a565b905082815260208101848484011115610ebe57600080fd5b610ec98482856115be565b509392505050565b600081359050610ee0816117c5565b92915050565b600081519050610ef5816117dc565b92915050565b600082601f830112610f0c57600080fd5b8135610f1c848260208601610e93565b91505092915050565b600081359050610f34816117f3565b92915050565b600081519050610f49816117f3565b92915050565b600060208284031215610f6157600080fd5b6000610f6f84828501610ed1565b91505092915050565b60008060408385031215610f8b57600080fd5b6000610f9985828601610ed1565b9250506020610faa85828601610f25565b9150509250929050565b600060208284031215610fc657600080fd5b6000610fd484828501610ee6565b91505092915050565b600080600080600060a08688031215610ff557600080fd5b600086013567ffffffffffffffff81111561100f57600080fd5b61101b88828901610efb565b955050602086013567ffffffffffffffff81111561103857600080fd5b61104488828901610efb565b945050604086013567ffffffffffffffff81111561106157600080fd5b61106d88828901610efb565b935050606086013567ffffffffffffffff81111561108a57600080fd5b61109688828901610efb565b92505060806110a788828901610f25565b9150509295509295909350565b600080604083850312156110c757600080fd5b600083013567ffffffffffffffff8111156110e157600080fd5b6110ed85828601610efb565b92505060206110fe85828601610f25565b9150509250929050565b60006020828403121561111a57600080fd5b600061112884828501610f25565b91505092915050565b60006020828403121561114357600080fd5b600061115184828501610f3a565b91505092915050565b61116381611576565b82525050565b6000611174826114c5565b61117e81856114d0565b935061118e8185602086016115cd565b61119781611739565b840191505092915050565b600081546111af81611600565b6111b981866114e1565b945060018216600081146111d457600181146111e557611218565b60ff19831686528186019350611218565b6111ee856114b0565b60005b83811015611210578154818901526001820191506020810190506111f1565b838801955050505b50505092915050565b600061122e601e836114d0565b91506112398261174a565b602082019050919050565b60006112516018836114d0565b915061125c82611773565b602082019050919050565b60006112746020836114d0565b915061127f8261179c565b602082019050919050565b611293816115b4565b82525050565b60006112a582846111a2565b915081905092915050565b60006020820190506112c5600083018461115a565b92915050565b60006060820190506112e0600083018661115a565b6112ed602083018561115a565b6112fa604083018461128a565b949350505050565b6000604082019050611317600083018561115a565b611324602083018461128a565b9392505050565b600060208201905081810360008301526113458184611169565b905092915050565b6000602082019050818103600083015261136681611221565b9050919050565b6000602082019050818103600083015261138681611244565b9050919050565b600060208201905081810360008301526113a681611267565b9050919050565b60006020820190506113c2600083018461128a565b92915050565b600060e0820190506113dd600083018a61128a565b81810360208301526113ef8189611169565b905081810360408301526114038188611169565b905081810360608301526114178187611169565b9050818103608083015261142b8186611169565b905061143a60a083018561128a565b81810360c083015261144c8184611169565b905098975050505050505050565b6000611464611475565b90506114708282611632565b919050565b6000604051905090565b600067ffffffffffffffff82111561149a5761149961170a565b5b6114a382611739565b9050602081019050919050565b60008190508160005260206000209050919050565b600081519050919050565b600082825260208201905092915050565b600081905092915050565b60006114f7826115b4565b9150611502836115b4565b9250827fffffffffffffffffffffffffffffffffffffffffffffffffffffffffffffffff03821115611537576115366116ac565b5b828201905092915050565b600061154d826115b4565b9150611558836115b4565b92508282101561156b5761156a6116ac565b5b828203905092915050565b600061158182611594565b9050919050565b60008115159050919050565b600073ffffffffffffffffffffffffffffffffffffffff82169050919050565b6000819050919050565b82818337600083830152505050565b60005b838110156115eb5780820151818401526020810190506115d0565b838111156115fa576000848401525b50505050565b6000600282049050600182168061161857607f821691505b6020821081141561162c5761162b6116db565b5b50919050565b61163b82611739565b810181811067ffffffffffffffff8211171561165a5761165961170a565b5b80604052505050565b600061166e826115b4565b91507fffffffffffffffffffffffffffffffffffffffffffffffffffffffffffffffff8214156116a1576116a06116ac565b5b600182019050919050565b7f4e487b7100000000000000000000000000000000000000000000000000000000600052601160045260246000fd5b7f4e487b7100000000000000000000000000000000000000000000000000000000600052602260045260246000fd5b7f4e487b7100000000000000000000000000000000000000000000000000000000600052604160045260246000fd5b6000601f19601f8301169050919050565b7f41206d696e696d756d206f662031304441492069732072657175697265640000600082015250565b7f416464726573732030206973206e6f7420616c6c6f7765640000000000000000600082015250565b7f5f64617465206d757374206265203e3d2031207765656b2066726f6d206e6f77600082015250565b6117ce81611576565b81146117d957600080fd5b50565b6117e581611588565b81146117f057600080fd5b50565b6117fc816115b4565b811461180757600080fd5b5056fea264697066735822122054b815bb89f932cd63e04bd3aa8321674906c7d2f833bb34009b15d60c4e087d64736f6c63430008030033",
  "immutableReferences": {},
  "source": "// SPDX-License-Identifier: MIT\npragma solidity 0.8.3;\n\nimport \"@openzeppelin/contracts/token/ERC20/IERC20.sol\";\n\ncontract Play {\n\n    IERC20 Dai;\n\n    /**\n     * @dev list of all bets per player, ie. a map composed (player address => bet id) pairs\n     */\n\n    mapping(address => bytes32[]) private betsPerPlayer;\n\n    /**\n     * @dev list of all chosenWinner per match per user\n     */\n    mapping(address => mapping(uint => string)) public chosenWinner;\n\n    /**\n    * @dev list of earnings per match per player\n    */\n    mapping(address => mapping(uint => uint)) public playerEarnings;\n\n    uint public eventCount = 0;\n\n    mapping(uint => SportEvent) public sportEvents;\n\n    struct SportEvent {\n        uint         eventId;\n        string       fileHash;\n        string       description;\n        string       teamA;\n        string       teamB;\n        uint         date;\n        string       winner;\n    }\n\n    constructor(address _tokenAddress) {\n        Dai = IERC20(_tokenAddress);\n    }\n\n    function addSportEvent(\n        string memory _fileHash,\n        string memory _description,\n        string memory _teamA,\n        string memory _teamB,\n        uint          _date\n    ) public\n    {\n\n        require(_date >= block.timestamp + 1 weeks, \"_date must be >= 1 week from now\");\n\n        //Increment sport event\n        eventCount ++;\n\n        // Add the sport event\n        /* sportEvents.push(SportEvent(_name, _teamA, _teamB, _date, _teamA));*/\n        sportEvents[eventCount] = SportEvent(eventCount, _fileHash, _description, _teamA, _teamB, _date, _teamA);\n    }\n\n    function getWinner(uint _eventId) public view returns (string memory) {\n        return sportEvents[_eventId].winner;\n    }\n\n    // TO DO: throw an error if already played for an event\n    function bet(string memory _winner, uint _amount) public {\n        require(_amount >= 10, \"A minimum of 10DAI is required\");\n        // Deposit Dai\n        Dai.transferFrom(msg.sender, address(this), _amount);\n\n        // Add chosen winner per player per match\n        chosenWinner[msg.sender][eventCount] = _winner;\n    }\n\n    function checkEarnings(uint _eventId) public returns(uint) {\n        if (keccak256(abi.encodePacked(sportEvents[_eventId].winner)) == keccak256(abi.encodePacked(chosenWinner[msg.sender][_eventId]))) {\n            playerEarnings[msg.sender][_eventId] += 10;\n            return 10;\n        } else {\n            return 0;\n        }\n    }\n\n    function withdraw(address _player, uint _eventId) public {\n        require(_player != address(0), \"Address 0 is not allowed\");\n        if (playerEarnings[msg.sender][_eventId] > 0) {\n            Dai.transfer(_player, playerEarnings[msg.sender][_eventId]);\n        }\n\n        playerEarnings[msg.sender][_eventId] -= 10;\n    }\n\n\n    function getBalance(address _balance) public view returns (uint) {\n        require(_balance != address(0), \"Address 0 is not allowed\");\n        return Dai.balanceOf(_balance);\n\n    }\n\n}\n\n",
  "sourcePath": "/Users/Lidmi/Desktop/Alyra/ProjetFinal/BetNoLoss/bet-no-loss/contracts/Play.sol",
  "compiler": {
    "name": "solc",
    "version": "0.8.3+commit.8d00100c.Emscripten.clang"
  },
  "schemaVersion": "3.3.4",
  "updatedAt": "2021-04-27T21:35:14.974Z",
  "networkType": "ethereum",
  "devdoc": {
    "kind": "dev",
    "methods": {},
    "stateVariables": {
      "betsPerPlayer": {
        "details": "list of all bets per player, ie. a map composed (player address => bet id) pairs"
      },
      "chosenWinner": {
        "details": "list of all chosenWinner per match per user"
      },
      "playerEarnings": {
        "details": "list of earnings per match per player"
      }
    },
    "version": 1
  },
  "userdoc": {
    "kind": "user",
    "methods": {},
    "version": 1
  }
}