{
  "contractName": "Play",
  "abi": [
    {
      "inputs": [
        {
          "internalType": "address",
          "name": "_tokenAddress",
          "type": "address"
        }
      ],
      "stateMutability": "nonpayable",
      "type": "constructor"
    },
    {
      "inputs": [
        {
          "internalType": "address",
          "name": "",
          "type": "address"
        },
        {
          "internalType": "uint256",
          "name": "",
          "type": "uint256"
        }
      ],
      "name": "betsPerPlayer",
      "outputs": [
        {
          "internalType": "uint256",
          "name": "",
          "type": "uint256"
        }
      ],
      "stateMutability": "view",
      "type": "function",
      "constant": true
    },
    {
      "inputs": [
        {
          "internalType": "address",
          "name": "",
          "type": "address"
        },
        {
          "internalType": "uint256",
          "name": "",
          "type": "uint256"
        }
      ],
      "name": "chosenWinner",
      "outputs": [
        {
          "internalType": "string",
          "name": "",
          "type": "string"
        }
      ],
      "stateMutability": "view",
      "type": "function",
      "constant": true
    },
    {
      "inputs": [],
      "name": "eventCount",
      "outputs": [
        {
          "internalType": "uint256",
          "name": "",
          "type": "uint256"
        }
      ],
      "stateMutability": "view",
      "type": "function",
      "constant": true
    },
    {
      "inputs": [
        {
          "internalType": "address",
          "name": "",
          "type": "address"
        },
        {
          "internalType": "uint256",
          "name": "",
          "type": "uint256"
        }
      ],
      "name": "playerEarnings",
      "outputs": [
        {
          "internalType": "uint256",
          "name": "",
          "type": "uint256"
        }
      ],
      "stateMutability": "view",
      "type": "function",
      "constant": true
    },
    {
      "inputs": [
        {
          "internalType": "uint256",
          "name": "",
          "type": "uint256"
        }
      ],
      "name": "sportEvents",
      "outputs": [
        {
          "internalType": "uint256",
          "name": "eventId",
          "type": "uint256"
        },
        {
          "internalType": "string",
          "name": "fileHash",
          "type": "string"
        },
        {
          "internalType": "string",
          "name": "description",
          "type": "string"
        },
        {
          "internalType": "string",
          "name": "teamA",
          "type": "string"
        },
        {
          "internalType": "string",
          "name": "teamB",
          "type": "string"
        },
        {
          "internalType": "uint256",
          "name": "date",
          "type": "uint256"
        },
        {
          "internalType": "string",
          "name": "winner",
          "type": "string"
        }
      ],
      "stateMutability": "view",
      "type": "function",
      "constant": true
    },
    {
      "inputs": [
        {
          "internalType": "string",
          "name": "_fileHash",
          "type": "string"
        },
        {
          "internalType": "string",
          "name": "_description",
          "type": "string"
        },
        {
          "internalType": "string",
          "name": "_teamA",
          "type": "string"
        },
        {
          "internalType": "string",
          "name": "_teamB",
          "type": "string"
        },
        {
          "internalType": "uint256",
          "name": "_date",
          "type": "uint256"
        }
      ],
      "name": "addSportEvent",
      "outputs": [],
      "stateMutability": "nonpayable",
      "type": "function"
    },
    {
      "inputs": [
        {
          "internalType": "uint256",
          "name": "_eventId",
          "type": "uint256"
        }
      ],
      "name": "getWinner",
      "outputs": [
        {
          "internalType": "string",
          "name": "",
          "type": "string"
        }
      ],
      "stateMutability": "view",
      "type": "function",
      "constant": true
    },
    {
      "inputs": [
        {
          "internalType": "string",
          "name": "_winner",
          "type": "string"
        },
        {
          "internalType": "uint256",
          "name": "_amount",
          "type": "uint256"
        },
        {
          "internalType": "uint256",
          "name": "eventId",
          "type": "uint256"
        }
      ],
      "name": "bet",
      "outputs": [],
      "stateMutability": "nonpayable",
      "type": "function"
    },
    {
      "inputs": [
        {
          "internalType": "uint256",
          "name": "_eventId",
          "type": "uint256"
        }
      ],
      "name": "checkEarnings",
      "outputs": [
        {
          "internalType": "uint256",
          "name": "",
          "type": "uint256"
        }
      ],
      "stateMutability": "nonpayable",
      "type": "function"
    },
    {
      "inputs": [
        {
          "internalType": "address",
          "name": "_player",
          "type": "address"
        },
        {
          "internalType": "uint256",
          "name": "_eventId",
          "type": "uint256"
        }
      ],
      "name": "withdraw",
      "outputs": [],
      "stateMutability": "nonpayable",
      "type": "function"
    },
    {
      "inputs": [
        {
          "internalType": "address",
          "name": "_balance",
          "type": "address"
        }
      ],
      "name": "getBalance",
      "outputs": [
        {
          "internalType": "uint256",
          "name": "",
          "type": "uint256"
        }
      ],
      "stateMutability": "view",
      "type": "function",
      "constant": true
    }
  ],
  "bytecode": "0x608060405260006004553480156200001657600080fd5b506040516200199a3803806200199a83398181016040528101906200003c91906200009a565b806000806101000a81548173ffffffffffffffffffffffffffffffffffffffff021916908373ffffffffffffffffffffffffffffffffffffffff1602179055505062000114565b6000815190506200009481620000fa565b92915050565b600060208284031215620000ad57600080fd5b6000620000bd8482850162000083565b91505092915050565b6000620000d382620000da565b9050919050565b600073ffffffffffffffffffffffffffffffffffffffff82169050919050565b6200010581620000c6565b81146200011157600080fd5b50565b61187680620001246000396000f3fe608060405234801561001057600080fd5b50600436106100a95760003560e01c80635764127e116100715780635764127e1461017657806371be2e4a146101ac578063a4f84a63146101ca578063db7e0e5a146101fa578063f3fef3a31461022a578063f8b2cb4f14610246576100a9565b806316983620146100ae578063291d6974146100ca57806329d809b3146100e65780632c000da8146101165780634129b2c914610146575b600080fd5b6100c860048036038101906100c3919061106c565b610276565b005b6100e460048036038101906100df9190611143565b6103d8565b005b61010060048036038101906100fb9190611007565b61055a565b60405161010d919061140c565b60405180910390f35b610130600480360381019061012b91906111aa565b61058b565b60405161013d919061140c565b60405180910390f35b610160600480360381019061015b91906111aa565b6106c0565b60405161016d91906113aa565b60405180910390f35b610190600480360381019061018b91906111aa565b610768565b6040516101a39796959493929190611427565b60405180910390f35b6101b4610a52565b6040516101c1919061140c565b60405180910390f35b6101e460048036038101906101df9190611007565b610a58565b6040516101f1919061140c565b60405180910390f35b610214600480360381019061020f9190611007565b610a7d565b60405161022191906113aa565b60405180910390f35b610244600480360381019061023f9190611007565b610b2a565b005b610260600480360381019061025b9190610fde565b610d5e565b60405161026d919061140c565b60405180910390f35b62093a8042610285919061154b565b8110156102c7576040517f08c379a00000000000000000000000000000000000000000000000000000000081526004016102be906113ec565b60405180910390fd5b600460008154809291906102da906116c2565b91905055506040518060e0016040528060045481526020018681526020018581526020018481526020018381526020018281526020018481525060056000600454815260200190815260200160002060008201518160000155602082015181600101908051906020019061034f929190610e7f565b50604082015181600201908051906020019061036c929190610e7f565b506060820151816003019080519060200190610389929190610e7f565b5060808201518160040190805190602001906103a6929190610e7f565b5060a0820151816005015560c08201518160060190805190602001906103cd929190610e7f565b509050505050505050565b60008054906101000a900473ffffffffffffffffffffffffffffffffffffffff1673ffffffffffffffffffffffffffffffffffffffff166323b872dd3330856040518463ffffffff1660e01b81526004016104359392919061134a565b602060405180830381600087803b15801561044f57600080fd5b505af1158015610463573d6000803e3d6000fd5b505050506040513d601f19601f820116820180604052508101906104879190611043565b5082600260003373ffffffffffffffffffffffffffffffffffffffff1673ffffffffffffffffffffffffffffffffffffffff1681526020019081526020016000206000600454815260200190815260200160002090805190602001906104ee929190610e7f565b50600160003373ffffffffffffffffffffffffffffffffffffffff1673ffffffffffffffffffffffffffffffffffffffff168152602001908152602001600020819080600181540180825580915050600190039060005260206000200160009091909190915055505050565b6001602052816000526040600020818154811061057657600080fd5b90600052602060002001600091509150505481565b6000600260003373ffffffffffffffffffffffffffffffffffffffff1673ffffffffffffffffffffffffffffffffffffffff16815260200190815260200160002060008381526020019081526020016000206040516020016105ed9190611318565b60405160208183030381529060405280519060200120600560008481526020019081526020016000206006016040516020016106299190611318565b6040516020818303038152906040528051906020012014156106b657600a600360003373ffffffffffffffffffffffffffffffffffffffff1673ffffffffffffffffffffffffffffffffffffffff168152602001908152602001600020600084815260200190815260200160002060008282546106a6919061154b565b92505081905550600a90506106bb565b600090505b919050565b60606005600083815260200190815260200160002060060180546106e39061165f565b80601f016020809104026020016040519081016040528092919081815260200182805461070f9061165f565b801561075c5780601f106107315761010080835404028352916020019161075c565b820191906000526020600020905b81548152906001019060200180831161073f57829003601f168201915b50505050509050919050565b60056020528060005260406000206000915090508060000154908060010180546107919061165f565b80601f01602080910402602001604051908101604052809291908181526020018280546107bd9061165f565b801561080a5780601f106107df5761010080835404028352916020019161080a565b820191906000526020600020905b8154815290600101906020018083116107ed57829003601f168201915b50505050509080600201805461081f9061165f565b80601f016020809104026020016040519081016040528092919081815260200182805461084b9061165f565b80156108985780601f1061086d57610100808354040283529160200191610898565b820191906000526020600020905b81548152906001019060200180831161087b57829003601f168201915b5050505050908060030180546108ad9061165f565b80601f01602080910402602001604051908101604052809291908181526020018280546108d99061165f565b80156109265780601f106108fb57610100808354040283529160200191610926565b820191906000526020600020905b81548152906001019060200180831161090957829003601f168201915b50505050509080600401805461093b9061165f565b80601f01602080910402602001604051908101604052809291908181526020018280546109679061165f565b80156109b45780601f10610989576101008083540402835291602001916109b4565b820191906000526020600020905b81548152906001019060200180831161099757829003601f168201915b5050505050908060050154908060060180546109cf9061165f565b80601f01602080910402602001604051908101604052809291908181526020018280546109fb9061165f565b8015610a485780601f10610a1d57610100808354040283529160200191610a48565b820191906000526020600020905b815481529060010190602001808311610a2b57829003601f168201915b5050505050905087565b60045481565b6003602052816000526040600020602052806000526040600020600091509150505481565b6002602052816000526040600020602052806000526040600020600091509150508054610aa99061165f565b80601f0160208091040260200160405190810160405280929190818152602001828054610ad59061165f565b8015610b225780601f10610af757610100808354040283529160200191610b22565b820191906000526020600020905b815481529060010190602001808311610b0557829003601f168201915b505050505081565b600073ffffffffffffffffffffffffffffffffffffffff168273ffffffffffffffffffffffffffffffffffffffff161415610b9a576040517f08c379a0000000000000000000000000000000000000000000000000000000008152600401610b91906113cc565b60405180910390fd5b6000600360003373ffffffffffffffffffffffffffffffffffffffff1673ffffffffffffffffffffffffffffffffffffffff1681526020019081526020016000206000838152602001908152602001600020541115610cf25760008054906101000a900473ffffffffffffffffffffffffffffffffffffffff1673ffffffffffffffffffffffffffffffffffffffff1663a9059cbb83600360003373ffffffffffffffffffffffffffffffffffffffff1673ffffffffffffffffffffffffffffffffffffffff1681526020019081526020016000206000858152602001908152602001600020546040518363ffffffff1660e01b8152600401610c9e929190611381565b602060405180830381600087803b158015610cb857600080fd5b505af1158015610ccc573d6000803e3d6000fd5b505050506040513d601f19601f82011682018060405250810190610cf09190611043565b505b600a600360003373ffffffffffffffffffffffffffffffffffffffff1673ffffffffffffffffffffffffffffffffffffffff16815260200190815260200160002060008381526020019081526020016000206000828254610d5391906115a1565b925050819055505050565b60008073ffffffffffffffffffffffffffffffffffffffff168273ffffffffffffffffffffffffffffffffffffffff161415610dcf576040517f08c379a0000000000000000000000000000000000000000000000000000000008152600401610dc6906113cc565b60405180910390fd5b60008054906101000a900473ffffffffffffffffffffffffffffffffffffffff1673ffffffffffffffffffffffffffffffffffffffff166370a08231836040518263ffffffff1660e01b8152600401610e28919061132f565b60206040518083038186803b158015610e4057600080fd5b505afa158015610e54573d6000803e3d6000fd5b505050506040513d601f19601f82011682018060405250810190610e7891906111d3565b9050919050565b828054610e8b9061165f565b90600052602060002090601f016020900481019282610ead5760008555610ef4565b82601f10610ec657805160ff1916838001178555610ef4565b82800160010185558215610ef4579182015b82811115610ef3578251825591602001919060010190610ed8565b5b509050610f019190610f05565b5090565b5b80821115610f1e576000816000905550600101610f06565b5090565b6000610f35610f30846114de565b6114b9565b905082815260208101848484011115610f4d57600080fd5b610f5884828561161d565b509392505050565b600081359050610f6f816117fb565b92915050565b600081519050610f8481611812565b92915050565b600082601f830112610f9b57600080fd5b8135610fab848260208601610f22565b91505092915050565b600081359050610fc381611829565b92915050565b600081519050610fd881611829565b92915050565b600060208284031215610ff057600080fd5b6000610ffe84828501610f60565b91505092915050565b6000806040838503121561101a57600080fd5b600061102885828601610f60565b925050602061103985828601610fb4565b9150509250929050565b60006020828403121561105557600080fd5b600061106384828501610f75565b91505092915050565b600080600080600060a0868803121561108457600080fd5b600086013567ffffffffffffffff81111561109e57600080fd5b6110aa88828901610f8a565b955050602086013567ffffffffffffffff8111156110c757600080fd5b6110d388828901610f8a565b945050604086013567ffffffffffffffff8111156110f057600080fd5b6110fc88828901610f8a565b935050606086013567ffffffffffffffff81111561111957600080fd5b61112588828901610f8a565b925050608061113688828901610fb4565b9150509295509295909350565b60008060006060848603121561115857600080fd5b600084013567ffffffffffffffff81111561117257600080fd5b61117e86828701610f8a565b935050602061118f86828701610fb4565b92505060406111a086828701610fb4565b9150509250925092565b6000602082840312156111bc57600080fd5b60006111ca84828501610fb4565b91505092915050565b6000602082840312156111e557600080fd5b60006111f384828501610fc9565b91505092915050565b611205816115d5565b82525050565b600061121682611524565b611220818561152f565b935061123081856020860161162c565b61123981611798565b840191505092915050565b600081546112518161165f565b61125b8186611540565b945060018216600081146112765760018114611287576112ba565b60ff198316865281860193506112ba565b6112908561150f565b60005b838110156112b257815481890152600182019150602081019050611293565b838801955050505b50505092915050565b60006112d060188361152f565b91506112db826117a9565b602082019050919050565b60006112f360208361152f565b91506112fe826117d2565b602082019050919050565b61131281611613565b82525050565b60006113248284611244565b915081905092915050565b600060208201905061134460008301846111fc565b92915050565b600060608201905061135f60008301866111fc565b61136c60208301856111fc565b6113796040830184611309565b949350505050565b600060408201905061139660008301856111fc565b6113a36020830184611309565b9392505050565b600060208201905081810360008301526113c4818461120b565b905092915050565b600060208201905081810360008301526113e5816112c3565b9050919050565b60006020820190508181036000830152611405816112e6565b9050919050565b60006020820190506114216000830184611309565b92915050565b600060e08201905061143c600083018a611309565b818103602083015261144e818961120b565b90508181036040830152611462818861120b565b90508181036060830152611476818761120b565b9050818103608083015261148a818661120b565b905061149960a0830185611309565b81810360c08301526114ab818461120b565b905098975050505050505050565b60006114c36114d4565b90506114cf8282611691565b919050565b6000604051905090565b600067ffffffffffffffff8211156114f9576114f8611769565b5b61150282611798565b9050602081019050919050565b60008190508160005260206000209050919050565b600081519050919050565b600082825260208201905092915050565b600081905092915050565b600061155682611613565b915061156183611613565b9250827fffffffffffffffffffffffffffffffffffffffffffffffffffffffffffffffff038211156115965761159561170b565b5b828201905092915050565b60006115ac82611613565b91506115b783611613565b9250828210156115ca576115c961170b565b5b828203905092915050565b60006115e0826115f3565b9050919050565b60008115159050919050565b600073ffffffffffffffffffffffffffffffffffffffff82169050919050565b6000819050919050565b82818337600083830152505050565b60005b8381101561164a57808201518184015260208101905061162f565b83811115611659576000848401525b50505050565b6000600282049050600182168061167757607f821691505b6020821081141561168b5761168a61173a565b5b50919050565b61169a82611798565b810181811067ffffffffffffffff821117156116b9576116b8611769565b5b80604052505050565b60006116cd82611613565b91507fffffffffffffffffffffffffffffffffffffffffffffffffffffffffffffffff821415611700576116ff61170b565b5b600182019050919050565b7f4e487b7100000000000000000000000000000000000000000000000000000000600052601160045260246000fd5b7f4e487b7100000000000000000000000000000000000000000000000000000000600052602260045260246000fd5b7f4e487b7100000000000000000000000000000000000000000000000000000000600052604160045260246000fd5b6000601f19601f8301169050919050565b7f416464726573732030206973206e6f7420616c6c6f7765640000000000000000600082015250565b7f5f64617465206d757374206265203e3d2031207765656b2066726f6d206e6f77600082015250565b611804816115d5565b811461180f57600080fd5b50565b61181b816115e7565b811461182657600080fd5b50565b61183281611613565b811461183d57600080fd5b5056fea2646970667358221220549759ff553f36cdefd0aa6a3ede028db5f77df199c70e64acaeffe2f2b50e0364736f6c63430008030033",
  "immutableReferences": {},
  "source": "// SPDX-License-Identifier: MIT\npragma solidity 0.8.3;\n\nimport \"@openzeppelin/contracts/token/ERC20/IERC20.sol\";\n\ncontract Play {\n\n    IERC20 Dai;\n\n    /**\n     * @dev list of all bets per player, ie. a map composed (player address => bet id) pairs\n     */\n\n    mapping(address => uint[]) public betsPerPlayer;\n\n    /**\n     * @dev list of all chosenWinner per match per user, ie. a map composed (player address => (event id => chosen winner)) pairs\n     */\n    mapping(address => mapping(uint => string)) public chosenWinner;\n\n    /**\n    * @dev list of earnings per match per player, ie. a map composed (player address => (event id => bet amount)) pairs\n    */\n    mapping(address => mapping(uint => uint)) public playerEarnings;\n\n    uint public eventCount = 0;\n\n    mapping(uint => SportEvent) public sportEvents;\n\n    struct SportEvent {\n        uint         eventId;\n        string       fileHash;\n        string       description;\n        string       teamA;\n        string       teamB;\n        uint         date;\n        string       winner;\n    }\n\n    constructor(address _tokenAddress) {\n        Dai = IERC20(_tokenAddress);\n    }\n\n    function addSportEvent(\n        string memory _fileHash,\n        string memory _description,\n        string memory _teamA,\n        string memory _teamB,\n        uint          _date\n    ) public\n    {\n\n        require(_date >= block.timestamp + 1 weeks, \"_date must be >= 1 week from now\");\n\n        //Increment sport event\n        eventCount ++;\n\n        // Add the sport event\n        /* sportEvents.push(SportEvent(_name, _teamA, _teamB, _date, _teamA));*/\n        sportEvents[eventCount] = SportEvent(eventCount, _fileHash, _description, _teamA, _teamB, _date, _teamA);\n    }\n\n    function getWinner(uint _eventId) public view returns (string memory) {\n        return sportEvents[_eventId].winner;\n    }\n\n    // TO DO: throw an error if already played for an event\n    function bet(string memory _winner, uint _amount, uint eventId) public {\n        /*require(_amount >= 10, \"A minimum of 10DAI is required\");*/\n        // Deposit Dai\n        Dai.transferFrom(msg.sender, address(this), _amount);\n\n        // Add chosen winner per player per match\n        chosenWinner[msg.sender][eventCount] = _winner;\n\n        // TO DO: Check if works\n        betsPerPlayer[msg.sender].push(eventId);\n    }\n\n    function checkEarnings(uint _eventId) public returns(uint) {\n        if (keccak256(abi.encodePacked(sportEvents[_eventId].winner)) == keccak256(abi.encodePacked(chosenWinner[msg.sender][_eventId]))) {\n            playerEarnings[msg.sender][_eventId] += 10;\n            return 10;\n        } else {\n            return 0;\n        }\n    }\n\n    function withdraw(address _player, uint _eventId) public {\n        require(_player != address(0), \"Address 0 is not allowed\");\n        if (playerEarnings[msg.sender][_eventId] > 0) {\n            Dai.transfer(_player, playerEarnings[msg.sender][_eventId]);\n        }\n\n        playerEarnings[msg.sender][_eventId] -= 10;\n    }\n\n\n    function getBalance(address _balance) public view returns (uint) {\n        require(_balance != address(0), \"Address 0 is not allowed\");\n        return Dai.balanceOf(_balance);\n\n    }\n\n}\n\n",
  "sourcePath": "/Users/Lidmi/Desktop/Alyra/ProjetFinal/BetNoLoss/bet-no-loss/contracts/Play.sol",
  "compiler": {
    "name": "solc",
    "version": "0.8.3+commit.8d00100c.Emscripten.clang"
  },
  "schemaVersion": "3.3.4",
  "updatedAt": "2021-05-06T15:35:26.674Z",
  "networkType": "ethereum",
  "devdoc": {
    "kind": "dev",
    "methods": {},
    "stateVariables": {
      "betsPerPlayer": {
        "details": "list of all bets per player, ie. a map composed (player address => bet id) pairs"
      },
      "chosenWinner": {
        "details": "list of all chosenWinner per match per user, ie. a map composed (player address => (event id => chosen winner)) pairs"
      },
      "playerEarnings": {
        "details": "list of earnings per match per player, ie. a map composed (player address => (event id => bet amount)) pairs"
      }
    },
    "version": 1
  },
  "userdoc": {
    "kind": "user",
    "methods": {},
    "version": 1
  }
}